:1000000056EF0FF00000000000EF00F000000000CD
:0A0010000000000000000000F3D71C
:0A001C0000000000000000001200C8
:100026001D0E0C6E910E0D6E0D2EFED70C2EFCD7EE
:020036001200B6
:0C003800420E0D6E0D2EFED700001200CF
:080044000AAE029E000E12003C
:10004C000601D2BF02D0829E01D0828ED2BD02D0D8
:10005C00829C01D0828CD2BB02D0829A01D0828A3F
:10006C00D2B902D0829801D0828853B102D0818655
:10007C0001D081968184CCDF8194D2B702D0829E4C
:10008C0001D0828ED2B502D0829C01D0828CD2B3A8
:10009C0002D0829A01D0828AD2B102D0829801D049
:1000AC00828853B102D0818601D081968184B0DFE1
:0E00BC00819453A102D0B1DF01D0B8DF120051
:1000CA000B820BAE6FEF00F00368026801680068EC
:0800DA000A360232FF0E12008B
:0E00E200026A016A006A086A036A000E1200D0
:1000F0000B840BAE83EF00F0010E036E026A016AFF
:0A010000006A0A360232FF0E1200F8
:10010A000B800BAE91EF00F0026A0AAEFF0E026E90
:0C011A00016E006E0A360232FF0E120069
:100126000CB0D5EF00F00CA27BEF01F00E6A000ECA
:100136000264ECEF00F0F00E0214D8A4B7EF00F062
:10014600023A01380F0B02260138F00B016E003817
:100156000F0B01260038F00B006E08380F0B002637
:100166000838F00B086E0E84D89002BED0EF00F06F
:1001760008360036013602360E2A02BED0EF00F0EF
:1001860008360036013602360E2A02BED0EF00F0DF
:1001960008360036013602360E2A0E50036471EF19
:1001A60001F0035E0BBC08AE76EF01F0D880800E3E
:1001B60008640030000E002201220222D8A076EF49
:1001C60001F0023201320032034A7BEF01F076EF92
:1001D60001F001C002F000C001F008C000F0086A9A
:1001E600000E0E86026423EF01F0F00E0214D8A46E
:1001F6000BEF01F0023A01380F0B02260138F00B23
:10020600016E00380F0B01260038F00B006E0E84CD
:10021600D89002BED0EF00F00036013602360E2A24
:1002260002BED0EF00F00036013602360E2A02BEBC
:10023600D0EF00F00036013602360E2AD0EF00F07D
:1002460001C002F000C001F0006A000E0E960E8892
:10025600026450EF01F0F00E0214D8A43BEF01F057
:10026600023A01380F0B02260138F00B016E0E849C
:10027600D89002BED0EF00F0013602360E2A02BE3A
:10028600D0EF00F0013602360E2A02BED0EF00F0A3
:10029600013602360E2AD0EF00F001C002F0016AE4
:1002A600000E0E86026480EF01F0F00E0214D8A450
:1002B6005FEF01F0023A0E84D89002BED0EF00F054
:1002C60002360E2A02BED0EF00F002360E2A02BE19
:1002D600D0EF00F002360E2AD0EF00F0010E0C6EC1
:1002E60004DF83EF01F0020E0C6EA9DE83EF01F04E
:1002F600040E0C6EE7DE83EF01F0080E0C6EEEDEE8
:020306001200E3
:0A0308001D0E0D6E0D2EFED7120023
:0E03120006015391D1C6D2F698DE5381120037
:100320000134083609360450085E0550D8A0053C53
:10033000095E003601360F0E0C6E013408360936A0
:10034000045000A006D0085E0550D8A0053C095E08
:1003500005D008260550D8B0053C092600360136E0
:100360000C2EEBD700B006D0045008260550D8B0AC
:08037000053C09260000120003
:100378000A6A0350D8A40A800750D8A40A820A50EF
:10038800D8B41FEF02F0030AD8B4D8EF01F00AB0CE
:10039800D3EF01F006AE1DEF02F01BEF02F002AE44
:1003A8001BEF02F01DEF02F00250800B0A6E029E56
:1003B8000650800B069E0A18D8B4E9EF01F00A50DF
:1003C800D8B41BEF02F01DEF02F00750035CD8B45D
:1003D800F3EF01F0D8A00FEF02F015EF02F006508E
:1003E800025CD8B4FDEF01F0D8A00FEF02F015EFD2
:1003F80002F00550015CD8B407EF02F0D8A00FEF67
:1004080002F015EF02F00450005CD8B41FEF02F0C0
:10041800D8B015EF02F00A52D8B41DEF02F01BEF66
:1004280002F00A52D8B41BEF02F01DEF02F0D88098
:0E0438001200D8901200D880D8841200120052
:080446000B6A0B86FF0E120089
:10044E000B6A0C6A0A6A086A0350D8B4AFEF02F05E
:10045E00028E9E0E035E03BE3AEF02F0D8B43AEF60
:10046E0002F09FEF02F0036C080E035CD8A06CEF55
:10047E0002F0036E083600C008F001C000F002C0A2
:10048E0001F0026A080E035CD8A06CEF02F0036E56
:10049E00083600C008F001C000F0016A080E035CC7
:1004AE00D8A06CEF02F0036E083600C008F0006AA8
:1004BE00080E035CD8A06CEF02F0036E0836086AD3
:1004CE000350D8A4D89078EF02F00350D8B478EF48
:1004DE0002F0D8900232013200320832032E70EF51
:1004EE0002F00BBC08A089EF02F0D8A089EF02F051
:1004FE00082AD8B4002AD8B4012AD8B4022A02BED7
:10050E00B3EF02F00AAEAFEF02F0021E011E001EA4
:10051E00081E082AD8B4002AD8B4012AD8B4022A50
:10052E00AFEF02F0026A016A006A086AAFEF02F0EA
:10053E000B800BAEB8EF02F0026A0AAEB8EF02F013
:10054E00026E016E006E086E0A360232B8EF02F0CD
:10055E00000E0C6AB9EF02F0010E0C6ECFDDB9EF92
:10056E0002F0FF0E0250036E0150026E0050016E3B
:06057E000850006E12009F
:10058400086A096A000E0762036447EF03F0025029
:1005940006180A6E075003267E0ED8A0D8EF02F084
:1005A400035ED8B04BEF03F0DCEF02F0035ED8A09B
:1005B4004FEF03F0028E068E02C00EF001C00BF066
:1005C40000C00DF000500402F4CF0CF001500502FD
:1005D400F4CF00F0F3CF08F00402F3500C26F450EB
:1005E4000822000E00220D500502F3500C26F45090
:1005F4000822000E002202500402F3500826F45090
:10060400002202500502016A000E0122F350002666
:10061400F45001220D500602F3500826F450002233
:10062400026A000E012202220B500602F350002639
:10063400F4500122000E02220E500602F35001264D
:10064400F450022202BE2FEF03F0083600360136C2
:1006540002360306D8B44FEF03F042EF03F0D8801C
:10066400800E08640030000E002201220222D8A06D
:1006740042EF03F0023201320032034A4BEF03F03F
:100684000AAE029E000E51EF03F0010E28DD51EF79
:1006940003F0020E18DD51EF03F0040E27DD120003
:1006A4000450000A08E10550000A05E1FF0E006E3F
:1006B4007F0E016E57D00D6A096A086A0150001056
:1006C400D8B4000C015005180A6E0ABE0D1E0B6A40
:1006D40005AE05D0041E051E042AD8B4052A01AEB1
:1006E40005D0001E011E002AD8B4012A01500510AD
:1006F4000A6E0ABE10D012DE0BB020D00DAE000C74
:10070400001E011E002AD8B4012A081E091E082A48
:10071400D8B4092A000C05AE0DD001BE07D0015093
:10072400096E0050086E016A006AE8D7016A006A1F
:10073400002A000C011E001E0B2ADDD7082AD8B49B
:10074400092A0450085CD8A4D9D70550095CD8A458
:10075400D5D7096A086A002AD8B4012A01AECED7CF
:060764000000FF0C120072
:10076A00C90E0601CF6F060ED06F030ECF25D96EC4
:10077A00000ED021DA6EDE50CD25016E000ECE219C
:10078A00026E01C0CDF602C0CEF6800E0218006ECF
:10079A00800E005C02E1000E015C05E2006A016A5B
:1007AA00026A036A3ED0800E006E800ECE19005C8B
:1007BA0002E1CD51FF0825E2046A056A066A076A62
:1007CA00C9C600F0CAC601F0CBC602F0CCC603F017
:1007DA00CEDD010ED8B0000E006E005209E0FF0E09
:1007EA00006EFF0E016EFF0E026EFF0E036E19D031
:1007FA00FF0E006EFF0E016E7F0E026EFF0E036E7D
:10080A0010D0030ECF25E16E000ED021E26ECDC6C8
:10081A00E6FFC9C600F0CAC601F0CBC602F0CCC6D4
:04082A0003F01200C5
:10082E0003500718D8A42BEF04F002500618D8A4D2
:10083E002BEF04F001500518D8A42BEF04F0005054
:0E084E000418D8B4D8841200D89412001200F6
:10085C00025006180E6E086A096A0B6A0350076488
:10086C0021EF05F006500A6E068E028E03500B6EB9
:10087C000750036E000E0B6471EF04F00B50075E13
:10088C00D8B412EF05F0070E0764E0EF04F0075E32
:10089C0000C008F001C000F002C001F0026A074E6F
:1008AC0012EF05F00764B5EF04F0075E00C008F026
:1008BC0001C000F0016A074E12EF05F0076493EFD8
:1008CC0004F0075E00C008F0006A074E12EF05F056
:1008DC0007647AEF04F00AC002F005C001F004C00E
:1008EC0000F0086A3EEF06F0030E076485EF04F093
:1008FC00075E08380F0B086E074E12EF05F0D89004
:10090C000832074E12EF05F0D8900832074E12EF5E
:10091C0005F0D890083212EF05F0030E0764A4EF2F
:10092C0004F0075E08380F0B086E0038F00B082631
:10093C0000380F0B006E074E12EF05F0D890003206
:10094C000832074E12EF05F0D89000320832074EED
:10095C0012EF05F0D8900032083212EF05F0030EBA
:10096C000764CCEF04F0075E08380F0B086E0038F4
:10097C00F00B082600380F0B006E0138F00B002628
:10098C0001380F0B016E074E12EF05F0D8900132B3
:10099C0000320832074E12EF05F0D89001320032C7
:1009AC000832074E12EF05F0D890013200320832AF
:1009BC0012EF05F0030E0764FDEF04F0075E083834
:1009CC000F0B086E0038F00B082600380F0B006E6A
:1009DC000138F00B002601380F0B016E0238F00BBA
:1009EC00012602380F0B026E074E12EF05F0D8905D
:1009FC000232013200320832074E12EF05F0D89065
:100A0C000232013200320832074E12EF05F0D89054
:100A1C000232013200320832096A000E0EAE06EFC5
:100A2C0006F0081E001E011E021E082A00220122CA
:100A3C00022206EF06F00750D8A427EF05F03EEF90
:100A4C0006F0096A02C00AF0028E068E0750035C9B
:100A5C00076ED8B4F9EF05F0070E0764C7EF05F081
:100A6C00075E0450096E0550046E0650056E066A4A
:100A7C00074EF9EF05F0070E07649CEF05F0075ED3
:100A8C000450096E0550046E056A074EF9EF05F027
:100A9C00070E07647AEF05F0075E0450096E046ACE
:100AAC00074EF9EF05F0070E076461EF05F00AC079
:100ABC0002F03EEF06F0030E07646CEF05F0075EE4
:100ACC0009380F0B096E074EF9EF05F0D890093273
:100ADC00074EF9EF05F0D8900932074EF9EF05F003
:100AEC00D8900932F9EF05F0030E07648BEF05F08F
:100AFC00075E09380F0B096E0438F00B0926043811
:100B0C000F0B046E074EF9EF05F0D8900432093242
:100B1C00074EF9EF05F0D89004320932074EF9EF81
:100B2C0005F0D89004320932F9EF05F0030E076492
:100B3C00B3EF05F0075E09380F0B096E0438F00BA4
:100B4C00092604380F0B046E0538F00B0426053803
:100B5C000F0B056E074EF9EF05F0D89005320432F5
:100B6C000932074EF9EF05F0D890053204320932FC
:100B7C00074EF9EF05F0D890053204320932F9EF3F
:100B8C0005F0030E0764E4EF05F0075E09380F0B60
:100B9C00096E0438F00B092604380F0B046E053867
:100BAC00F00B042605380F0B056E0638F00B0526E6
:100BBC0006380F0B066E074EF9EF05F0D89006328B
:100BCC00053204320932074EF9EF05F0D89006329F
:100BDC00053204320932074EF9EF05F0D89006328F
:100BEC00053204320932086A000E0EAE06EF06F02A
:100BFC00091E041E051E061E092A042205220622B1
:100C0C0009500826045000220550012206500222E9
:100C1C000EBE1DEF06F0D8A02CEF06F0023201320A
:100C2C0000320832033E2CEF06F038EF06F0D8B055
:100C3C0032EF06F0000E081E001E011E021E082ACE
:100C4C000022012202220A7E32EF06F0010E0C6E07
:100C5C0093EC00F040EF06F0020E0C6E93EC00F0FB
:100C6C0040EF06F0040E0C6E65EC00F040EF06F061
:060C7C00000E0C6E1200D8
:100C82000450000A12E10550000A0FE10650000A62
:100C92000CE10750000A09E1FF0E006EFF0E016E23
:100CA2007F0E026EFF0E036EA8D0086A096A075013
:100CB200D8B4ECEF06F00350D8B4F1EF06F00250CE
:100CC20006180A6E028E068E0E6A02C008F001C075
:100CD2000CF000C00DF004500D5E0550D8A0053C8C
:100CE2000C5E0650D8A0063C085E086A0C6A0D6AC3
:100CF200D8A083EF06F0D8900232013200320832D7
:100D0200010E0E6E0750035ED8A090EF06F07E0E25
:100D12000E240326D8B0F6EF06F096EF06F07E0E0C
:100D22000E240326D8A0FBEF06F0180E0B6E0D362C
:100D32000C3608360036013602360E360450005E96
:100D42000550D8A0053C015E0650D8A0063C025EC4
:100D520006340E120EA0B1EF06F00D80BCEF06F0C5
:100D6200045000260550D8B0053C01260650D8B0E4
:100D7200062802260D900B2E98EF06F0E2EF06F001
:100D8200D8900036013602360E360450005E055009
:100D9200D8A0053C015E0650D8A0063C025E06348F
:100DA2000E10010B0D26D8B00C2AD8B4082AD8A4EC
:100DB200E2EF06F008320C320D32032AD8B4F6EF15
:100DC20006F00AAE089E0850026E0C50016E0D50DD
:100DD200006EFEEF06F0010E23EC02F0FEEF06F0CD
:100DE200020E71EC00F0FEEF06F0040E65EC00F06E
:0C0DF200FEEF06F0080E78EC00F0120096
:100DFE00C90E046E060E056E030E0424E96E000E77
:100E0E000520EA6E7E0EEE5C006E016A000E015A3F
:100E1E00CDC6E1FFCEC6E2FF00C0E6FF01C0E6FF91
:100E2E00030E0424E16E000E0520E26E7E0EE66EC9
:100E3E00C9C600F0CAC601F0CBC602F0CCC603F09C
:020E4E00120090
:100E5000840E0601546F0E0E556FC90E566F060EA6
:100E6000576FC26A0301361D006E0050C11636511D
:100E70000601C915006E0050C1120F0EC012C08EBF
:040E8000C28012001A
:100E8400830EC216C9C600F00036009000360090EA
:100E94000050C21284EC01F0C282C2A201D0FDD77C
:100EA400C4CF01F0006A00C0CAF601C0CBF6C3503B
:100EB4000012000E011200C0CAF601C0CBF6000EEB
:100EC4000014026E0150800B036E000E031802E141
:100ED400000E021803E00601CA6BCB6BCAC600F011
:060EE400CBC601F0120074
:100EEA000B6A0A6A096A086A0E6A033408360450E9
:100EFA00085E0550D8A0053C095E0650D8A0063CFD
:100F0A000A5E0750D8A0073C0B5EE86AD8A0010E1B
:100F1A000E5E0336070E0C6E0334083609360A369F
:100F2A000B360E36045003A012D0085E0550D8A026
:100F3A00053C095E0650D8A0063C0A5E0750D8A0B8
:100F4A00073C0B5EE86AD8A0010E0E5E11D0082697
:100F5A000550D8B0053C09260650D8B0063C0A26EA
:100F6A000750D8B0073C0B26E86AD8B0010E0E2607
:100F7A0003360C2ED1D70234083609360A360B3618
:100F8A000E36045003A012D0085E0550D8A0053CC6
:100F9A00095E0650D8A0063C0A5E0750D8A0073C56
:100FAA000B5EE86AD8A0010E0E5E11D00826055025
:100FBA00D8B0053C09260650D8B0063C0A26075088
:100FCA00D8B0073C0B26E86AD8B0010E0E260236C6
:100FDA00070E0C6E0234083609360A360B360E3600
:100FEA00045002A012D0085E0550D8A0053C095E44
:100FFA000650D8A0063C0A5E0750D8A0073C0B5EF4
:10100A00E86AD8A0010E0E5E11D008260550D8B0A5
:10101A00053C09260650D8B0063C0A260750D8B027
:10102A00073C0B26E86AD8B0010E0E2602360C2EB3
:10103A00D1D70134083609360A360B360E36045033
:10104A0002A012D0085E0550D8A0053C095E0650E1
:10105A00D8A0063C0A5E0750D8A0073C0B5EE86A97
:10106A00D8A0010E0E5E11D008260550D8B0053C56
:10107A0009260650D8B0063C0A260750D8B0073CC5
:10108A000B26E86AD8B0010E0E260136070E0C6E42
:10109A000134083609360A360B360E36045001A0DA
:1010AA0012D0085E0550D8A0053C095E0650D8A0AB
:1010BA00063C0A5E0750D8A0073C0B5EE86AD8A037
:1010CA00010E0E5E11D008260550D8B0053C09263F
:1010DA000650D8B0063C0A260750D8B0073C0B2663
:1010EA00E86AD8B0010E0E2601360C2ED1D700348C
:1010FA00083609360A360B360E36045001A012D0CD
:10110A00085E0550D8A0053C095E0650D8A0063CEA
:10111A000A5E0750D8A0073C0B5EE86AD8A0010E09
:10112A000E5E11D008260550D8B0053C0926065097
:10113A00D8B0063C0A260750D8B0073C0B26E86A06
:10114A00D8B0010E0E260036070E0C6E0034083693
:10115A0009360A360B360E36045000A012D0085E45
:10116A000550D8A0053C095E0650D8A0063C0A5E88
:10117A000750D8A0073C0B5EE86AD8A0010E0E5EA5
:10118A0011D008260550D8B0053C09260650D8B01B
:10119A00063C0A260750D8B0073C0B26E86AD8B0A6
:1011AA00010E0E2600360C2ED1D700B00ED00450F8
:1011BA0008260550D8B0053C09260650D8B0063C8A
:0C11CA000A260750D8B0073C0B26120084
:1011D60010D0800E0601C96F1AD0C00EC96F17D085
:1011E600940EC96F14D0D40EC96F11D0800EC96F7A
:1011F6000ED00601C951010AECE0C951020AEDE020
:10120600C951030AEDE0C951040AEDE0EFD7CA055A
:10121600006EC951002600C0C9F600C0D2F626EC01
:1012260000F05391CD6BCD51CB25E96E000ECC214C
:10123600EA6EEE520CE0CD51CB25E96E000ECC21C4
:10124600EA6EEECFD1F689EC01F0CD2BECD75381C7
:02125600120084
:1012580010D0800E0601C96F1AD0C00EC96F17D002
:10126800940EC96F14D0D40EC96F11D0800EC96FF7
:101278000ED00601C951010AECE0C951020AEDE09D
:10128800C951030AEDE0C951040AEDE0EFD7CA05D8
:10129800006EC951002600C0C9F6538100C0D2F6BD
:1012A80026EC00F05391CBC6D2F626EC00F0538121
:0212B800120022
:1012BA000050086E0150006E0250016E0350026E1B
:1012CA00036A0B6A0C6A9E0E036E0A6A020E0C6EA1
:0612DA0093EC00F012008D
:1012E000100E046E270E056E000E066E076E96C673
:1012F00000F097C601F098C602F099C603F0F5DD3C
:1013000000C092F601C093F602C094F603C095F6B1
:101310009AC6C9F68CC6CAF60050300F0601CB6FCC
:101320009BDFE80E046E030E056E000E066E076E60
:1013300096C600F097C601F098C602F099C603F071
:10134000D4DD0A0E046E000E056E066E076ECDDD4E
:1013500008C000F009C001F00AC002F00BC003F0A1
:1013600000C092F601C093F602C094F603C095F651
:101370000050300FD16F89EC01F02E0ED16F89EC47
:1013800001F0640E046E000E056E066E076E96C6C2
:1013900000F097C601F098C602F099C603F0A5DDEB
:1013A0000A0E046E000E056E066E076E9EDD08C006
:1013B00000F009C001F00AC002F00BC003F000C049
:1013C00092F601C093F602C094F603C095F6005061
:1013D000300FD16F89EC01F00A0E046E000E056E1D
:1013E000066E076E96C600F097C601F098C602F02A
:1013F00099C603F07ADD0A0E046E000E056E066EC5
:10140000076E73DD08C000F009C001F00AC002F0E9
:101410000BC003F000C092F601C093F602C094F630
:1014200003C095F60050300FD16F89EC01F0120027
:101430007FA202D00000FCD77F9CBBC675FFBAC656
:1014400074FFBCC673FF7F9E7F84F2CF00F0F29ED4
:10145000550E7E6EAA0E7E6E7F8200BE02D0F29E78
:0814600001D0F28E7F9412000E
:10146800939493969498949A949C949E819481963C
:10147800829E829C829A829813EC00F013EC00F012
:1014880013EC00F0828A828881840EEC00F081944B
:1014980013EC00F081840EEC00F0819413EC00F062
:1014A80081840EEC00F0819413EC00F08298818422
:1014B8000EEC00F0819413EC00F081840EEC00F047
:1014C8008194829A828E81840EEC00F0819413ECD0
:1014D80000F0829E828881840EEC00F081948298CC
:1014E80081840EEC00F0819413EC00F081840EEC02
:1014F80000F08194828881840EEC00F0819413ECD2
:1015080000F0829881840EEC00F08194828E828CA7
:10151800828A828881840EEC00F0819413EC00F0BA
:06152800060153811200D0
:10152E000900F5CFE6FF0006FBE10106F9E1120026
:10153E00220E0C6E086A096A0A6A0B6A0C06D8B487
:10154E001FD0D8900B320A320932083203320232DF
:10155E0001320032D8A0F2D70C06D8B409D004500C
:10156E0008260550092206500A2207500B22EAD7F8
:10157E00045008260550092206500A2207500B2255
:02158E00120049
:10159000C26A0301361D006E0050C1160F0EC01244
:1015A000C08EBAC600F000360090003600900050A1
:1015B000C212C28084EC01F0C282C2A201D0FDD767
:1015C000C4CF01F0006A00C0BBF601C0BCF6C35036
:1015D0000012000E011200C0BBF601C0BCF6C290A2
:1015E000000E0014026E0150800B036E000E0318F3
:1015F00002E1000E021803E00601BB6BBC6BBBC628
:0816000000F0BCC601F012006D
:10160800BAC604F0BBC605F0BCC606F0BDC607F0F6
:10161800006A016A026A036ABCEC01F0000ED8B0E5
:10162800010E006E005205E0006A016A026A036A50
:10163800F9D0BAC6BEF6BBC6BFF6BCC6C0F6BDC6B4
:10164800C1F6000E046E000E056E000E066E7F0ECB
:10165800076EBAC600F0BBC601F0BCC602F0BDC634
:1016680003F0BCEC01F0010ED8B0000E006E005281
:101678001AE0BEC604F0BFC605F0C0C606F0C1C673
:1016880007F0000E006E000E016E000E026E7F0E57
:10169800036E41EC06F000C0BEF601C0BFF602C002
:1016A800C0F603C0C1F6BEC6C9F6BFC6CAF6C0C6F4
:1016B800CBF6C1C6CCF6C70E0601CD6F060ECE6FAF
:1016C800FFEC06F000C0BEF601C0BFF602C0C0F6CF
:1016D80003C0C1F600C0C9F601C0CAF602C0CBF605
:1016E80003C0CCF6020E046E000E056EC7C600F0ED
:1016F800C8C601F052EC03F000C0CDF601C0CEF62A
:10170800B5EC03F000C0BEF601C0BFF602C0C0F6DB
:1017180003C0C1F6000E046E000E056E000E066EC4
:101728007F0E076EBAC600F0BBC601F0BCC602F059
:10173800BDC603F0BCEC01F0010ED8B0000E006E7F
:1017480000521AE0BEC604F0BFC605F0C0C606F0D7
:10175800C1C607F0000E006E000E016E000E026E8C
:101768007F0E036E41EC06F000C0BEF601C0BFF666
:1017780002C0C0F603C0C1F6140E0601C66FBEC68D
:1017880004F0BFC605F0C0C606F0C1C607F0BAC669
:1017980000F0BBC601F0BCC602F0BDC603F041ECC8
:1017A80006F0BEC604F0BFC605F0C0C606F0C1C646
:1017B80007F02EEC04F0000E046E000E056E000E0D
:1017C800066E800E076E41EC06F000C0C2F601C03E
:1017D800C3F602C0C4F603C0C5F6BEC604F0BFC651
:1017E80005F0C0C606F0C1C607F017EC04F0010EFC
:1017F800D8A4000E006E005201E00CD0C2C6BEF69E
:10180800C3C6BFF6C4C6C0F6C5C6C1F60601C6073C
:10181800C653B5E1BEC600F0BFC601F0C0C602F0AF
:06182800C1C603F012002E
:10182E00010E0601C96F0A0ECA6FFB0ECB6F050EB5
:10183E00CC6FCADC020EC96F0A0ECA6FFD0ECB6FDB
:10184E00050ECC6FC1DC030EC96F0A0ECA6FF70E00
:10185E00CB6F050ECC6FB8DC040EC96F0A0ECA6FC3
:10186E00F90ECB6F050ECC6FAFDC030E0B6E080EB0
:10187E000C6E770E0D6E0D2EFED70C2EFCD70B2E8A
:10188E00FAD7010EC96F0A0ECA6F050ECB6F060E80
:10189E00CC6F9ADC020EC96F0A0ECA6FFF0ECB6FA9
:1018AE00050ECC6F91DC030EC96F0A0ECA6F010EC6
:1018BE00CB6F060ECC6F88DC040EC96F0A0ECA6F92
:1018CE00030ECB6F060ECC6F7FDC030E0B6E080E75
:1018DE000C6E770E0D6E0D2EFED70C2EFCD70B2E2A
:1018EE00FAD781A29DD7030E0B6E080E0C6E770EE3
:1018FE000D6E0D2EFED70C2EFCD70B2EFAD7120026
:08190E00067E2EEC04F012002D
:10191600100E0601C96F28EC07F09B6B9C6B9D6B44
:101926009E6B9F6BA06BA16BA26BA36BA46BA56B4D
:10193600A66BA76BA86BA96BAA6B8E6B8F6B906B54
:10194600916B8D6B070E8D5DD8B09FD00A0E8E25DC
:10195600E96E050E8F21EA6EEECF80FF1A0E0D6E30
:101966000D2EFED70000110E8E25E96E050E8F2175
:10197600EA6EEECF82FFD00E0C6EC90E0D6E0D2EE6
:10198600FED70C2EFCD700000000806B816B826BAB
:10199600836B846B856B866B876B000E875D08E1B6
:1019A600000E865D05E1000E855D02E10A0E845D8E
:1019B6001AE2C96B42EC07F000C088F601C089F64E
:1019C600000E06018A6F8B6F88518027895181230B
:1019D6008A5182238B518323010E8427000E85238F
:1019E60086238723DAD780C600F081C601F082C637
:1019F60002F083C603F05EDCDC0E046E680E056E34
:101A0600000E066E7C0E076EC2EC02F027EC02F0AA
:101A160000C0ABF601C0ACF602C0ADF603C0AEF630
:101A2600000E035C08E1000E025C05E1000E015C9D
:101A360002E1640E005C10E28EC600F08FC601F073
:101A46000036009001369B0E0024E16E060E012042
:101A5600E26EE66AE66A17D08EC600F08FC601F01F
:101A66000036009001369B0E0024E16E060E012022
:101A7600E26EABC6E6FFACC6E6FF010E8E27000E91
:101A86008F23902391238D2B5DD7000E9C5D02E161
:101A9600C80E9B5D0DE29D6B9E6B9F6BA06BA16B51
:101AA600A26BA36BA46BA56BA66BA76BA86B00D0F0
:101AB600816A0B0E0C6E620E0D6E0D2EFED70C2E6D
:101AC600FCD70000806A0B0E0C6E620E0D6E0D2E9A
:0C1AD600FED70C2EFCD70000826A120024
:101AE200010E0601C96F010ECA6F370ECB6F050ECC
:101AF200CC6FEBEC08F0020EC96F010ECA6F1E0E1E
:101B0200CB6F050ECC6FEBEC08F0030EC96F010E24
:101B1200CA6F210ECB6F050ECC6FEBEC08F0040EF2
:101B2200C96F010ECA6F240ECB6F050ECC6FEBECA2
:101B320008F0010EC96F090ECA6F180ECB6F050EA1
:101B4200CC6FEBEC08F0020EC96F090ECA6FF00EF3
:101B5200CB6F040ECC6FEBEC08F0030EC96F090ECD
:101B6200CA6FF60ECB6F040ECC6FEBEC08F0040ECE
:101B7200C96F090ECA6FFC0ECB6F040ECC6FEBEC73
:101B820008F0010EC96F140ECA6FEA0ECB6F040E75
:101B9200CC6FEBEC08F0020EC96F140ECA6FEC0E9C
:101BA200CB6F040ECC6FEBEC08F0030EC96F140E72
:101BB200CA6FEE0ECB6F040ECC6FEBEC08F0040E86
:101BC200C96F090ECA6F020ECB6F050ECC6FEBEC1C
:101BD20008F0040EC96F140ECA6F080ECB6F050E03
:081BE200CC6FEBEC08F01200DF
:101BEA007F9CBBC675FFBAC674FF7F9E7F8073CF8A
:041BFA0000F01200E5
:101BFE00010E0601C96F0A0ECA6F3B0ECB6F030EA4
:101C0E00CC6FEBEC08F0020EC96F0A0ECA6F390EDC
:101C1E00CB6F030ECC6FEBEC08F0030EC96F0A0E00
:101C2E00CA6F3D0ECB6F030ECC6FEBEC08F0040EBB
:101C3E00C96F0A0ECA6F410ECB6F030ECC6FEBEC61
:101C4E0008F0030E0B6E080E0C6E770E0D6E0D2E39
:101C5E00FED70C2EFCD70B2EFAD7010EC96F0A0E2B
:101C6E00CA6F3F0ECB6F030ECC6FEBEC08F0020E7B
:101C7E00C96F0A0ECA6F370ECB6F030ECC6FEBEC2B
:101C8E0008F0030EC96F0A0ECA6F340ECB6F030E27
:101C9E00CC6FEBEC08F0040EC96F0A0ECA6F320E51
:101CAE00CB6F030ECC6FEBEC08F0030E0B6E080E31
:101CBE000C6E770E0D6E0D2EFED70C2EFCD70B2E46
:081CCE00FAD781B295D712008C
:101CD60006018D6B9151000808E19051000805E15D
:101CE6008F51000802E18E518D5DD8B0CED08DC6E1
:101CF60000F0000E016E0036009001369B0E0024A7
:101D0600E96E060E0120EA6EEECF96F6EECF97F656
:101D1600000E986F996F000E986F996FE80E046E1B
:101D2600030E056E000E066E076E96C600F097C689
:101D360001F098C602F099C603F075EC07F000C0F2
:101D460092F601C093F602C094F603C095F6270EEC
:101D5600E96E050EEA6E8D51E926D8B0EA2AEECF75
:101D6600C9F62F0EE96E050EEA6E8D51E926D8B03A
:101D7600EA2AEECFCAF60050300FCB6F2CEC09F0F2
:101D86002E0ED16F89EC01F0640E046E000E056E06
:101D9600066E076E96C600F097C601F098C602F06A
:101DA60099C603F075EC07F00A0E046E000E056E78
:101DB600066E076E75EC07F008C000F009C001F06A
:101DC6000AC002F00BC003F000C092F601C093F601
:101DD60002C094F603C095F60050300FD16F89EC1F
:101DE60001F00A0E046E000E056E066E076E96C6AC
:101DF60000F097C601F098C602F099C603F075EC9C
:101E060007F00A0E046E000E056E066E076E75EC80
:101E160007F008C000F009C001F00AC002F00BC0CC
:101E260003F000C092F601C093F602C094F603C018
:101E360095F60050300FD16F89EC01F00A0E046E52
:101E4600000E056E066E076E96C600F097C601F088
:101E560098C602F099C603F075EC07F008C000F0CA
:101E660009C001F00AC002F00BC003F000C092F6F0
:101E760001C093F602C094F603C095F60050300FE9
:101E8600D16F89EC01F08D2B25D7020E0B6E040E57
:101E96000C6EBA0E0D6E0D2EFED70C2EFCD70B2E29
:061EA600FAD70000120053
:101EAC006BEC1EF0010E0F015D6F5C6B100EC16EC2
:101EBC000601B16B0B0E926E030E936E946A806AE0
:101ECC00816A826A34EC0AF0010ED26F26EC00F0C3
:101EDC000C0ED26F26EC00F0010EBA6FC8EC0AF0B3
:101EEC0000C096F601C097F6000E0601986F996F28
:101EFC0096C600F097C601F098C602F099C603F09A
:101F0C00100E046E270E056E000E066E076E9FEC0B
:101F1C000AF000C096F601C097F602C098F603C00E
:101F2C0099F6500E046E0A0E056E000E066E076EC4
:101F3C0075EC07F000C096F601C097F602C098F653
:101F4C0003C099F6030E9A6F0E0E8C6F010EC96FBB
:101F5C00010ECA6FB80ECB6F050ECC6FEBEC08F010
:101F6C00020EC96F010ECA6FCD0ECB6F050ECC6F72
:101F7C00EBEC08F0030EC96F010ECA6F790ECB6F34
:101F8C00050ECC6FEBEC08F0040EC96F010ECA6F96
:101F9C00A30ECB6F050ECC6FEBEC08F070EC09F0D8
:101FAC00290E0B6E960E0C6E7F0E0D6E0D2EFED73F
:101FBC000C2EFCD70B2EFAD7000E995D08E1000E03
:101FCC00985D05E11A0E975D02E12C0E965D27E2F5
:101FDC00010ED26F26EC00F0050E0B6E0F0E0C6E80
:101FEC00F10E0D6E0D2EFED70C2EFCD70B2EFAD744
:101FFC00040EC96F010ECA6F640ECB6F050ECC6F49
:10200C00EBEC08F0050E0B6E0F0E0C6EF10E0D6E58
:10201C000D2EFED70C2EFCD70B2EFAD7D9D734ECBD
:10202C000AF0010ED26F26EC00F00C0ED26F26ECEB
:10203C0000F0806A816A826A81B201D0F8D0B06BFC
:10204C00AF6B010EC96F010ECA6F4F0ECB6F050E31
:10205C00CC6FEBEC08F0020EC96F010ECA6F3A0E92
:10206C00CB6F050ECC6FEBEC08F0030EC96F010EB5
:10207C00CA6FE20ECB6F050ECC6FEBEC08F0040EC2
:10208C00C96F010ECA6F8E0ECB6F050ECC6FEBECC9
:10209C0008F0040EC96F0F0ECA6FB051300FCB6F22
:1020AC002CEC09F0040EC96F100ECA6FAF51300F33
:1020BC00CB6F2CEC09F0040EC96F110ECA6F300EE9
:1020CC00CB6F2CEC09F0040EC96F120ECA6F300ED8
:1020DC00CB6F2CEC09F0090E0B6E1E0E0C6EE40E81
:1020EC000D6E0D2EFED70C2EFCD70B2EFAD7000042
:1020FC00020EC96F010ECA6FFD0ECB6F010ECC6FB5
:10210C00EBEC08F0B0510908D8A0B06B040EC96F05
:10211C000F0ECA6FB051300FCB6F2CEC09F0090EBB
:10212C000B6E1E0E0C6EE40E0D6E0D2EFED70C2ECD
:10213C00FCD70B2EFAD7000081A202D0B02BE2D72D
:10214C000B0E0B6E260E0C6E5D0E0D6E0D2EFED74D
:10215C000C2EFCD70B2EFAD700000000030EC96F13
:10216C00010ECA6FE50ECB6F010ECC6FEBEC08F0D5
:10217C00020EC96F010ECA6F120ECB6F020ECC6F1E
:10218C00EBEC08F081B201D0F3D7020EC96F010E4F
:10219C00CA6F3C0ECB6F020ECC6FEBEC08F0AF515C
:1021AC000908D8A0AF6B040EC96F100ECA6FAF51DF
:1021BC00300FCB6F2CEC09F0090E0B6E1E0E0C6E53
:1021CC00E40E0D6E0D2EFED70C2EFCD70B2EFAD76F
:1021DC00000081A202D0AF2BE2D7819A340E0C6E94
:1021EC00F10E0D6E0D2EFED70C2EFCD7000000004C
:1021FC008198806A816A826ABA6BBB6BB0C6BCF686
:10220C0018EC0AF0010E0601BA6F000EBB6FAFC6D8
:10221C00BCF618EC0AF0030E0B6E080E0C6E770E63
:10222C000D6E0D2EFED70C2EFCD70B2EFAD70601F9
:10223C00BA6BBB6BD4DC00C0B0F6010EBA6F000EEB
:10224C00BB6FCDDC00C0AFF6010EC96F010ECA6FBB
:10225C00270ECB6F020ECC6FEBEC08F0020EC96FA1
:10226C00010ECA6FD00ECB6F010ECC6FEBEC08F0E9
:10227C00030EC96F010ECA6F910ECB6F010ECC6F9E
:10228C00EBEC08F0040EC96F010ECA6F7C0ECB6F1D
:10229C00010ECC6FEBEC08F00A0EB003F3CF43F653
:1022AC00F4CF44F6000E44BFFF0E456F466FAF519E
:1022BC004327000E4423000E44BFFF0E456F466FAC
:1022CC00030EC96F0D0ECA6FB051300FCB6F2CECD3
:1022DC0009F0030EC96F0E0ECA6FAF51300FCB6FE2
:1022EC002CEC09F0330E0B6EBB0E0C6EDF0E0D6E6C
:1022FC000D2EFED70C2EFCD70B2EFAD700000000AB
:10230C00010ED26F26EC00F071EC0DF0816A9C0E80
:10231C000C6ED70E0D6E0D2EFED70C2EFCD78BEC43
:10232C000CF0010E9C5D02E1F40E9B5D32E2010E9D
:10233C00D26F26EC00F0030EC96F010ECA6FBB0EF4
:10234C00CB6F010ECC6FEBEC08F0090E0B6E1E0E72
:10235C000C6EE40E0D6E0D2EFED70C2EFCD70B2E34
:10236C00FAD70000030EC96F010ECA6FA60ECB6F11
:10237C00010ECC6FEBEC08F0050E0B6E0F0E0C6E15
:10238C00F10E0D6E0D2EFED70C2EFCD70B2EFAD7A0
:10239C00C6D771EC0DF08BEC0CF09BC647F69CC6C7
:1023AC0048F6000E496F4A6F90DC9D519B25966F45
:1023BC009E519C21976F000E986F996F9F51962795
:1023CC00A0519723000E986F996FA1519627A25197
:1023DC009723000E986F996FA3519627A4519723BA
:1023EC00000E986F996FA5519627A6519723000E52
:1023FC00986F996FA7519627A8519723000E986F45
:10240C00996F040E9A6F0F0E8C6F70EC09F0060E1C
:10241C000C6E300E0D6E0D2EFED70C2EFCD7000060
:10242C00010EC96F0A0ECA6F5F0ECB6F020ECC6F16
:10243C00EBEC08F0020EC96F0A0ECA6F5D0ECB6F83
:10244C00020ECC6FEBEC08F0030EC96F0A0ECA6FCC
:10245C00610ECB6F020ECC6FEBEC08F0040EC96F63
:10246C000A0ECA6F650ECB6F020ECC6FEBEC08F048
:10247C00090E0B6E1E0E0C6EE40E0D6E0D2EFED79D
:10248C000C2EFCD70B2EFAD70000010EC96F0A0ECA
:10249C00CA6F630ECB6F020ECC6FEBEC08F0020E22
:1024AC00C96F0A0ECA6F5B0ECB6F020ECC6FEBECD2
:1024BC0008F0030EC96F0A0ECA6F530ECB6F020ED3
:1024CC00CC6FEBEC08F0040EC96F0A0ECA6F510EFC
:1024DC00CB6F020ECC6FEBEC08F0050E0B6E0F0EF3
:1024EC000C6EF10E0D6E0D2EFED70C2EFCD70B2E96
:1024FC00FAD7010EC96F0A0ECA6F550ECB6F020EBA
:10250C00CC6FEBEC08F0020EC96F0A0ECA6F590EB5
:10251C00CB6F020ECC6FEBEC08F0030EC96F0A0EFA
:10252C00CA6F570ECB6F020ECC6FEBEC08F0040E9B
:10253C00C96F0A0ECA6F7A0ECB6F010ECC6FEBEC23
:10254C0008F0050E0B6E0F0E0C6EF10E0D6E0D2EAF
:10255C00FED70C2EFCD70B2EFAD781A2D5D6040EA3
:10256C00C96F010ECA6F690ECB6F000ECC6FEBEC0E
:10257C0008F0150E0B6E4B0E0C6EBE0E0D6E0D2E66
:10258C00FED70C2EFCD70B2EFAD70000010ED26F03
:10259C0026EC00F0010EC96F010ECA6F540ECB6F02
:1025AC00000ECC6FEBEC08F01A0E0C6EF80E0D6EE4
:1025BC000D2EFED70C2EFCD70000020EC96F010E9B
:1025CC00CA6F7E0ECB6F000ECC6FEBEC08F08188DF
:1025DC000F0E0B6E350E0C6E510E0D6E0D2EFED7B2
:1025EC000C2EFCD70B2EFAD78BEC0CF0816A020E5A
:1025FC00C96F010ECA6F930ECB6F000ECC6FEBEC54
:10260C0008F09BC61FF69CC620F69DC621F69EC6FA
:10261C0022F69FC623F6A0C624F6A1C625F6A2C6AE
:10262C0026F6A3C627F6A4C628F6A5C629F6A6C67E
:10263C002AF6A7C62BF6A8C62CF6A9C62DF6AAC64E
:10264C002EF621511F251B6F225120211C6F000ECD
:10265C001D6F1E6F23511B2724511C23000E1D6F51
:10266C001E6F25511B2726511C23000E1D6F1E6F3C
:10267C0027511B2728511C23000E1D6F1E6F29513B
:10268C001B272A511C23000E1D6F1E6F2B511B275D
:10269C002C511C23000E1D6F1E6F030EC96F010EF3
:1026AC00CA6F2A0ECB6F000ECC6FEBEC08F0340E19
:1026BC000C6EF10E0D6E0D2EFED70C2EFCD70000FD
:1026CC000000818A050E0B6E0F0E0C6EF10E0D6E56
:1026DC000D2EFED70C2EFCD70B2EFAD78BEC0CF054
:1026EC00816A030EC96F010ECA6F150ECB6F000EF7
:1026FC00CC6FEBEC08F09BC607F69CC608F69DC6A3
:10270C0009F69EC60AF69FC60BF6A0C60CF6A1C625
:10271C000DF6A2C60EF6A3C60FF6A4C610F6A5C6F5
:10272C0011F6A6C612F6A7C613F6A8C614F6A9C6C5
:10273C0015F6AAC616F609510725176F0A51082176
:10274C00186F000E196F1A6F0B5117270C511823A5
:10275C00000E196F1A6F0D5117270E511823000E0A
:10276C00196F1A6F0F51172710511823000E196F7C
:10277C001A6F1151172712511823000E196F1A6F67
:10278C001351172714511823000E196F1A6F040ECA
:10279C00C96F010ECA6F3F0ECB6F000ECC6FEBEC06
:1027AC0008F01A0E0C6EF80E0D6E0D2EFED70C2EB8
:1027BC00FCD70000300E816E050E0B6E0F0E0C6EEA
:1027CC00F10E0D6E0D2EFED70C2EFCD70B2EFAD75C
:1027DC008BEC0CF0816A040EC96F010ECA6FA80E47
:1027EC00CB6F000ECC6FEBEC08F0040EC96F010E32
:1027FC00CA6F3B0ECB6F010ECC6FEBEC08F09BC697
:10280C002FF69CC630F69DC631F69EC632F69FC694
:10281C0033F6A0C634F6A1C635F6A2C636F6A3C664
:10282C0037F6A4C638F6A5C639F6A6C63AF6A7C634
:10283C003BF6A8C63CF6A9C63DF6AAC63EF63151F3
:10284C002F253F6F32513021406F000E416F426F88
:10285C0033513F2734514023000E416F426F3551A5
:10286C003F2736514023000E416F426F37513F27AF
:10287C0038514023000E416F426F39513F273A5176
:10288C004023000E416F426F3B513F273C51402388
:10289C00000E416F426F030E0B6E080E0C6E770E1E
:1028AC000D6E0D2EFED70C2EFCD70B2EFAD72F51FA
:1028BC001F5D016E30512059026E000E025C02E168
:1028CC00050E015C39E2010ED26F26EC00F0010E10
:1028DC00C96F010ECA6F650ECB6F010ECC6FEBEC9E
:1028EC0008F0030EC96F010ECA6F500ECB6F010EAC
:1028FC00CC6FEBEC08F0020EC96F010ECA6F260EFE
:10290C00CB6F010ECC6FEBEC08F0040EC96F010E0F
:10291C00CA6FD20ECB6F000ECC6FEBEC08F0660ECC
:10292C000B6E760E0C6EC10E0D6E0D2EFED70C2E90
:10293C00FCD70B2EFAD7E4D407D00D2EFED70C2ED5
:10294C00FCD70B2EFAD7DCD481A201D062D2010EB7
:10295C00D26F26EC00F0010EC96F010ECA6F670E24
:10296C00CB6F020ECC6FEBEC08F0020EC96F010EB0
:10297C00CA6FD60ECB6F030ECC6FEBEC08F0030EC8
:10298C00C96F010ECA6FC10ECB6F030ECC6FEBEC8F
:10299C0008F0040EC96F010ECA6FEB0ECB6F030E5D
:1029AC00CC6FEBEC08F01BC696F61CC697F61DC652
:1029BC0098F61EC699F6100E046E270E056E000EC4
:1029CC00066E076E1BC600F01CC601F01DC602F099
:1029DC001EC603F075EC07F000C092F601C093F62A
:1029EC0002C094F603C095F6020E9A6F080E8C6F17
:1029FC0070EC09F017C696F618C697F619C698F635
:102A0C001AC699F6100E046E270E056E000E066E91
:102A1C00076E17C600F018C601F019C602F01AC6E8
:102A2C0003F075EC07F000C092F601C093F602C0FB
:102A3C0094F603C095F6030E9A6F080E8C6F70EC2B
:102A4C0009F03FC696F640C697F641C698F642C6C0
:102A5C0099F6100E046E270E056E000E066E076EAC
:102A6C003FC600F040C601F041C602F042C603F07A
:102A7C0075EC07F000C092F601C093F602C094F614
:102A8C0003C095F6040E9A6F080E8C6F70EC09F06B
:102A9C00050E046E000E056E066E076E1BC600F06A
:102AAC001CC601F01DC602F01EC603F075EC07F043
:102ABC0000C096F601C097F602C098F603C099F6CE
:102ACC00100E046E270E056E000E066E076E75EC6A
:102ADC0007F000C092F601C093F602C094F603C052
:102AEC0095F6020E9A6F0F0E8C6F70EC09F017C6EC
:102AFC0000F018C601F019C602F01AC603F0033232
:102B0C00023201320032039E00C096F601C097F6E5
:102B1C0002C098F603C099F6100E046E270E056ECF
:102B2C00000E066E076E75EC07F000C092F601C041
:102B3C0093F602C094F603C095F6030E9A6F0F0E2F
:102B4C008C6F70EC09F03FC600F040C601F041C636
:102B5C0002F042C603F05DEC09F0B40E046EC80E30
:102B6C00056E360E066E7F0E076E41EC06F027ECF6
:102B7C0002F000C096F601C097F602C098F603C0AA
:102B8C0099F6100E046E270E056E000E066E076E7B
:102B9C0075EC07F000C092F601C093F602C094F6F3
:102BAC0003C095F6040E06019A6F0F0E8C6F70EC35
:102BBC0009F0030E0B6E080E0C6E770E0D6E0D2EBB
:102BCC00FED70C2EFCD70B2EFAD7010EC96F090EAF
:102BDC00CA6F0C0ECB6F040ECC6FEBEC08F0030E2F
:102BEC000B6E080E0C6E770E0D6E0D2EFED70C2E86
:102BFC00FCD70B2EFAD7010EC96F090ECA6F000E47
:102C0C00CB6F040ECC6FEBEC08F0030E0B6E080EC2
:102C1C000C6E770E0D6E0D2EFED70C2EFCD70B2ED8
:102C2C00FAD781A2D2D7010EC96F010ECA6FAC0EB2
:102C3C00CB6F030ECC6FEBEC08F0020EC96F010EDC
:102C4C00CA6F580ECB6F030ECC6FEBEC08F0030E73
:102C5C00C96F010ECA6F430ECB6F030ECC6FEBEC3A
:102C6C0008F0040EC96F010ECA6F6D0ECB6F030E08
:102C7C00CC6FEBEC08F01FC69BF620C69CF621C669
:102C8C009DF622C69EF623C69FF624C6A0F625C640
:102C9C00A1F626C6A2F627C6A3F628C6A4F629C610
:102CAC00A5F62AC6A6F62BC6A7F62CC6A8F62DC6E0
:102CBC00A9F62EC6AAF66BEC0EF0FFEC0DF017EC95
:102CCC000CF0010EC96F010ECA6F970ECB6F030E7D
:102CDC00CC6FEBEC08F0020EC96F010ECA6F820EBE
:102CEC00CB6F030ECC6FEBEC08F0030EC96F010E2B
:102CFC00CA6F180ECB6F040ECC6FEBEC08F0040E01
:102D0C00C96F010ECA6F960ECB6F040ECC6FEBEC35
:102D1C0008F007C69BF608C69CF609C69DF60AC6BF
:102D2C009EF60BC69FF60CC6A0F60DC6A1F60EC6F7
:102D3C00A2F60FC6A3F610C6A4F611C6A5F612C6C7
:102D4C00A6F613C6A7F614C6A8F615C6A9F616C697
:102D5C00AAF66BEC0EF0FFEC0DF017EC0CF0050E78
:102D6C000B6E0F0E0C6EF10E0D6E0D2EFED70C2E83
:102D7C00FCD70B2EFAD7010EC96F010ECA6F810E4C
:102D8C00CB6F040ECC6FEBEC08F0020EC96F010E8A
:102D9C00CA6FAB0ECB6F040ECC6FEBEC08F0030ECE
:102DAC00C96F010ECA6FD50ECB6F040ECC6FEBEC56
:102DBC0008F0040EC96F010ECA6FC00ECB6F040E63
:102DCC00CC6FEBEC08F02FC69BF630C69CF631C6E8
:102DDC009DF632C69EF633C69FF634C6A0F635C6AF
:102DEC00A1F636C6A2F637C6A3F638C6A4F639C67F
:102DFC00A5F63AC6A6F63BC6A7F63CC6A8F63DC64F
:102E0C00A9F63EC6AAF66BEC0EF0FFEC0DF017EC33
:102E1C000CF0010EC96F010ECA6F6C0ECB6F040E55
:102E2C00CC6FEBEC08F0020EC96F010ECA6F420EAC
:102E3C00CB6F040ECC6FEBEC08F0030EC96F010ED8
:102E4C00CA6F2D0ECB6F040ECC6FEBEC08F0040E9A
:102E5C00C96F010ECA6F570ECB6F040ECC6FEBEC23
:102E6C0008F0606B616B626B636B646B656B666BBC
:102E7C00676B686B696B6A6B6B6B6C6B6D6B6E6B9A
:102E8C006F6B706B716B726B736B746B756B766B4A
:102E9C00776B786B796B7A6B7B6B7C6B7D6B7E6BFA
:102EAC007F6B5C6B5D6B5E6B5F6B8D6B9151000828
:102EBC0008E19051000805E18F51000802E18E51A4
:102ECC008D5DD8B0ABD1050E046E000E056E066E8E
:102EDC00076E1BC600F01CC601F01DC602F01EC614
:102EEC0003F075EC07F000C0B6F601C0B7F602C0EF
:102EFC00B8F603C0B9F63FC600F040C601F041C6B3
:102F0C0002F042C603F05DEC09F0B40E046EC80E7C
:102F1C00056E360E066E7F0E076E41EC06F000C095
:102F2C00B2F601C0B3F602C0B4F603C0B5F6B6C62D
:102F3C0000F0B7C601F0B8C602F0B9C603F05DECFC
:102F4C0009F0B2C604F0B3C605F0B4C606F0B5C6B7
:102F5C0007F087EC0CF000C0B2F601C0B3F602C06B
:102F6C00B4F603C0B5F6B2C658F6B3C659F6B4C635
:102F7C005AF6B5C65BF68DC600F0000E016E003633
:102F8C00009001361F0E0024E96E060E0120EA6E39
:102F9C002F0E0024D96E060E0120DA6EDE50EE5C88
:102FAC000601966FDE50EE58976F000E986F996F72
:102FBC0096C600F097C601F098C602F099C603F0C9
:102FCC00A00E046E860E056E010E066E000E076EC8
:102FDC009FEC0AF000C096F601C097F602C098F676
:102FEC0003C099F65DEC09F0B2C604F0B3C605F067
:102FFC00B4C606F0B5C607F041EC06F027EC02F0BB
:10300C0000C096F601C097F602C098F603C099F678
:10301C008DC604F0000E056E043604900536043699
:10302C0004900536600E0424E16E060E0520E26E57
:10303C0000C0E6FF01C0E6FF02C0E6FF03C0E6FFEA
:10304C00060196515C2797515D2398515E23995147
:10305C005F23100E046E270E056E000E066E076EB3
:10306C0096C600F097C601F098C602F099C603F018
:10307C0075EC07F000C092F601C093F602C094F60E
:10308C0003C095F6270EE96E050EEA6E8D51E92602
:10309C00D8B0EA2AEECFC9F6D60EE96E020EEA6E69
:1030AC008D51E926D8B0EA2AEECFCAF60050300F7F
:1030BC00CB6F2CEC09F0E80E046E030E056E000EBF
:1030CC00066E076E96C600F097C601F098C602F021
:1030DC0099C603F075EC07F00A0E046E000E056E2F
:1030EC00066E076E75EC07F008C000F009C001F021
:1030FC000AC002F00BC003F000C092F601C093F6B8
:10310C0002C094F603C095F60050300FD16F89ECD5
:10311C0001F0640E046E000E056E066E076E96C608
:10312C0000F097C601F098C602F099C603F075EC52
:10313C0007F00A0E046E000E056E066E076E75EC37
:10314C0007F008C000F009C001F00AC002F00BC083
:10315C0003F000C092F601C093F602C094F603C0CF
:10316C0095F60050300FD16F89EC01F02E0ED16F17
:10317C0089EC01F00A0E046E000E056E066E076EE9
:10318C0096C600F097C601F098C602F099C603F0F7
:10319C0075EC07F00A0E046E000E056E066E076ED7
:1031AC0075EC07F008C000F009C001F00AC002F08D
:1031BC000BC003F000C092F601C093F602C094F667
:1031CC0003C095F60050300FD16F89EC01F00A0E58
:1031DC00046E000E056E066E076E96C600F097C65E
:1031EC0001F098C602F099C603F075EC07F008C020
:1031FC0000F009C001F00AC002F00BC003F000C0DF
:10320C0092F601C093F602C094F603C095F60050F6
:10321C00300FD16F89EC01F08D2B48D6030E0B6E5D
:10322C00080E0C6E770E0D6E0D2EFED70C2EFCD7E5
:10323C000B2EFAD7FFEC0DF0040EC96F0B0ECA6FF4
:10324C00D00ECB6F020ECC6FEBEC08F05CC696F692
:10325C005DC697F65EC698F65FC699F6100E046EBC
:10326C00270E056E000E066E076E5CC600F05DC67E
:10327C0001F05EC602F05FC603F075EC07F000C00B
:10328C0092F601C093F602C094F603C095F6040EB4
:10329C00C96F100ECA6F0050300FCB6F2CEC09F0B9
:1032AC00E80E046E030E056E000E066E076E96C6D3
:1032BC0000F097C601F098C602F099C603F075ECC1
:1032CC0007F00A0E046E000E056E066E076E75ECA6
:1032DC0007F008C000F009C001F00AC002F00BC0F2
:1032EC0003F000C092F601C093F602C094F603C03E
:1032FC0095F60050300FD16F89EC01F0640E046E1E
:10330C00000E056E066E076E96C600F097C601F0AD
:10331C0098C602F099C603F075EC07F00A0E046E1D
:10332C00000E056E066E076E75EC07F008C000F017
:10333C0009C001F00AC002F00BC003F000C092F605
:10334C0001C093F602C094F603C095F60050300FFE
:10335C00D16F89EC01F02E0ED16F89EC01F00A0EC1
:10336C00046E000E056E066E076E96C600F097C6CC
:10337C0001F098C602F099C603F075EC07F00A0E3E
:10338C00046E000E056E066E076E75EC07F008C035
:10339C0000F009C001F00AC002F00BC003F000C03D
:1033AC0092F601C093F602C094F603C095F6005055
:1033BC00300FD16F89EC01F017EC0CF0030E0B6E93
:1033CC00080E0C6E770E0D6E0D2EFED70C2EFCD744
:1033DC000B2EFAD7010EC96F010ECA6FDE0ECB6F22
:1033EC00020ECC6FEBEC08F0020EC96F010ECA6F27
:1033FC00080ECB6F030ECC6FEBEC08F0030EC96F0D
:10340C00010ECA6FF30ECB6F020ECC6FEBEC08F013
:10341C00040EC96F010ECA6FBB0ECB6F020ECC6FC0
:10342C00EBEC08F08D6B070E8D5D3EE28DC600F067
:10343C00000E016E00360090013600360090013609
:10344C00600E0024D96E060E0120DA6EDECF01F07C
:10345C00DECF02F0DECF03F0DECF04F00450635D6C
:10346C0008E10350625D05E10250615D02E101502B
:10347C00605D18E28DC600F0000E016E0036009003
:10348C000136003600900136600E0024E96E060EFF
:10349C000120EA6EEECF60F6EECF61F6EECF62F66B
:1034AC00EECF63F68D2BBFD760C64FF661C650F6D4
:1034BC0062C651F663C652F6600E006EEA0E016EDD
:1034CC00000E026E036E43C604F044C605F045C6FA
:1034DC0006F046C607F09FEC0AF000C04BF601C0A0
:1034EC004CF602C04DF603C04EF660C604F061C641
:1034FC0005F062C606F063C607F075EC07F05DECEC
:10350C0009F000C0BAF601C0BBF602C0BCF603C09D
:10351C00BDF604EC0BF027EC02F000C096F601C0EF
:10352C0097F602C098F603C099F6640E046E000E6E
:10353C00056E066E076E75EC07F000C092F601C0C2
:10354C0093F602C094F603C095F6010E0601C96FFE
:10355C00100ECA6F0050300FCB6F2CEC09F00A0E16
:10356C00046E000E056E066E076E96C600F097C6CA
:10357C0001F098C602F099C603F075EC07F00A0E3C
:10358C00046E000E056E066E076E75EC07F008C033
:10359C0000F009C001F00AC002F00BC003F000C03B
:1035AC0092F601C093F602C094F603C095F6005053
:1035BC00300FD16F89EC01F00A0E046E000E056E0F
:1035CC00066E076E96C600F097C601F098C602F01C
:1035DC0099C603F075EC07F008C000F009C001F0C3
:1035EC000AC002F00BC003F000C092F601C093F6C3
:1035FC0002C094F603C095F60050300FD16F89ECE1
:10360C0001F0030E0B6E080E0C6E770E0D6E0D2E68
:10361C00FED70C2EFCD70B2EFAD7040EC96F010E59
:10362C00CA6F7C0ECB6F020ECC6FEBEC08F0030E66
:10363C000B6E080E0C6E770E0D6E0D2EFED70C2E2B
:10364C00FCD70B2EFAD7040EC96F010ECA6FA60E4B
:10365C00CB6F020ECC6FEBEC08F0030E0B6E080E6A
:10366C000C6E770E0D6E0D2EFED70C2EFCD70B2E7E
:10367C00FAD781A2D2D7040EC96F010ECA6F910E70
:10368C00CB6F020ECC6FEBEC08F0030E0B6E080E3A
:10369C000C6E770E0D6E0D2EFED70C2EFCD70B2E4E
:1036AC00FAD7040EC96F010ECA6F1D0ECB6F030E35
:1036BC00CC6FEBEC08F0030E0B6E080E0C6E770E55
:1036CC000D6E0D2EFED70C2EFCD70B2EFAD781B219
:0836DC00D2D786EF11F0FFD7F1
:103CD60010EE15F0F20E006E060E016EE40EF66E94
:0E3CE600360EF76E000EF86E97EC0AF0120024
:1036E40032204F686D204C6F6164206973204F460F
:0536F40046202020002B
:1036F90032204F686D204C6F6164206973204F4EF2
:0537090020202020003B
:10370E00312E3420204F686D204C6F616420697318
:05371E00204F4E2000C9
:103723005465737420696E2050726F67726573738A
:05373300202020200011
:10373800466F72204661737420486F6C642053771B
:053748006974636800D4
:10374D0035204F686D204C6F6164206973204F4E9A
:05375D002020202000E7
:1037620035204F686D204C6F6164206973204F468D
:053772004620202000AC
:10377700312E34204F686D204C6F616420697320AF
:05378700204F46460042
:10378C00506C6561736520436865636B204261749E
:05379C00746572790064
:1037A1002020202020202020202020202020202018
:0537B100202020200093
:1037B600426174744952206D657465722020202020
:0537C60020202020007E
:1037CB0020202020202020202020202020202020EE
:0537DB00202020200069
:1037E00052656420616E6420426C61636B2057698E
:0537F0007265202000BD
:1037F50052656420616E6420426C61636B20576979
:053805007265202000A7
:10380A00312E3420204F686D204C6F61642069731B
:05381A00204F464600AE
:10381F00426174744952206D6574657220202020B6
:05382F00202020200014
:10383400506C6561736520436865636B20426174F5
:053844007465727900BB
:0238490020005D
:10384B002020202020202057616974202020202058
:05385B002020202000E8
:103860004261747420436170202020202020303079
:05387000204D6168001D
:103875002020202020202020202020202020202043
:053885002020202000BE
:10388A004E6F204261747465727920436F6E6E6563
:05389A00637465640089
:10389F00436865636B205465737420536574746952
:0538AF006E67732000AC
:1038B400446F20313030204D61682042617474209F
:0838C40020202020202020001C
:1038CC00486F6C642F52656C656173652053776922
:0538DC00746368200088
:1038E1005075736820537769746368202020202005
:0538F100202020200052
:1038F60042617474657279204952204D657465720F
:0539060020202020003C
:10390B00486F6C642F52656C6561736520537769E2
:05391B00746368200048
:02392000200085
:02392200200083
:02392400200081
:0239260020007F
:0239280020007D
:02392A00570044
:02392C00750024
:02392E00500047
:02393000730022
:02393200530040
:02393400680029
:10393600526573756C74732020202020202020206F
:053946002020202000FC
:10394B00202020205075736820537769746368209A
:05395B002020202000E7
:1039600020202052656C656173652053776974630C
:0539700068202020008A
:103975002020202020202020202020202020202042
:053985002020202000BD
:10398A00202020202020202020202020202020202D
:05399A002020202000A8
:06399F00542D49522000E6
:0839A500040404040F0F0F0FCE
:1039AD004D61782043757272656E742069732020A5
:0539BD00202020410064
:1039C200466F72737974682C4A756C69616E2C4704
:0539D200696C65730043
:1039D7005265666572656E636520524347726F75FF
:0539E7007073202000B8
:1039EC0020202020202020202020202020202020CB
:0539FC00202020200046
:023A01002000A3
:023A03002000A1
:013A05003888
:023A060020009E
:023A08006C0050
:023A0A00520068
:023A0C00730045
:023A0E00200096
:023A1000200094
:103A1200233320202020202056202023372020203E
:053A22002020205600E9
:103A2700233220202020202056202023362020202B
:053A37002020205600D4
:103A3C0023342020202020205620566F6C744C6F8D
:053A4C0077416D7000E0
:103A51002332202020202020562020233620202001
:053A61002020205600AA
:103A660023312020202020205620202335202020EE
:053A7600202020560095
:103A7B0023312020202020205620202335202020D9
:053A8B00202020560080
:103A90004D64416D7073202020202020562020206E
:053AA000202020410080
:103AA5004C6F416D7073202020202020562020204F
:053AB50020202041006B
:103ABA004869416D70732020202020205620202044
:053ACA00202020410056
:0C3ACF002020202020202020202020008B
:0C3ADB00507573682053776974636800AD
:103AE7002333202020202020562020233720202069
:053AF700202020560014
:103AFC00336972202020202020202037697220205A
:053B0C00202020200034
:103B11003269722020202020202020366972202046
:053B210020202020001F
:103B2600346972202020202020204D696C6C692D7C
:053B36004F686D7300F3
:103B3B00316972202020202020202035697220201E
:053B4B002020202000F5
:103B50002331202020202020562020233520202003
:053B60002020205600AA
:103B650023342020202020205620566F6C744D6968
:053B750064416D7000C9
:103B7A0023322020202020205620202336202020D7
:053B8A00202020560080
:103B8F0023342020202020205620566F6C74734839
:053B9F0069416D70009A
:103BA40023332020202020205620202337202020AB
:053BB400202020560056
:023BB9005600B4
:023BBB005600B2
:023BBD005600B0
:063BBF0056202023360011
:063BC5005620202337000A
:063BCB0056202023370004
:063BD10056204261740061
:023BD700560096
:073BD9000420400000000081
:073BE00000000001020408CF
:063BE700562020233500EA
:033BED0023320080
:033BF0002333007C
:033BF30023340078
:083BF6000102030401020304B3
:083BFE00040404040F0F0F0F73
:033C060023310067
:103C090050757368205377697463682020202020D9
:053C1900202020200026
:103C1E0042617474657279204952204D65746572E3
:053C2E00202020200011
:103C33004368616E676520392056444320426174AE
:053C43007465727900B8
:103C48003920566F6C742042617474202020202023
:053C58002020562000B1
:103C5D0042617474204D61682043617020202020E2
:053C6D002020202000D2
:103C72005357204F6E205077722055702073657411
:053C8200204D61680007
:103C870042617474657279204952204D657465727A
:053C97002020202000A8
:103C9C003920566F6C742042617474203C20362E8F
:053CAC003756444300FF
:103CB100446F2031303030204D616820426174748E
:053CC10020202020007E
:023CC600730089
:023CC800680092
:023CCA005000A8
:023CCC00750081
:023CCE002000D4
:023CD0002000D2
:023CD2002000D0
:023CD4002000CE
:020000040030CA
:0E00000015087F7CFF0991FF0FC00FE00F4035
:00000001FF
