:10000000BCEF11F00000000000EF00F00000000065
:0A0010000000000000000000F3D71C
:10001C001D0E0C6E910E0D6E0D2EFED70C2EFCD7F8
:02002C001200C0
:0C002E00420E0D6E0D2EFED700001200D9
:0A003A0000000000000000001200AA
:100044000B820BAE2CEF00F00368026801680068B5
:080054000A360232FF0E120011
:0E005C00026A016A006A086A036A000E120056
:08006A000AAE029E000E120016
:100072000601D5BF02D0829E01D0828ED5BD02D0AC
:10008200829C01D0828CD5BB02D0829A01D0828A16
:10009200D5B902D0829801D0828851B102D081862E
:1000A20001D081968184C8DF8194D5B702D0829E27
:1000B20001D0828ED5B502D0829C01D0828CD5B37C
:1000C20002D0829A01D0828AD5B102D0829801D020
:1000D200828851B102D0818601D081968184ACDFC1
:0E00E200819451A102D099DF01D0A0DF12005D
:1000F0000B840BAE83EF00F0010E036E026A016AFF
:0A010000006A0A360232FF0E1200F8
:10010A000B800BAE91EF00F0026A0AAEFF0E026E90
:0C011A00016E006E0A360232FF0E120069
:100126000134083609360450085E0550D8A0053C4F
:10013600095E003601360F0E0C6E0134083609369C
:10014600045000A006D0085E0550D8A0053C095E04
:1001560005D008260550D8B0053C092600360136DC
:100166000C2EEBD700B006D0045008260550D8B0A8
:08017600053C092600001200FF
:0A017E001D0E0D6E0D2EFED71200AF
:100188000CB006EF01F00CA2ACEF01F00E6A000E05
:1001980002641DEF01F0F00E0214D8A4E8EF00F09D
:1001A800023A01380F0B02260138F00B016E0038B5
:1001B8000F0B01260038F00B006E08380F0B0026D5
:1001C8000838F00B086E0E84D89002BE01EF01F0DB
:1001D80008360036013602360E2A02BE01EF01F05B
:1001E80008360036013602360E2A02BE01EF01F04B
:1001F80008360036013602360E2A0E500364A2EF86
:1002080001F0035E0BBC08AEA7EF01F0D880800EAA
:1002180008640030000E002201220222D8A0A7EFB5
:1002280001F0023201320032034AACEF01F0A7EFCD
:1002380001F001C002F000C001F008C000F0086A37
:10024800000E0E86026454EF01F0F00E0214D8A4DA
:100258003CEF01F0023A01380F0B02260138F00B8F
:10026800016E00380F0B01260038F00B006E0E846B
:10027800D89002BE01EF01F00036013602360E2A90
:1002880002BE01EF01F00036013602360E2A02BE28
:1002980001EF01F00036013602360E2A01EF01F0B7
:1002A80001C002F000C001F0006A000E0E960E8830
:1002B800026481EF01F0F00E0214D8A46CEF01F093
:1002C800023A01380F0B02260138F00B016E0E843A
:1002D800D89002BE01EF01F0013602360E2A02BEA6
:1002E80001EF01F0013602360E2A02BE01EF01F0DD
:1002F800013602360E2A01EF01F001C002F0016A50
:10030800000E0E860264B1EF01F0F00E0214D8A4BC
:1003180090EF01F0023A0E84D89002BE01EF01F08E
:1003280002360E2A02BE01EF01F002360E2A02BE84
:1003380001EF01F002360E2A01EF01F0010E0C6EFA
:10034800D3DEB4EF01F0020E0C6E8BDEB4EF01F0D9
:10035800040E0C6E73DEB4EF01F0080E0C6E7ADE3C
:02036800120081
:08036A000B6A0B86FF0E120066
:100372000A6A0350D8A40A800750D8A40A820A50F5
:10038200D8B41CEF02F0030AD8B4D5EF01F00AB0DA
:10039200D0EF01F006AE1AEF02F018EF02F002AE53
:1003A20018EF02F01AEF02F00250800B0A6E029E62
:1003B2000650800B069E0A18D8B4E6EF01F00A50E8
:1003C200D8B418EF02F01AEF02F00750035CD8B469
:1003D200F0EF01F0D8A00CEF02F012EF02F006509D
:1003E200025CD8B4FAEF01F0D8A00CEF02F012EFE1
:1003F20002F00550015CD8B404EF02F0D8A00CEF73
:1004020002F012EF02F00450005CD8B41CEF02F0CC
:10041200D8B012EF02F00A52D8B41AEF02F018EF75
:1004220002F00A52D8B418EF02F01AEF02F0D880A4
:0E0432001200D8901200D880D8841200120058
:0E04400006015191D4C6D5F614DE518112008A
:10044E000450000A12E10550000A0FE10650000A9E
:10045E000CE10750000A09E1FF0E006EFF0E016E5F
:10046E007F0E026EFF0E036EA4D0086A096A075053
:10047E00D8B4D2EF02F00350D8B4D6EF02F0025047
:10048E0006180A6E028E068E0E6A02C008F001C0B1
:10049E000CF000C00DF004500D5E0550D8A0053CC8
:1004AE000C5E0650D8A0063C085E086A0C6A0D6AFF
:1004BE00D8A069EF02F0D890023201320032083231
:1004CE00010E0E6E0750035ED8A076EF02F07E0E80
:1004DE000E240326D8B0DAEF02F07CEF02F07E0E87
:1004EE000E240326D8A0DEEF02F0180E0B6E0D368A
:1004FE000C3608360036013602360E360450005ED3
:10050E000550D8A0053C015E0650D8A0063C025E00
:10051E0006340E120EA097EF02F00D80A2EF02F03D
:10052E00045000260550D8B0053C01260650D8B020
:10053E00062802260D900B2E7EEF02F0C8EF02F079
:10054E00D8900036013602360E360450005E055045
:10055E00D8A0053C015E0650D8A0063C025E0634CB
:10056E000E10010B0D26D8B00C2AD8B4082AD8A428
:10057E00C8EF02F008320C320D32032AD8B4DAEF8B
:10058E0002F00AAE089E0850026E0C50016E0D501D
:10059E00006EE0EF02F0010EE1DEE0EF02F0020E7F
:1005AE0056DDE0EF02F0040E46DDE0EF02F0080E3D
:0405BE0098DD1200B2
:1005C200086A096A000E0762036466EF03F00250CC
:1005D20006180A6E075003267E0ED8A0F7EF02F027
:1005E200035ED8B06AEF03F0FBEF02F0035ED8A01F
:1005F2006EEF03F0028E068E02C00EF001C00BF009
:1006020000C00DF000500402F4CF0CF001500502BE
:10061200F4CF00F0F3CF08F00402F3500C26F450AC
:100622000822000E00220D500502F3500C26F45051
:100632000822000E002202500402F3500826F45051
:10064200002202500502016A000E0122F350002628
:10065200F45001220D500602F3500826F4500022F5
:10066200026A000E012202220B500602F3500026FB
:10067200F4500122000E02220E500602F35001260F
:10068200F450022202BE4EEF03F008360036013665
:1006920002360306D8B46EEF03F061EF03F0D880A0
:1006A200800E08640030000E002201220222D8A02F
:1006B20061EF03F0023201320032034A6AEF03F0C3
:1006C2000AAE029E000E70EF03F0010EC6DC70EF60
:1006D20003F0020EB6DC70EF03F0040E08DD120028
:1006E200240E0601526F120E536FCC0E546F060E7B
:1006F200556FC26A03015C1D006E0050C1165C5149
:100702000601CC15006E0050C1120F0EC012C08E31
:04071200C28012008F
:10071600CC0E046E060E056E030E0424E96E000E62
:100726000520EA6E7E0EEE5C006E016A000E015A2E
:10073600D0C6E1FFD1C6E2FF00C0E6FF01C0E6FF7A
:10074600030E0424E16E000E0520E26E7E0EE66EB8
:10075600CCC600F0CDC601F0CEC602F0CFC603F07F
:0207660012007F
:100768000B6A0C6A0A6A086A0350D8B43CEF04F0B2
:10077800028E9E0E035E03BEC7EF03F0D8B4C7EF28
:1007880003F02CEF04F0036C080E035CD8A0F9EF1B
:1007980003F0036E083600C008F001C000F002C084
:1007A80001F0026A080E035CD8A0F9EF03F0036EAB
:1007B800083600C008F001C000F0016A080E035CAA
:1007C800D8A0F9EF03F0036E083600C008F0006AFD
:1007D800080E035CD8A0F9EF03F0036E0836086A28
:1007E8000350D8A4D89005EF04F00350D8B405EF0F
:1007F80004F0D8900232013200320832032EFDEFA5
:1008080003F00BBC08A016EF04F0D8A016EF04F014
:10081800082AD8B4002AD8B4012AD8B4022A02BEB9
:1008280040EF04F00AAE3CEF04F0021E011E001E69
:10083800081E082AD8B4002AD8B4012AD8B4022A33
:100848003CEF04F0026A016A006A086A3CEF04F0AF
:100858000B800BAE45EF04F0026A0AAE45EF04F0D8
:10086800026E016E006E086E0A36023245EF04F021
:10087800000E0C6A46EF04F0010E0C6E42DC46EFE7
:1008880004F0FF0E0250036E0150026E0050016E1C
:060898000850006E120082
:10089E0081808190818C100E0C6E940E0D6E0D2E3B
:1008AE00FED70C2EFCD70000819C350E0D6E0D2E42
:1008BE00FED7800E0601B36F818C800E7215016E0D
:1008CE0001C0B4F60150000A02E1819E01D0818E72
:1008DE00350E0D6E0D2EFED7819C819E350E0D6E42
:1008EE0006010D2EFDD7818C400E7215016E01C0D2
:1008FE00B4F60150000A02E1819E01D0818E350EC0
:10090E000D6E0D2EFED7819C819E350E0D6E06014D
:10091E000D2EFDD7818C200E7215016E01C0B4F61E
:10092E000150000A02E1819E01D0818E350E0D6EBE
:10093E000D2EFED7819C819E350E0D6E06010D2E5D
:10094E00FDD7818C100E7215016E01C0B4F60150E8
:10095E00000A02E1819E01D0818E350E0D6E0D2EA4
:10096E00FED7819C819E350E0D6E06010D2EFDD794
:10097E00818C080E7215016E01C0B4F60150000A8A
:10098E0002E1819E01D0818E350E0D6E0D2EFED7A9
:10099E00819C819E350E0D6E06010D2EFDD7818C2C
:1009AE00040E7215016E01C0B4F60150000A02E188
:1009BE00819E01D0818E350E0D6E0D2EFED7819C3F
:1009CE00819E350E0D6E06010D2EFDD7818C020E09
:1009DE007215016E01C0B4F60150000A02E1819E4B
:1009EE0001D0818E350E0D6E0D2EFED7819C819E0F
:1009FE00350E0D6E06010D2EFDD7818C010E721572
:100A0E00016E01C0B4F60150000A02E1819E01D0D0
:100A1E00818E350E0D6E0D2EFED7819C819E350E6C
:100A2E000D6E0D2EFED7819C100E0C6E940E0D6E5B
:0C0A3E000D2EFED70C2EFCD7000012007D
:100A4A00025006180E6E086A096A0B6A0350076498
:100A5A0018EF06F006500A6E068E028E03500B6ED1
:100A6A000750036E000E0B6468EF05F00B50075E2B
:100A7A00D8B409EF06F0070E0764D7EF05F0075E52
:100A8A0000C008F001C000F002C001F0026A074E7F
:100A9A0009EF06F00764ACEF05F0075E00C008F046
:100AAA0001C000F0016A074E09EF06F007648AEFF9
:100ABA0005F0075E00C008F0006A074E09EF06F06D
:100ACA00076471EF05F00AC002F005C001F004C026
:100ADA0000F0086A35EF07F0030E07647CEF05F0B3
:100AEA00075E08380F0B086E074E09EF06F0D8901C
:100AFA000832074E09EF06F0D8900832074E09EF80
:100B0A0006F0D890083209EF06F0030E07649BEF4F
:100B1A0005F0075E08380F0B086E0038F00B082640
:100B2A0000380F0B006E074E09EF06F0D89000321E
:100B3A000832074E09EF06F0D89000320832074E05
:100B4A0009EF06F0D8900032083209EF06F0030EDA
:100B5A000764C3EF05F0075E08380F0B086E00380C
:100B6A00F00B082600380F0B006E0138F00B002638
:100B7A0001380F0B016E074E09EF06F0D8900132CB
:100B8A0000320832074E09EF06F0D89001320032DF
:100B9A000832074E09EF06F0D890013200320832C7
:100BAA0009EF06F0030E0764F4EF05F0075E083854
:100BBA000F0B086E0038F00B082600380F0B006E7A
:100BCA000138F00B002601380F0B016E0238F00BCA
:100BDA00012602380F0B026E074E09EF06F0D89075
:100BEA000232013200320832074E09EF06F0D8907D
:100BFA000232013200320832074E09EF06F0D8906D
:100C0A000232013200320832096A000E0EAEFDEFDE
:100C1A0006F0081E001E011E021E082A00220122DA
:100C2A000222FDEF06F00750D8A41EEF06F035EFBA
:100C3A0007F0096A02C00AF0028E068E0750035CAA
:100C4A00076ED8B4F0EF06F0070E0764BEEF06F0A1
:100C5A00075E0450096E0550046E0650056E066A5A
:100C6A00074EF0EF06F0070E076493EF06F0075EF3
:100C7A000450096E0550046E056A074EF0EF06F03F
:100C8A00070E076471EF06F0075E0450096E046AE6
:100C9A00074EF0EF06F0070E076458EF06F00AC099
:100CAA0002F035EF07F0030E076463EF06F0075E04
:100CBA0009380F0B096E074EF0EF06F0D89009328B
:100CCA00074EF0EF06F0D8900932074EF0EF06F023
:100CDA00D8900932F0EF06F0030E076482EF06F0AF
:100CEA00075E09380F0B096E0438F00B0926043821
:100CFA000F0B046E074EF0EF06F0D890043209325B
:100D0A00074EF0EF06F0D89004320932074EF0EFA2
:100D1A0006F0D89004320932F0EF06F0030E0764A9
:100D2A00AAEF06F0075E09380F0B096E0438F00BBC
:100D3A00092604380F0B046E0538F00B0426053813
:100D4A000F0B056E074EF0EF06F0D890053204320D
:100D5A000932074EF0EF06F0D89005320432093214
:100D6A00074EF0EF06F0D890053204320932F0EF60
:100D7A0006F0030E0764DBEF06F0075E09380F0B77
:100D8A00096E0438F00B092604380F0B046E053877
:100D9A00F00B042605380F0B056E0638F00B0526F6
:100DAA0006380F0B066E074EF0EF06F0D8900632A3
:100DBA00053204320932074EF0EF06F0D8900632B7
:100DCA00053204320932074EF0EF06F0D8900632A7
:100DDA00053204320932086A000E0EAEFDEF06F043
:100DEA00091E041E051E061E092A042205220622C1
:100DFA0009500826045000220550012206500222FA
:100E0A000EBE14EF07F0D8A023EF07F0023201322A
:100E1A0000320832033E23EF07F02FEF07F0D8B075
:100E2A0029EF07F0000E081E001E011E021E082AE6
:100E3A000022012202220A7E29EF07F0010E0C6E1F
:100E4A00C4EC00F037EF07F0020E0C6EC4EC00F0B1
:100E5A0037EF07F0040E0C6E22EC00F037EF07F0C4
:060E6A00000E0C6E1200E8
:100E70000450000A08E10550000A05E1FF0E006E6B
:100E80007F0E016E58D00D6A096A086A0150001081
:100E9000D8B4000C015005180A6E0ABE0D1E0B6A6C
:100EA00005AE05D0041E051E042AD8B4052A01AEDD
:100EB00005D0001E011E002AD8B4012A01500510D9
:100EC0000A6E0ABE10D093EC00F00BB020D00DAE2D
:100ED000000C001E011E002AD8B4012A081E091E9B
:100EE000082AD8B4092A000C05AE0DD001BE07D0DF
:100EF0000150096E0050086E016A006AE8D7016A65
:100F0000006A002A000C011E001E0B2ADDD7082AE9
:100F1000D8B4092A0450085CD8A4D9D70550095C74
:100F2000D8A4D5D7096A086A002AD8B4012A01AE24
:080F3000CED70000FF0C1200F7
:100F38000B6A0A6A096A086A0E6A0334083604509A
:100F4800085E0550D8A0053C095E0650D8A0063CAE
:100F58000A5E0750D8A0073C0B5EE86AD8A0010ECD
:100F68000E5E0336070E0C6E0334083609360A3651
:100F78000B360E36045003A012D0085E0550D8A0D8
:100F8800053C095E0650D8A0063C0A5E0750D8A06A
:100F9800073C0B5EE86AD8A0010E0E5E11D0082649
:100FA8000550D8B0053C09260650D8B0063C0A269C
:100FB8000750D8B0073C0B26E86AD8B0010E0E26B9
:100FC80003360C2ED1D70234083609360A360B36CA
:100FD8000E36045003A012D0085E0550D8A0053C78
:100FE800095E0650D8A0063C0A5E0750D8A0073C08
:100FF8000B5EE86AD8A0010E0E5E11D008260550D7
:10100800D8B0053C09260650D8B0063C0A26075039
:10101800D8B0073C0B26E86AD8B0010E0E26023677
:10102800070E0C6E0234083609360A360B360E36B1
:10103800045002A012D0085E0550D8A0053C095EF5
:101048000650D8A0063C0A5E0750D8A0073C0B5EA5
:10105800E86AD8A0010E0E5E11D008260550D8B057
:10106800053C09260650D8B0063C0A260750D8B0D9
:10107800073C0B26E86AD8B0010E0E2602360C2E65
:10108800D1D70134083609360A360B360E360450E5
:1010980002A012D0085E0550D8A0053C095E065093
:1010A800D8A0063C0A5E0750D8A0073C0B5EE86A49
:1010B800D8A0010E0E5E11D008260550D8B0053C08
:1010C80009260650D8B0063C0A260750D8B0073C77
:1010D8000B26E86AD8B0010E0E260136070E0C6EF4
:1010E8000134083609360A360B360E36045001A08C
:1010F80012D0085E0550D8A0053C095E0650D8A05D
:10110800063C0A5E0750D8A0073C0B5EE86AD8A0E8
:10111800010E0E5E11D008260550D8B0053C0926F0
:101128000650D8B0063C0A260750D8B0073C0B2614
:10113800E86AD8B0010E0E2601360C2ED1D700343D
:10114800083609360A360B360E36045001A012D07E
:10115800085E0550D8A0053C095E0650D8A0063C9C
:101168000A5E0750D8A0073C0B5EE86AD8A0010EBB
:101178000E5E11D008260550D8B0053C0926065049
:10118800D8B0063C0A260750D8B0073C0B26E86AB8
:10119800D8B0010E0E260036070E0C6E0034083645
:1011A80009360A360B360E36045000A012D0085EF7
:1011B8000550D8A0053C095E0650D8A0063C0A5E3A
:1011C8000750D8A0073C0B5EE86AD8A0010E0E5E57
:1011D80011D008260550D8B0053C09260650D8B0CD
:1011E800063C0A260750D8B0073C0B26E86AD8B058
:1011F800010E0E2600360C2ED1D700B00ED00450AA
:1012080008260550D8B0053C09260650D8B0063C3B
:0C1218000A260750D8B0073C0B26120035
:10122400830EC216CCC600F0003600900036009043
:101234000050C212BFEC00F0C282C2A201D0FDD79E
:10124400C4CF01F0006A00C0CDF601C0CEF6C35091
:101254000012000E011200C0CDF601C0CEF6000E41
:101264000014026E0150800B036E000E031802E19D
:10127400000E021803E00601CD6BCE6BCDC600F064
:06128400CEC601F01200CD
:10128A00CC0E0601D26F060ED36F030ED225D96E8D
:10129A00000ED321DA6EDE50D025016E000ED12168
:1012AA00026E01C0D0F602C0D1F6800E0218006E9E
:1012BA00800E005C02E1000E015C05E2006A016A30
:1012CA00026A036A3FD0800E006E800ED119005C5C
:1012DA0002E1D051FF0826E2046A056A066A076A33
:1012EA00CCC600F0CDC601F0CEC602F0CFC603F0E0
:1012FA00B9EC01F0010ED8B0000E006E005209E000
:10130A00FF0E006EFF0E016EFF0E026EFF0E036EE1
:10131A0019D0FF0E006EFF0E016E7F0E026EFF0ED9
:10132A00036E10D0030ED225E16E000ED321E26EB9
:10133A00D0C6E6FFCCC600F0CDC601F0CEC602F09C
:06134A00CFC603F0120003
:1013500003500718D8A4BCEF09F002500618D8A40F
:10136000BCEF09F001500518D8A4BCEF09F00050FB
:0E1370000418D8B4D8841200D89412001200C9
:10137E000050086E0150006E0250016E0350026E56
:10138E00036A0B6A0C6A9E0E036E0A6A020E0C6EDC
:06139E00C4EC00F0120097
:1013A40010D0800E0601CC6F1AD0C00ECC6F17D0AF
:1013B400940ECC6F14D0D40ECC6F11D0800ECC6FA1
:1013C4000ED00601CC51010AECE0CC51020AEDE04A
:1013D400CC51030AEDE0CC51040AEDE0EFD7CD0582
:1013E400006ECC51002600C0CCF600C0D5F639EC16
:1013F40000F05191D06BD051CE25E96E000ECF2173
:10140400EA6EEE520CE0D051CE25E96E000ECF21EB
:10141400EA6EEECFD4F620EC02F0D02BECD751815B
:021424001200B4
:1014260010D0800E0601CC6F1AD0C00ECC6F17D02C
:10143600940ECC6F14D0D40ECC6F11D0800ECC6F1E
:101446000ED00601CC51010AECE0CC51020AEDE0C7
:10145600CC51030AEDE0CC51040AEDE0EFD7CD05FF
:10146600006ECC51002600C0CCF6518100C0D5F6E6
:1014760039EC00F05191CEC6D5F639EC00F0518129
:02148600120052
:10148800BDC604F0BEC605F0BFC606F0C0C607F06C
:10149800006A016A026A036AB9EC01F0000ED8B06A
:1014A800010E006E005205E0006A016A026A036AD2
:1014B800F6D0BDC6C1F6BEC6C2F6BFC6C3F6C0C624
:1014C800C4F6000E046E000E056E000E066E7F0E4A
:1014D800076EBDC600F0BEC601F0BFC602F0C0C6AA
:1014E80003F0B9EC01F0010ED8B0000E006E005206
:1014F8001AE0C1C604F0C2C605F0C3C606F0C4C6E9
:1015080007F0000E006E000E016E000E026E7F0ED8
:10151800036E27EC02F000C0C1F601C0C2F602C09B
:10152800C3F603C0C4F6C1C6CCF6C2C6CDF6C3C660
:10153800CEF6C4C6CFF6CA0E0601D06F060ED16F1E
:101548008BEC03F000C0C1F601C0C2F602C0C3F6BE
:1015580003C0C4F600C0CCF601C0CDF602C0CEF67A
:1015680003C0CFF6020E046E000E056ECAC600F068
:10157800CBC601F079DC00C0D0F601C0D1F681DE1F
:1015880000C0C1F601C0C2F602C0C3F603C0C4F66B
:10159800000E046E000E056E000E066E7F0E076EBE
:1015A800BDC600F0BEC601F0BFC602F0C0C603F05B
:1015B800B9EC01F0010ED8B0000E006E00521AE02E
:1015C800C1C604F0C2C605F0C3C606F0C4C607F01B
:1015D800000E006E000E016E000E026E7F0E036E8E
:1015E80027EC02F000C0C1F601C0C2F602C0C3F683
:1015F80003C0C4F6140E0601C96FC1C604F0C2C602
:1016080005F0C3C606F0C4C607F0BDC600F0BEC6E6
:1016180001F0BFC602F0C0C603F027EC02F0C1C655
:1016280004F0C2C605F0C3C606F0C4C607F025EC30
:1016380005F0000E046E000E056E000E066E800E9C
:10164800076E27EC02F000C0C5F601C0C6F602C05E
:10165800C7F603C0C8F6C1C604F0C2C605F0C3C6C3
:1016680006F0C4C607F070DE010ED8A4000E006EA6
:10167800005201E00CD0C5C6C1F6C6C6C2F6C7C640
:10168800C3F6C8C6C4F60601C907C953B6E1C1C640
:1016980000F0C2C601F0C3C602F0C4C603F01200CF
:1016A8000601A76BAB51000808E1AA51000805E143
:1016B800A951000802E1A851A75DD8B0C8D0A7C6B3
:1016C80000F0000E016E00360090013600360090E2
:1016D8000136870E0024E96E060E0120EA6EEECF71
:1016E800BDF6EECFBEF6EECFBFF6EECFC0F6BDC666
:1016F800ACF6BEC6ADF6BFC6AEF6C0C6AFF6100EA7
:10170800046E270E056E000E066E076EBDC600F04D
:10171800BEC601F0BFC602F0C0C603F009DC00C0B7
:1017280072F6E80E046E030E056E000E066E076E66
:10173800BDC600F0BEC601F0BFC602F0C0C603F0C9
:101748009CEC07F00A0E046E000E056E066E076E1E
:101758009CEC07F008C000F009C001F00AC002F0D4
:101768000BC003F000C072F64FEC04F0640E046E78
:10177800000E056E066E076EACC600F0ADC601F031
:10178800AEC602F0AFC603F09CEC07F00A0E046E7A
:10179800000E056E066E076E9CEC07F008C000F0A0
:1017A80009C001F00AC002F00BC003F000C072F6D5
:1017B8004FEC04F0CB0E0601726F4FEC04F00A0EEA
:1017C800046E000E056E066E076EACC600F0ADC660
:1017D80001F0AEC602F0AFC603F09CEC07F00A0EAB
:1017E800046E000E056E066E076E9CEC07F008C0CE
:1017F80000F009C001F00AC002F00BC003F000C0FD
:1018080072F64FEC04F00A0E046E000E056E066EBA
:10181800076EACC600F0ADC601F0AEC602F0AFC6AA
:1018280003F09CEC07F008C000F009C001F00AC002
:1018380002F00BC003F000C072F64FEC04F0CA0EC1
:101848000601726F4FEC04F00601A72B2BD712008C
:101858007FA202D00000FCD77F9CBEC675FFBDC624
:1018680074FFBFC673FF7F9E7F84F2CF00F0F29EA5
:10187800550E7E6EAA0E7E6E7F8200BE02D0F29E4C
:0818880001D0F28E7F941200E2
:10189000100E046E270E056E000E066E076EACC6A7
:1018A00000F0ADC601F0AEC602F0AFC603F09CEC8E
:1018B00007F000C083F601C084F602C085F603C0BD
:1018C00086F6B2C6CCF6B1C6CDF60050300F060192
:1018D000CE6FA9DDE80E046E030E056E000E066ED7
:1018E000076EACC600F0ADC601F0AEC602F0AFC6E2
:1018F00003F09CEC07F00A0E046E000E056E066EF7
:10190000076E9CEC07F008C000F009C001F00AC0A7
:1019100002F00BC003F000C083F601C084F602C0E1
:1019200085F603C086F60050300FD46F20EC02F02D
:101930002E0ED46F20EC02F0640E046E000E056EC5
:10194000066E076EACC600F0ADC601F0AEC602F082
:10195000AFC603F09CEC07F00A0E046E000E056E95
:10196000066E076E9CEC07F008C000F009C001F09D
:101970000AC002F00BC003F000C083F601C084F679
:1019800002C085F603C086F60050300FD46F20ECFD
:1019900002F00A0E046E000E056E066E076EACC6EF
:1019A00000F0ADC601F0AEC602F0AFC603F09CEC8D
:1019B00007F00A0E046E000E056E066E076E9CECB4
:1019C00007F008C000F009C001F00AC002F00BC027
:1019D00003F000C083F601C084F602C085F603C0A0
:0E19E00086F60050300FD46F20EC02F012009B
:1019EE00939493969498949A949C949E81948196B1
:1019FE00829E829C829A82980EEC00F00EEC00F091
:101A0E000EEC00F0828A828881841DEC00F08194B5
:101A1E000EEC00F081841DEC00F081940EEC00F0D1
:101A2E0081841DEC00F081940EEC00F0829881848C
:101A3E001DEC00F081940EEC00F081841DEC00F0A2
:101A4E008194829A828E81841DEC00F081940EEC3A
:101A5E0000F0829E828881841DEC00F08194829831
:101A6E0081841DEC00F081940EEC00F081841DEC5D
:101A7E0000F08194828881841DEC00F081940EEC3C
:101A8E0000F0829881841DEC00F08194828E828C0D
:101A9E00828A828881841DEC00F081940EEC00F025
:061AAE0006015181120047
:101AB4000900F5CFE6FF0006FBE10106F9E112009B
:101AC400220E0C6E086A096A0A6A0B6A0C06D8B4FC
:101AD4001FD0D8900B320A32093208320332023254
:101AE40001320032D8A0F2D70C06D8B409D0045081
:101AF40008260550092206500A2207500B22EAD76D
:101B0400045008260550092206500A2207500B22C9
:021B14001200BD
:101B1600C26A03015C1D006E0050C1160F0EC01292
:101B2600C08EBDC600F00036009000360090005012
:101B3600C212C280BFEC00F0C282C2A201D0FDD7A1
:101B4600C4CF01F0006A00C0BEF601C0BFF6C350A4
:101B56000012000E011200C0BEF601C0BFF6C29010
:101B6600000E0014026E0150800B036E000E031867
:101B760002E1000E021803E00601BE6BBF6BBEC693
:081B860000F0BFC601F01200DF
:101B8E000601A76BAB51000808E1AA51000805E158
:101B9E00A951000802E1A851A75DD8B09DD0A7C6F3
:101BAE0000F0000E016E003600900136730E002418
:101BBE00E96E060E0120EA6EEECFACF6EECFADF674
:101BCE00000EAE6FAF6F000EAE6FAF6FE80E046E0D
:101BDE00030E056E000E066E076EACC600F0ADC6A7
:101BEE0001F0AEC602F0AFC603F09CEC07F000C0E9
:101BFE0072F64FEC04F0CB0E0601726F4FEC04F050
:101C0E00640E046E000E056E066E076EACC600F016
:101C1E00ADC601F0AEC602F0AFC603F09CEC07F005
:101C2E000A0E046E000E056E066E076E9CEC07F033
:101C3E0008C000F009C001F00AC002F00BC003F0AA
:101C4E0000C072F64FEC04F00A0E046E000E056E24
:101C5E00066E076EACC600F0ADC601F0AEC602F061
:101C6E00AFC603F09CEC07F00A0E046E000E056E74
:101C7E00066E076E9CEC07F008C000F009C001F07C
:101C8E000AC002F00BC003F000C072F64FEC04F075
:101C9E000A0E046E000E056E066E076EACC600F0E0
:101CAE00ADC601F0AEC602F0AFC603F09CEC07F075
:101CBE0008C000F009C001F00AC002F00BC003F02A
:101CCE0000C072F64FEC04F0CA0E0601726F4FECB4
:0A1CDE0004F00601A72B56D71200F0
:101CE800010E0601CC6F0A0ECD6FFB0ECE6F050EEE
:101CF800CF6FD2EC09F0020ECC6F0A0ECD6FFD0E3D
:101D0800CE6F050ECF6FD2EC09F0030ECC6F0A0E22
:101D1800CD6FF90ECE6F050ECF6FD2EC09F0040E21
:101D2800CC6F0A0ECD6FF50ECE6F050ECF6FD2ECCD
:101D380009F0030E0B6E080E0C6E770E0D6E0D2E4D
:101D4800FED70C2EFCD70B2EFAD7010ECC6F0A0E3D
:101D5800CD6FF70ECE6F050ECF6FD2EC09F0020EE5
:101D6800CC6F0A0ECD6F050ECE6F060ECF6FD2EC7C
:101D780009F0030ECC6F0A0ECD6FFF0ECE6F050E65
:101D8800CF6FD2EC09F0040ECC6F0A0ECD6F030EA4
:101D9800CE6F060ECF6FD2EC09F0030E0B6E080E55
:101DA8000C6E770E0D6E0D2EFED70C2EFCD70B2E5B
:081DB800FAD781B295D71200A1
:101DC0000601A76BAB51000808E1AA51000805E124
:101DD000A951000802E1A851A75DD8B0CED0A7C68E
:101DE00000F0000E016E003600900136730E0024E4
:101DF000E96E060E0120EA6EEECFACF6EECFADF640
:101E0000000EAE6FAF6F000EAE6FAF6FE80E046ED8
:101E1000030E056E000E066E076EACC600F0ADC672
:101E200001F0AEC602F0AFC603F09CEC07F000C0B4
:101E300083F601C084F602C085F603C086F6D40E90
:101E4000E96E050EEA6EA751E926D8B0EA2AEECF70
:101E5000CCF6DC0EE96E050EEA6EA751E926D8B085
:101E6000EA2AEECFCDF60050300FCE6F13EC0AF019
:101E70002E0ED46F20EC02F0640E046E000E056E80
:101E8000066E076EACC600F0ADC601F0AEC602F03D
:101E9000AFC603F09CEC07F00A0E046E000E056E50
:101EA000066E076E9CEC07F008C000F009C001F058
:101EB0000AC002F00BC003F000C083F601C084F634
:101EC00002C085F603C086F60050300FD46F20ECB8
:101ED00002F00A0E046E000E056E066E076EACC6AA
:101EE00000F0ADC601F0AEC602F0AFC603F09CEC48
:101EF00007F00A0E046E000E056E066E076E9CEC6F
:101F000007F008C000F009C001F00AC002F00BC0E1
:101F100003F000C083F601C084F602C085F603C05A
:101F200086F60050300FD46F20EC02F00A0E046EDB
:101F3000000E056E066E076EACC600F0ADC601F071
:101F4000AEC602F0AFC603F09CEC07F008C000F08C
:101F500009C001F00AC002F00BC003F000C083F614
:101F600001C084F602C085F603C086F60050300F2B
:101F7000D46F20EC02F0A72B25D7020E0B6E040EB7
:101F80000C6EBA0E0D6E0D2EFED70C2EFCD70B2E3E
:061F9000FAD70000120068
:101F9600100E0601CC6F71EC03F0736B746B756BEE
:101FA600766B776B786B796B7A6B7B6B7C6B7D6B07
:101FB6007E6B7F6B806B816B826BA86BA96BAA6B48
:101FC600AB6BA76B070EA75DD8B0A0D0B70EA82540
:101FD600E96E050EA921EA6EEECF80FF1A0E0D6E90
:101FE6000D2EFED70000BE0EA825E96E050EA9210E
:101FF600EA6EEECF82FFD00E0C6EC90E0D6E0D2E60
:10200600FED70C2EFCD7000000006E6B6F6B706B5A
:10201600716B626B636B646B656B000E655D08E1EB
:10202600000E645D05E1000E635D02E10A0E625D6D
:102036001AE2CC6B12EC09F000C066F601C067F636
:10204600000E0601686F696F66516E2767516F2330
:102056006851702369517123010E6227000E6323B4
:1020660064236523DAD76EC600F06FC601F070C62A
:1020760002F071C603F0BFEC09F0DC0E046E680EC8
:10208600056E000E066E7C0E076EE1EC02F0B4ECF7
:1020960003F000C06AF601C06BF602C06CF603C01E
:1020A6006DF6000E035C08E1000E025C05E1000E11
:1020B600015C02E1640E005C10E2A8C600F0A9C64D
:1020C60001F0003600900136730E0024E16E060E14
:1020D6000120E26EE66AE66A17D0A8C600F0A9C635
:1020E60001F0003600900136730E0024E16E060EF4
:1020F6000120E26E6AC6E6FF6BC6E6FF010EA82760
:10210600000EA923AA23AB23A72B5CD7000E745D70
:1021160002E1C80E735D0DE2756B766B776B786BBB
:10212600796B7A6B7B6B7C6B7D6B7E6B7F6B806B6D
:1021360000D0816A0B0E0C6E620E0D6E0D2EFED750
:102146000C2EFCD70000806A0B0E0C6E620E0D6E14
:0E2156000D2EFED70C2EFCD70000826A120060
:10216400010E0601CC6F010ECD6FE40ECE6F050E8D
:10217400CF6FD2EC09F0020ECC6F010ECD6FD10EF1
:10218400CE6F050ECF6FD2EC09F0030ECC6F010EAB
:10219400CD6FC50ECE6F050ECF6FD2EC09F0040ED5
:1021A400CC6F010ECD6FC80ECE6F050ECF6FD2EC83
:1021B40009F0010ECC6F090ECD6FCB0ECE6F050E5C
:1021C400CF6FD2EC09F0020ECC6F090ECD6FA30EC7
:1021D400CE6F050ECF6FD2EC09F0030ECC6F090E53
:1021E400CD6FA90ECE6F050ECF6FD2EC09F0040EA1
:1021F400CC6F090ECD6FAF0ECE6F050ECF6FD2EC44
:1022040009F0010ECC6F140ECD6FA10ECE6F050E2A
:10221400CF6FD2EC09F0020ECC6F140ECD6F970E77
:10222400CE6F050ECF6FD2EC09F0030ECC6F140EF7
:10223400CD6F990ECE6F050ECF6FD2EC09F0040E60
:10224400CC6F090ECD6F9B0ECE6F050ECF6FD2EC07
:1022540009F0040ECC6F140ECD6FB50ECE6F050EC3
:08226400CF6FD2EC09F012006B
:10226C007F9CBEC675FFBDC674FF7F9E7F8073CFFB
:04227C0000F012005C
:10228000010E0601CC6F0A0ECD6F010ECE6F060E49
:10229000CF6FD2EC09F0020ECC6F0A0ECD6FED0EAF
:1022A000CE6F050ECF6FD2EC09F0030ECC6F0A0E85
:1022B000CD6FEF0ECE6F050ECF6FD2EC09F0040E8E
:1022C000CC6F0A0ECD6FF10ECE6F050ECF6FD2EC34
:1022D00009F0030E0B6E080E0C6E770E0D6E0D2EB0
:1022E000FED70C2EFCD70B2EFAD7010ECC6F0A0EA0
:1022F000CD6FE70ECE6F050ECF6FD2EC09F0020E58
:10230000CC6F0A0ECD6FE90ECE6F050ECF6FD2ECFB
:1023100009F0030ECC6F0A0ECD6FEB0ECE6F050EDB
:10232000CF6FD2EC09F0040ECC6F0A0ECD6FF30E16
:10233000CE6F050ECF6FD2EC09F0030E0B6E080EB8
:102340000C6E770E0D6E0D2EFED70C2EFCD70B2EBD
:10235000FAD781A295D7030E0B6E080E0C6E770E7E
:102360000D6E0D2EFED70C2EFCD70B2EFAD71200B9
:08237000067E25EC05F01200C9
:10237800C4EC21F0010E0F015D6F5C6B100EC16E95
:102388000601B06B0B0E926E020E936E946A806A11
:10239800816A826AF7EC0CF0010ED56F39EC00F017
:1023A8000C0ED56F39EC00F0010EBD6F8BEC0DF003
:1023B80000C0ACF601C0ADF6000E0601AE6FAF6FFF
:1023C800ACC600F0ADC601F0AEC602F0AFC603F071
:1023D800100E046E270E056E000E066E076E62EC78
:1023E8000DF000C0ACF601C0ADF602C0AEF603C0F9
:1023F800AFF6500E046E0A0E056E000E066E076EDE
:102408009CEC07F000C0ACF601C0ADF602C0AEF619
:1024180003C0AFF6030EB26F0E0EB16F010ECC6F94
:10242800010ECD6F820ECE6F050ECF6FD2EC09F084
:10243800020ECC6F010ECD6F910ECE6F010ECF6FD5
:10244800D2EC09F0030ECC6F010ECD6F7C0ECE6F6F
:10245800010ECF6FD2EC09F0040ECC6F010ECD6FD8
:10246800670ECE6F010ECF6FD2EC09F048EC0CF07E
:10247800290E0B6E960E0C6E7F0E0D6E0D2EFED76E
:102488000C2EFCD70B2EFAD7000EAF5D08E1000E1C
:10249800AE5D05E11A0EAD5D02E12C0EAC5D27E2E2
:1024A800010ED56F39EC00F0050E0B6E0F0E0C6E99
:1024B800F10E0D6E0D2EFED70C2EFCD70B2EFAD773
:1024C800040ECC6F010ECD6FA60ECE6F010ECF6F2E
:1024D800D2EC09F0050E0B6E0F0E0C6EF10E0D6EA0
:1024E8000D2EFED70C2EFCD70B2EFAD7D9D7F7EC2A
:1024F8000CF0010ED56F39EC00F00C0ED56F39ECED
:1025080000F0806A816A826A81B201D0F8D0406B9B
:102518003F6B010ECC6F010ECD6F100ECE6F010E0A
:10252800CF6FD2EC09F0020ECC6F010ECD6FFB0E0F
:10253800CE6F000ECF6FD2EC09F0030ECC6F010EF8
:10254800CD6FE60ECE6F000ECF6FD2EC09F0040E01
:10255800CC6F010ECD6F520ECE6F010ECF6FD2EC45
:1025680009F0040ECC6F0F0ECD6F4051300FCE6FB7
:1025780013EC0AF0040ECC6F100ECD6F3F51300FE4
:10258800CE6F13EC0AF0040ECC6F110ECD6F300E27
:10259800CE6F13EC0AF0040ECC6F120ECD6F300E16
:1025A800CE6F13EC0AF0090E0B6E1E0E0C6EE40EC5
:1025B8000D6E0D2EFED70C2EFCD70B2EFAD7000071
:1025C800020ECC6F010ECD6F3D0ECE6F010ECF6F98
:1025D800D2EC09F040510908D8A0406B040ECC6F2A
:1025E8000F0ECD6F4051300FCE6F13EC0AF0090E6D
:1025F8000B6E1E0E0C6EE40E0D6E0D2EFED70C2EFD
:10260800FCD70B2EFAD7000081A202D0402BE2D7CC
:102618000B0E0B6E260E0C6E5D0E0D6E0D2EFED77C
:102628000C2EFCD70B2EFAD700000000030ECC6F3F
:10263800010ECD6F250ECE6F010ECF6FD2EC09F0D3
:10264800020ECC6F010ECD6F130ECE6F020ECF6F40
:10265800D2EC09F081B201D0F3D7020ECC6F010E93
:10266800CD6FFE0ECE6F010ECF6FD2EC09F03F5149
:102678000908D8A03F6B040ECC6F100ECD6F3F51E8
:10268800300FCE6F13EC0AF0090E0B6E1E0E0C6E97
:10269800E40E0D6E0D2EFED70C2EFCD70B2EFAD79E
:1026A800000081A202D03F2BE2D7819A340E0C6E33
:1026B800F10E0D6E0D2EFED70C2EFCD7000000007B
:1026C8008198806A816A826ABD6BBE6B40C6BFF61C
:1026D8002CEC0CF0010E0601BD6F000EBE6F3FC65C
:1026E800BFF62CEC0CF0030E0B6E080E0C6E770E7A
:1026F8000D6E0D2EFED70C2EFCD70B2EFAD7060129
:10270800BD6BBE6BAFDD00C040F6010EBD6F000EA5
:10271800BE6FA8DD00C03FF6010ECC6F010ECD6F75
:10272800E90ECE6F010ECF6FD2EC09F0020ECC6F1E
:10273800010ECD6F520ECE6F020ECF6FD2EC09F0A4
:10274800030ECC6F010ECD6F3D0ECE6F020ECF6F14
:10275800D2EC09F0040ECC6F010ECD6F280ECE6FAF
:10276800020ECF6FD2EC09F00A0E4003F3CF41F608
:10277800F4CF42F6000E42BFFF0E436F446F3F5145
:102788004127000E4223000E42BFFF0E436F446FE5
:10279800030ECC6F0D0ECD6F4051300FCE6F13EC82
:1027A8000AF0030ECC6F0E0ECD6F3F51300FCE6F77
:1027B80013EC0AF0330E0B6EBB0E0C6EDF0E0D6EB3
:1027C8000D2EFED70C2EFCD70B2EFAD700000000DA
:1027D800010ED56F39EC00F0C1DC816A9C0E0C6EDD
:1027E800D70E0D6E0D2EFED70C2EFCD7CBEC0FF0AE
:1027F800010E745D02E1F40E735D32E2010ED56FD5
:1028080039EC00F0030ECC6F010ECD6FD00ECE6FF9
:10281800010ECF6FD2EC09F0090E0B6E1E0E0C6E76
:10282800E40E0D6E0D2EFED70C2EFCD70B2EFAD70C
:102838000000030ECC6F010ECD6FBB0ECE6F010EE4
:10284800CF6FD2EC09F0050E0B6E0F0E0C6EF10E69
:102858000D6E0D2EFED70C2EFCD70B2EFAD7C6D731
:102868007DDCCBEC0FF073C645F674C646F6000E59
:10287800476F486FE0EC0EF075517325AC6F7651D9
:102888007421AD6F000EAE6FAF6F7751AC277851E2
:10289800AD23000EAE6FAF6F7951AC277A51AD23DF
:1028A800000EAE6FAF6F7B51AC277C51AD23000E8D
:1028B800AE6FAF6F7D51AC277E51AD23000EAE6F6A
:1028C800AF6F7F51AC278051AD23000EAE6FAF6F55
:1028D800040EB26F0F0EB16F48EC0CF0060E0C6EC2
:1028E800300E0D6E0D2EFED70C2EFCD70000010EFB
:1028F800CC6F0A0ECD6FE70ECE6F010ECF6FD2EC04
:1029080009F0020ECC6F0A0ECD6FE50ECE6F010EE8
:10291800CF6FD2EC09F0030ECC6F0A0ECD6F4B0EC1
:10292800CE6F000ECF6FD2EC09F0040ECC6F0A0EFA
:10293800CD6F490ECE6F000ECF6FD2EC09F0090EA5
:102948000B6E1E0E0C6EE40E0D6E0D2EFED70C2EA9
:10295800FCD70B2EFAD70000010ECC6F0A0ECD6FF4
:10296800470ECE6F000ECF6FD2EC09F0020ECC6F7F
:102978000A0ECD6F510ECE6F000ECF6FD2EC09F05C
:10298800030ECC6F0A0ECD6F4F0ECE6F000ECF6FB9
:10299800D2EC09F0040ECC6F0A0ECD6F4D0ECE6F3F
:1029A800000ECF6FD2EC09F0050E0B6E0F0E0C6EF9
:1029B800F10E0D6E0D2EFED70C2EFCD70B2EFAD76E
:1029C800010ECC6F0A0ECD6F190ECE6F000ECF6FB1
:1029D800D2EC09F0020ECC6F0A0ECD6F170ECE6F37
:1029E800000ECF6FD2EC09F0030ECC6F0A0ECD6F3C
:1029F800150ECE6F000ECF6FD2EC09F0040ECC6F1F
:102A08000A0ECD6F450ECE6F000ECF6FD2EC09F0D7
:102A1800050E0B6E0F0E0C6EF10E0D6E0D2EFED701
:102A28000C2EFCD70B2EFAD781A2D6D6D10E726FF8
:102A38004FEC04F0C90E0601726F4FEC04F0030E60
:102A48000B6E080E0C6E770E0D6E0D2EFED70C2E2B
:102A5800FCD70B2EFAD7CC0E0601726F4FEC04F0A0
:102A6800030E0B6E080E0C6E770E0D6E0D2EFED734
:102A78000C2EFCD70B2EFAD7C90E0601726F4FEC3D
:102A880004F0030E0B6E080E0C6E770E0D6E0D2EF5
:102A9800FED70C2EFCD70B2EFAD7C80E0601726F84
:102AA8004FEC04F0030E0B6E080E0C6E770E0D6ED5
:102AB8000D2EFED70C2EFCD70B2EFAD7C7EC0DF037
:102AC800C90E726F4FEC04F0040E0601CC6F010EB4
:102AD800CD6F300ECE6F000ECF6FD2EC09F0150E11
:102AE8000B6E4B0E0C6EBE0E0D6E0D2EFED70C2E01
:102AF800FCD70B2EFAD70000010ED56F39EC00F089
:102B0800010ECC6F010ECD6F1B0ECE6F000ECF6F76
:102B1800D2EC09F01A0E0C6EF80E0D6E0D2EFED7C3
:102B28000C2EFCD70000020ECC6F010ECD6FA70E45
:102B3800CE6F000ECF6FD2EC09F08188110E0B6EAC
:102B48003C0E0C6ECB0E0D6E0D2EFED70C2EFCD748
:102B58000B2EFAD7CBEC0FF0816A020ECC6F010E68
:102B6800CD6F920ECE6F000ECF6FD2EC09F073C608
:102B78002BF674C62CF675C62DF676C62EF677C6D5
:102B88002FF678C630F679C631F67AC632F67BC6A5
:102B980033F67CC634F67DC635F67EC636F67FC675
:102BA80037F680C638F681C639F682C63AF62D5110
:102BB8002B253B6F2E512C213C6F000E3D6F3E6F35
:102BC8002F513B2730513C23000E3D6F3E6F315152
:102BD8003B2732513C23000E3D6F3E6F33513B275C
:102BE80034513C23000E3D6F3E6F35513B27365123
:102BF8003C23000E3D6F3E6F37513B2738513C2335
:102C0800000E3D6F3E6F030ECC6F010ECD6FD10EDF
:102C1800CE6F000ECF6FD2EC09F0340E0C6EF10EB1
:102C28000D6E0D2EFED70C2EFCD700000000818AF9
:102C3800040E0B6E0C0E0C6E330E0D6E0D2EFED7A1
:102C48000C2EFCD70B2EFAD700000000CBEC0FF0AF
:102C5800816A030ECC6F010ECD6FBC0ECE6F000ED5
:102C6800CF6FD2EC09F073C60BF674C60CF675C6B6
:102C78000DF676C60EF677C60FF678C610F679C644
:102C880011F67AC612F67BC613F67CC614F67DC614
:102C980015F67EC616F67FC617F680C618F681C6E4
:102CA80019F682C61AF60D510B25076F0E510C2125
:102CB800086F000E096F0A6F0F510727105108237C
:102CC800000E096F0A6F1151072712510823000ED1
:102CD800096F0A6F1351072714510823000E096F53
:102CE8000A6F1551072716510823000E096F0A6F3E
:102CF8001751072718510823000E096F0A6F040E91
:102D0800CC6F010ECD6F530ECE6F000ECF6FD2EC8D
:102D180009F01A0E0C6EF80E0D6E0D2EFED70C2E45
:102D2800FCD70000300E816E040E0B6E0C0E0C6E7C
:102D3800330E0D6E0D2EFED70C2EFCD70B2EFAD7A8
:102D480000000000CBEC0FF0816A040ECC6F010E7E
:102D5800CD6F7D0ECE6F000ECF6FD2EC09F0040E52
:102D6800CC6F010ECD6F680ECE6F000ECF6FD2EC18
:102D780009F073C61BF674C61CF675C61DF676C632
:102D88001EF677C61FF678C620F679C621F67AC6EB
:102D980022F67BC623F67CC624F67DC625F67EC6BB
:102DA80026F67FC627F680C628F681C629F682C68B
:102DB8002AF61D511B255E6F1E511C215F6F000EE8
:102DC800606F616F1F515E2720515F23000E606F97
:102DD800616F21515E2722515F23000E606F616F82
:102DE80023515E2724515F23000E606F616F2551C8
:102DF8005E2726515F23000E606F616F27515E27A3
:102E080028515F23000E606F616F030E0B6E080E72
:102E18000C6E770E0D6E0D2EFED70C2EFCD70B2EDA
:102E2800FAD71B512B5D016E1C512C59026E000EF6
:102E3800025C02E1050E015C39E2010ED56F39EC46
:102E480000F0010ECC6F010ECD6F440ECE6F040E54
:102E5800CF6FD2EC09F0030ECC6F010ECD6F2F0EA1
:102E6800CE6F040ECF6FD2EC09F0020ECC6F010EBC
:102E7800CD6F830ECE6F040ECF6FD2EC09F0040E27
:102E8800CC6F010ECD6F6E0ECE6F040ECF6FD2ECED
:102E980009F0660E0B6E760E0C6EC10E0D6E0D2EC1
:102EA800FED70C2EFCD70B2EFAD792D407D00D2EB6
:102EB800FED70C2EFCD70B2EFAD78AD481A201D0CC
:102EC800D7D2010ED56F39EC00F0010ECC6F010E90
:102ED800CD6F1A0ECE6F040ECF6FD2EC09F0020E32
:102EE800CC6F010ECD6F050ECE6F040ECF6FD2ECF6
:102EF80009F0030ECC6F010ECD6FF00ECE6F030EEE
:102F0800CF6FD2EC09F0040ECC6F010ECD6F2E0EF0
:102F1800CE6F050ECF6FD2EC09F03BC6ACF63CC6BF
:102F2800ADF63DC6AEF63EC6AFF6100E046E270EE1
:102F3800056E000E066E076E3BC600F03CC601F03B
:102F48003DC602F03EC603F09CEC07F000C083F6D5
:102F580001C084F602C085F603C086F6020EB26F81
:102F6800080EB16F48EC0CF007C6ACF608C6ADF613
:102F780009C6AEF60AC6AFF6100E046E270E056E29
:102F8800000E066E076E07C600F008C601F009C6F7
:102F980002F00AC603F09CEC07F000C083F601C0FB
:102FA80084F602C085F603C086F6030EB26F080EDB
:102FB800B16F48EC0CF05EC6ACF65FC6ADF660C605
:102FC800AEF661C6AFF6100E046E270E056E000E43
:102FD800066E076E5EC600F05FC601F060C602F0BE
:102FE80061C603F09CEC07F000C083F601C084F6CC
:102FF80002C085F603C086F6040EB26F080EB16FE4
:1030080048EC0CF0050E046E000E056E066E076E99
:103018003BC600F03CC601F03DC602F03EC603F0D8
:103028009CEC07F000C0ACF601C0ADF602C0AEF6ED
:1030380003C0AFF6100E046E270E056E000E066E66
:10304800076E9CEC07F000C083F601C084F602C04E
:1030580085F603C086F6020EB26F0F0EB16F48EC0C
:103068000CF007C600F008C601F009C602F00AC64F
:1030780003F00332023201320032039E00C0ACF684
:1030880001C0ADF602C0AEF603C0AFF6100E046E76
:10309800270E056E000E066E076E9CEC07F000C04A
:1030A80083F601C084F602C085F603C086F6030ED7
:1030B800B26F0F0EB16F48EC0CF05EC600F05FC641
:1030C80001F060C602F061C603F0BFEC09F0B40E6F
:1030D800046EC80E056E360E066E7F0E076E27EC60
:1030E80002F0B4EC03F000C0ACF601C0ADF602C0CB
:1030F800AEF603C0AFF6100E046E270E056E000E76
:10310800066E076E9CEC07F000C083F601C084F6DB
:1031180002C085F603C086F6040E0601B26F0F0ED4
:10312800B16F48EC0CF0030E0B6E080E0C6E770EA8
:103138000D6E0D2EFED70C2EFCD70B2EFAD7010ED6
:10314800CC6F090ECD6F220ECE6F050ECF6FD2EC6D
:1031580009F0030E0B6E080E0C6E770E0D6E0D2E19
:10316800FED70C2EFCD70B2EFAD7010ECC6F090E0A
:10317800CD6F160ECE6F050ECF6FD2EC09F0030E91
:103188000B6E080E0C6E770E0D6E0D2EFED70C2EE4
:10319800FCD70B2EFAD781A2D2D7010ECC6F010E25
:1031A800CD6F6D0ECE6F050ECF6FD2EC09F0020E0B
:1031B800CC6F010ECD6F580ECE6F050ECF6FD2ECCF
:1031C80009F0030ECC6F010ECD6F430ECE6F050EC6
:1031D800CF6FD2EC09F0040ECC6F010ECD6FC20E8A
:1031E800CE6F040ECF6FD2EC09F02BC673F62CC647
:1031F80074F62DC675F62EC676F62FC677F630C647
:1032080078F631C679F632C67AF633C67BF634C616
:103218007CF635C67DF636C67EF637C67FF638C6E6
:1032280080F639C681F63AC682F6E0EC0EF0CD0E8D
:10323800726F4FEC04F0030E0B6E080E0C6E770ED7
:103248000D6E0D2EFED70C2EFCD70B2EFAD7030EC3
:103258000B6E080E0C6E770E0D6E0D2EFED70C2E13
:10326800FCD70B2EFAD7C90E0601726F4FEC04F08B
:10327800030E0B6E080E0C6E770E0D6E0D2EFED71C
:103288000C2EFCD70B2EFAD7C7EC0DF0C90E726FB7
:103298004FEC04F074EC0EF040EC11F0010ECC6F22
:1032A800010ECD6FAD0ECE6F040ECF6FD2EC09F0CC
:1032B800020ECC6F010ECD6F980ECE6F040ECF6F3D
:1032C800D2EC09F0030ECC6F010ECD6F010ECE6F5C
:1032D800050ECF6FD2EC09F0040ECC6F010ECD6F46
:1032E800EC0ECE6F040ECF6FD2EC09F00BC673F65E
:1032F8000CC674F60DC675F60EC676F60FC677F6CA
:1033080010C678F611C679F612C67AF613C67BF699
:1033180014C67CF615C67DF616C67EF617C67FF669
:1033280018C680F619C681F61AC682F6E0EC0EF0C9
:10333800CE0E726F4FEC04F0C90E0601726F4FEC9F
:1033480004F0030E0B6E080E0C6E770E0D6E0D2E2C
:10335800FED70C2EFCD70B2EFAD7C7EC0DF0C90EF2
:10336800726F4FEC04F074EC0EF040EC11F0050EA7
:103378000B6E0F0E0C6EF10E0D6E0D2EFED70C2E71
:10338800FCD70B2EFAD7010ECC6F010ECD6FD70EDE
:10339800CE6F040ECF6FD2EC09F0020ECC6F010E87
:1033A800CD6FC90ECE6F020ECF6FD2EC09F0030EAF
:1033B800CC6F010ECD6FB40ECE6F020ECF6FD2EC74
:1033C80009F0040ECC6F010ECD6F9F0ECE6F020E6A
:1033D800CF6FD2EC09F01BC673F61CC674F61DC677
:1033E80075F61EC676F61FC677F620C678F621C68D
:1033F80079F622C67AF623C67BF624C67CF625C65D
:103408007DF626C67EF627C67FF628C680F629C62C
:1034180081F62AC682F6E0EC0EF0CF0E726F4FEC02
:1034280004F0030E0B6E080E0C6E770E0D6E0D2E4B
:10343800FED70C2EFCD70B2EFAD7C90E0601726FD9
:103448004FEC04F0030E0B6E080E0C6E770E0D6E2B
:103458000D2EFED70C2EFCD70B2EFAD7C7EC0DF08D
:10346800C90E726F4FEC04F074EC0EF040EC11F0E2
:10347800010ECC6F010ECD6F080ECE6F030ECF6F0D
:10348800D2EC09F0020ECC6F010ECD6FF30ECE6FA9
:10349800020ECF6FD2EC09F0030ECC6F010ECD6F88
:1034A800DE0ECE6F020ECF6FD2EC09F0040ECC6F99
:1034B800010ECD6F670ECE6F020ECF6FD2EC09F002
:1034C800876B886B896B8A6B8B6B8C6B8D6B8E6B48
:1034D8008F6B906B916B926B936B946B956B966BF8
:1034E800976B986B996B9A6B9B6B9C6B9D6B9E6BA8
:1034F8009F6BA06BA16BA26BA36BA46BA56BA66B58
:103508004D6B4E6B4F6B506BA76BAB51000808E1CE
:10351800AA51000805E1A951000802E1A851A75DD8
:10352800D8B0ABD1050E046E000E056E066E076EA0
:103538003BC600F03CC601F03DC602F03EC603F0B3
:103548009CEC07F000C0B9F601C0BAF602C0BBF6A1
:1035580003C0BCF65EC600F05FC601F060C602F0AC
:1035680061C603F0BFEC09F0B40E046EC80E056E18
:10357800360E066E7F0E076E27EC02F000C0B5F619
:1035880001C0B6F602C0B7F603C0B8F6B9C600F077
:10359800BAC601F0BBC602F0BCC603F0BFEC09F026
:1035A800B5C604F0B6C605F0B7C606F0B8C607F04B
:1035B800B8EC11F000C0B5F601C0B6F602C0B7F617
:1035C80003C0B8F6B5C649F6B6C64AF6B7C64BF64E
:1035D800B8C64CF6A7C600F0000E016E0036009083
:1035E80001362B0E0024E96E060E0120EA6E1B0E32
:1035F8000024D96E060E0120DA6EDE50EE5C06015C
:10360800AC6FDE50EE58AD6F000EAE6FAF6FACC64C
:1036180000F0ADC601F0AEC602F0AFC603F0A00ED2
:10362800046E860E056E010E066E000E076E62ECC5
:103638000DF000C0ACF601C0ADF602C0AEF603C096
:10364800AFF6BFEC09F0B5C604F0B6C605F0B7C6CC
:1036580006F0B8C607F027EC02F0B4EC03F000C09F
:10366800ACF601C0ADF602C0AEF603C0AFF6A7C611
:1036780004F0000E056E04360490053604360490F6
:103688000536870E0424E16E060E0520E26E00C0A2
:10369800E6FF01C0E6FF02C0E6FF03C0E6FF060141
:1036A800AC514D27AD514E23AE514F23AF5150234E
:1036B800100E046E270E056E000E066E076EACC661
:1036C80000F0ADC601F0AEC602F0AFC603F09CEC48
:1036D80007F000C083F601C084F602C085F603C077
:1036E80086F6D40EE96E050EEA6EA751E926D8B023
:1036F800EA2AEECFCCF6970EE96E020EEA6EA751D3
:10370800E926D8B0EA2AEECFCDF60050300FCE6FBA
:1037180013EC0AF0E80E046E030E056E000E066E3A
:10372800076EACC600F0ADC601F0AEC602F0AFC67B
:1037380003F09CEC07F00A0E046E000E056E066E90
:10374800076E9CEC07F008C000F009C001F00AC041
:1037580002F00BC003F000C083F601C084F602C07B
:1037680085F603C086F60050300FD46F20EC02F0C7
:10377800640E046E000E056E066E076EACC600F091
:10378800ADC601F0AEC602F0AFC603F09CEC07F080
:103798000A0E046E000E056E066E076E9CEC07F0AE
:1037A80008C000F009C001F00AC002F00BC003F025
:1037B80000C083F601C084F602C085F603C086F611
:1037C8000050300FD46F20EC02F02E0ED46F20EC96
:1037D80002F00A0E046E000E056E066E076EACC689
:1037E80000F0ADC601F0AEC602F0AFC603F09CEC27
:1037F80007F00A0E046E000E056E066E076E9CEC4E
:1038080007F008C000F009C001F00AC002F00BC0C0
:1038180003F000C083F601C084F602C085F603C039
:1038280086F60050300FD46F20EC02F00A0E046EBA
:10383800000E056E066E076EACC600F0ADC601F050
:10384800AEC602F0AFC603F09CEC07F008C000F06B
:1038580009C001F00AC002F00BC003F000C083F6F3
:1038680001C084F602C085F603C086F60050300F0A
:10387800D46F20EC02F0A72B48D6D00E726F4FEC15
:1038880004F0030E0B6E080E0C6E770E0D6E0D2EE7
:10389800FED70C2EFCD70B2EFAD7C90E0601726F75
:1038A8004FEC04F0030E0B6E080E0C6E770E0D6EC7
:1038B8000D2EFED70C2EFCD70B2EFAD754EC0BF09E
:1038C800C90E726F4FEC04F0C90E0601726F4FEC0F
:1038D80004F0030E0B6E080E0C6E770E0D6E0D2E97
:1038E800FED70C2EFCD70B2EFAD774EC0EF0040E74
:1038F800CC6F0B0ECD6F910ECE6F020ECF6FD2EC48
:1039080009F04DC6ACF64EC6ADF64FC6AEF650C67B
:10391800AFF6100E046E270E056E000E066E076ECB
:103928004DC600F04EC601F04FC602F050C603F077
:103938009CEC07F000C083F601C084F602C085F64F
:1039480003C086F6040ECC6F100ECD6F0050300FFA
:10395800CE6F13EC0AF0E80E046E030E056E000E2F
:10396800066E076EACC600F0ADC601F0AEC602F03A
:10397800AFC603F09CEC07F00A0E046E000E056E4D
:10398800066E076E9CEC07F008C000F009C001F055
:103998000AC002F00BC003F000C083F601C084F631
:1039A80002C085F603C086F60050300FD46F20ECB5
:1039B80002F0640E046E000E056E066E076EACC64D
:1039C80000F0ADC601F0AEC602F0AFC603F09CEC45
:1039D80007F00A0E046E000E056E066E076E9CEC6C
:1039E80007F008C000F009C001F00AC002F00BC0DF
:1039F80003F000C083F601C084F602C085F603C058
:103A080086F60050300FD46F20EC02F02E0ED46FE3
:103A180020EC02F00A0E046E000E056E066E076EAC
:103A2800ACC600F0ADC601F0AEC602F0AFC603F0FA
:103A38009CEC07F00A0E046E000E056E066E076E0B
:103A48009CEC07F008C000F009C001F00AC002F0C1
:103A58000BC003F000C083F601C084F602C085F6EF
:103A680003C086F60050300FD46F20EC02F040EC13
:103A780011F0030E0B6E080E0C6E770E0D6E0D2EE8
:103A8800FED70C2EFCD70B2EFAD7010ECC6F010EE9
:103A9800CD6F7C0ECE6F020ECF6FD2EC09F0020E06
:103AA800CC6F010ECD6F870ECE6F030ECF6FD2ECA9
:103AB80009F0030ECC6F010ECD6F720ECE6F030EA0
:103AC800CF6FD2EC09F0040ECC6F010ECD6F5D0EF6
:103AD800CE6F030ECF6FD2EC09F0A76B070EA75D70
:103AE8003EE2A7C600F0000E016E003600900136D7
:103AF800003600900136870E0024D96E060E01208C
:103B0800DA6EDECF01F0DECF02F0DECF03F0DECFDB
:103B180004F004508A5D08E10350895D05E1025014
:103B2800885D02E10150875D18E2A7C600F0000E2B
:103B3800016E003600900136003600900136870E7F
:103B48000024E96E060E0120EA6EEECF87F6EECF6E
:103B580088F6EECF89F6EECF8AF6A72BBFD787C6B1
:103B68005AF688C65BF689C65CF68AC65DF6600EAC
:103B7800006EEA0E016E000E026E036E41C604F07E
:103B880042C605F043C606F044C607F062EC0DF0E5
:103B980000C056F601C057F602C058F603C059F6E1
:103BA80087C604F088C605F089C606F08AC607F0FD
:103BB8009CEC07F0BFEC09F000C0BDF601C0BEF6F2
:103BC80002C0BFF603C0C0F644EC0AF0B4EC03F040
:103BD80000C0ACF601C0ADF602C0AEF603C0AFF649
:103BE800640E046E000E056E066E076E9CEC07F000
:103BF80000C083F601C084F602C085F603C086F6CD
:103C0800010E0601CC6F100ECD6F0050300FCE6F35
:103C180013EC0AF00A0E046E000E056E066E076EAF
:103C2800ACC600F0ADC601F0AEC602F0AFC603F0F8
:103C38009CEC07F00A0E046E000E056E066E076E09
:103C48009CEC07F008C000F009C001F00AC002F0BF
:103C58000BC003F000C083F601C084F602C085F6ED
:103C680003C086F60050300FD46F20EC02F00A0E25
:103C7800046E000E056E066E076EACC600F0ADC68B
:103C880001F0AEC602F0AFC603F09CEC07F008C026
:103C980000F009C001F00AC002F00BC003F000C038
:103CA80083F601C084F602C085F603C086F600508C
:103CB800300FD46F20EC02F0030E0B6E080E0C6E62
:103CC800770E0D6E0D2EFED70C2EFCD70B2EFAD7C5
:103CD800040ECC6F010ECD6F9C0ECE6F030ECF6F0E
:103CE800D2EC09F0030E0B6E080E0C6E770E0D6EFB
:103CF8000D2EFED70C2EFCD70B2EFAD7040ECC6F48
:103D0800010ECD6F470ECE6F030ECF6FD2EC09F0C8
:103D1800030E0B6E080E0C6E770E0D6E0D2EFED771
:103D28000C2EFCD70B2EFAD781A2D2D7040ECC6F5B
:103D3800010ECD6F320ECE6F030ECF6FD2EC09F0AD
:103D4800030E0B6E080E0C6E770E0D6E0D2EFED741
:103D58000C2EFCD70B2EFAD7040ECC6F010ECD6FAC
:103D68001D0ECE6F030ECF6FD2EC09F0030E0B6E53
:103D7800080E0C6E770E0D6E0D2EFED70C2EFCD78E
:0E3D88000B2EFAD781B2D2D7ECEF13F0FFD793
:1043880010EE15F0F20E006E060E016E960EF66E29
:0E4398003D0EF76E000EF86E5AEC0DF012009E
:023D960020000B
:023D9800200009
:023D9A00200007
:103D9C005465737420696E2050726F67726573730B
:053DAC00202020200092
:103DB100466F72204661737420486F6C642053779C
:053DC100697463680055
:023DC6002000DB
:023DC8005300A6
:023DCA0068008F
:023DCC00730082
:023DCE002000D3
:023DD0002000D1
:023DD200570098
:103DD400312E3420204F686D204C6F61642069734C
:053DE400204F4E2000FD
:103DE900312E3420204F686D204C6F616420697337
:053DF900204F464600CA
:103DFE00312E34204F686D204C6F61642069732022
:053E0E00204F464600B4
:103E130035204F686D204C6F6164206973204F46D5
:053E23004620202000F4
:103E280035204F686D204C6F6164206973204F4EB8
:053E3800202020200005
:103E3D0032204F686D204C6F6164206973204F46AE
:053E4D004620202000CA
:103E520032204F686D204C6F6164206973204F4E91
:053E62002020202000DB
:103E6700446F2031303030204D61682042617474D6
:053E77002020202000C6
:103E7C005075736820537769746368202020202064
:053E8C002020202000B1
:103E910042617474657279204952204D657465726E
:053EA10020202020009C
:103EA600446F20313030204D6168204261747420A7
:083EB600202020202020200024
:103EBE00486F6C642F52656C65617365205377692A
:053ECE00746368200090
:103ED30042617474204D616820436170202020206A
:053EE30020202020005A
:103EE8005357204F6E205077722055702073657499
:053EF800204D6168008F
:103EFD003920566F6C74204261747420202020206C
:053F0D002020562000F9
:103F12003920566F6C742042617474203C20362E16
:053F2200375644430086
:103F27004368616E676520392056444320426174B7
:053F37007465727900C1
:103F3C002020202020202020202020202020202075
:053F4C002020202000F0
:103F51004E6F204261747465727920436F6E6E6595
:053F61006374656400BB
:023F66007500E4
:023F6800500007
:103F6A0042617474657279204952204D6574657294
:053F7A002020202000C2
:103F7F00486F6C642F52656C656173652053776968
:053F8F007463682000CE
:103F9400507573682053776974636820202020204B
:053FA400202020200098
:103FA90020202020202020576169742020202020F3
:053FB900202020200083
:103FBE004261747420436170202020202020303014
:053FCE00204D616800B8
:103FD300436865636B205465737420536574746917
:053FE3006E6773200071
:103FE800346972202020202020204D696C6C692DB6
:053FF8004F686D73002D
:103FFD004D61782043757272656E7420697320204F
:05400D0020202041000D
:06401200542D495220006C
:08401800040404040F0F0F0F54
:1040200023342020202020205620566F6C747348A3
:0540300069416D700004
:104035002333202020202020562020233720202015
:054045002020205600C0
:10404A002332202020202020562020233620202002
:05405A002020205600AB
:10405F0033697220202020202020203769722020F1
:05406F002020202000CC
:1040740032697220202020202020203669722020DE
:054084002020202000B7
:1040890031697220202020202020203569722020CB
:054099002020202000A2
:10409E002020202020202020202020202020202012
:0540AE0020202020008D
:1040B30020202052656C65617365205377697463B2
:0540C300682020200030
:1040C80020202020202020202020202020202020E8
:0540D800202020200063
:0140DD0038AA
:1040DE0020202020202020202020202020202020D2
:0540EE0020202020004D
:1040F300466F72737974682C4A756C69616E2C47CC
:05410300696C6573000A
:104108005265666572656E636520524347726F75C6
:0541180070732020007F
:10411D0020202020507573682053776974636820C0
:05412D0020202020000D
:10413200202020202020202020202020202020207D
:054142002020202000F8
:1041470052656420616E6420426C61636B2057691D
:0541570072652020004C
:10415C00426174744952206D657465722020202070
:05416C002020202000CE
:104171004D64416D70732020202020205620202086
:05418100202020410098
:104186004C6F416D70732020202020205620202067
:05419600202020410083
:10419B00526573756C747320202020202020202002
:0541AB0020202020008F
:1041B000426174744952206D65746572202020201C
:0541C00020202020007A
:1041C500506C6561736520436865636B204261745B
:0541D500746572790021
:1041DA00506C6561736520436865636B2042617446
:0541EA0074657279000C
:1041EF0020202020202020202020202020202020C0
:0541FF0020202020003B
:1042040052656420616E6420426C61636B2057695F
:0542140072652020008E
:104219002332202020202020562020233620202031
:054229002020205600DA
:10422E00233120202020202056202023352020201E
:05423E002020205600C5
:1042430023342020202020205620566F6C744C6F7E
:0542530077416D7000D1
:1042580023312020202020205620202335202020F4
:0542680020202056009B
:10426D0023342020202020205620566F6C744D6959
:05427D0064416D7000BA
:1042820023332020202020205620202337202020C6
:05429200202020560071
:0C429700202020202020202020202000BB
:0C42A300507573682053776974636800DD
:1042AF004869416D70732020202020205620202047
:0542BF00202020410059
:1042C4002333202020202020562020233720202084
:0542D40020202056002F
:1042D9002332202020202020562020233620202071
:0542E90020202056001A
:1042EE00233120202020202056202023352020205E
:0542FE00202020560005
:1043030042617474657279204952204D65746572F7
:05431300202020200025
:0243180056004D
:02431A0056004B
:06431C005620426174000E
:02432200560043
:06432400562020233600A4
:06432A005620202337009D
:0643300056202023370097
:0243360056002F
:07433800042040000000001A
:07433F000000000102040868
:034346002333001E
:034349002334001A
:06434C005620202335007D
:0343520023320013
:0843550001020304010203044C
:08435D00040404040F0F0F0F0C
:0343650023310001
:02436800200033
:02436A00200031
:02436C0020002F
:02436E007500D8
:024370007300D8
:024372006800E1
:02437400200027
:02437600200025
:02437800200023
:02437A007300CE
:02437C005200ED
:02437E006C00D1
:0243800020001B
:024382005000E9
:02438400200017
:02438600200015
:020000040030CA
:0E00000015087F7CFF8991FF0FC00FE00F40B5
:00000001FF
