:100000006FEF0FF00000000000EF00F000000000B4
:0A0010000000000000000000F3D71C
:0A001C0000000000000000001200C8
:100026001D0E0C6E910E0D6E0D2EFED70C2EFCD7EE
:020036001200B6
:0C003800420E0D6E0D2EFED700001200CF
:080044000AAE029E000E12003C
:10004C000601BDBF02D0829E01D0828EBDBD02D002
:10005C00829C01D0828CBDBB02D0829A01D0828A54
:10006C00BDB902D0829801D082883EB102D081867F
:10007C0001D081968184CCDF8194BDB702D0829E61
:10008C0001D0828EBDB502D0829C01D0828CBDB3D2
:10009C0002D0829A01D0828ABDB102D0829801D05E
:1000AC0082883EB102D0818601D081968184B0DFF6
:0E00BC0081943EA102D0B1DF01D0B8DF120066
:1000CA000B820BAE6FEF00F00368026801680068EC
:0800DA000A360232FF0E12008B
:0E00E200026A016A006A086A036A000E1200D0
:1000F0000B840BAE83EF00F0010E036E026A016AFF
:0A010000006A0A360232FF0E1200F8
:10010A000B800BAE91EF00F0026A0AAEFF0E026E90
:0C011A00016E006E0A360232FF0E120069
:100126000CB0D5EF00F00CA27BEF01F00E6A000ECA
:100136000264ECEF00F0F00E0214D8A4B7EF00F062
:10014600023A01380F0B02260138F00B016E003817
:100156000F0B01260038F00B006E08380F0B002637
:100166000838F00B086E0E84D89002BED0EF00F06F
:1001760008360036013602360E2A02BED0EF00F0EF
:1001860008360036013602360E2A02BED0EF00F0DF
:1001960008360036013602360E2A0E50036471EF19
:1001A60001F0035E0BBC08AE76EF01F0D880800E3E
:1001B60008640030000E002201220222D8A076EF49
:1001C60001F0023201320032034A7BEF01F076EF92
:1001D60001F001C002F000C001F008C000F0086A9A
:1001E600000E0E86026423EF01F0F00E0214D8A46E
:1001F6000BEF01F0023A01380F0B02260138F00B23
:10020600016E00380F0B01260038F00B006E0E84CD
:10021600D89002BED0EF00F00036013602360E2A24
:1002260002BED0EF00F00036013602360E2A02BEBC
:10023600D0EF00F00036013602360E2AD0EF00F07D
:1002460001C002F000C001F0006A000E0E960E8892
:10025600026450EF01F0F00E0214D8A43BEF01F057
:10026600023A01380F0B02260138F00B016E0E849C
:10027600D89002BED0EF00F0013602360E2A02BE3A
:10028600D0EF00F0013602360E2A02BED0EF00F0A3
:10029600013602360E2AD0EF00F001C002F0016AE4
:1002A600000E0E86026480EF01F0F00E0214D8A450
:1002B6005FEF01F0023A0E84D89002BED0EF00F054
:1002C60002360E2A02BED0EF00F002360E2A02BE19
:1002D600D0EF00F002360E2AD0EF00F0010E0C6EC1
:1002E60004DF83EF01F0020E0C6EA9DE83EF01F04E
:1002F600040E0C6EE7DE83EF01F0080E0C6EEEDEE8
:020306001200E3
:0A0308001D0E0D6E0D2EFED7120023
:0E03120006013E91BCC6BDF698DE3E8112008B
:100320000134083609360450085E0550D8A0053C53
:10033000095E003601360F0E0C6E013408360936A0
:10034000045000A006D0085E0550D8A0053C095E08
:1003500005D008260550D8B0053C092600360136E0
:100360000C2EEBD700B006D0045008260550D8B0AC
:08037000053C09260000120003
:100378000A6A0350D8A40A800750D8A40A820A50EF
:10038800D8B41FEF02F0030AD8B4D8EF01F00AB0CE
:10039800D3EF01F006AE1DEF02F01BEF02F002AE44
:1003A8001BEF02F01DEF02F00250800B0A6E029E56
:1003B8000650800B069E0A18D8B4E9EF01F00A50DF
:1003C800D8B41BEF02F01DEF02F00750035CD8B45D
:1003D800F3EF01F0D8A00FEF02F015EF02F006508E
:1003E800025CD8B4FDEF01F0D8A00FEF02F015EFD2
:1003F80002F00550015CD8B407EF02F0D8A00FEF67
:1004080002F015EF02F00450005CD8B41FEF02F0C0
:10041800D8B015EF02F00A52D8B41DEF02F01BEF66
:1004280002F00A52D8B41BEF02F01DEF02F0D88098
:0E0438001200D8901200D880D8841200120052
:080446000B6A0B86FF0E120089
:10044E000B6A0C6A0A6A086A0350D8B4AFEF02F05E
:10045E00028E9E0E035E03BE3AEF02F0D8B43AEF60
:10046E0002F09FEF02F0036C080E035CD8A06CEF55
:10047E0002F0036E083600C008F001C000F002C0A2
:10048E0001F0026A080E035CD8A06CEF02F0036E56
:10049E00083600C008F001C000F0016A080E035CC7
:1004AE00D8A06CEF02F0036E083600C008F0006AA8
:1004BE00080E035CD8A06CEF02F0036E0836086AD3
:1004CE000350D8A4D89078EF02F00350D8B478EF48
:1004DE0002F0D8900232013200320832032E70EF51
:1004EE0002F00BBC08A089EF02F0D8A089EF02F051
:1004FE00082AD8B4002AD8B4012AD8B4022A02BED7
:10050E00B3EF02F00AAEAFEF02F0021E011E001EA4
:10051E00081E082AD8B4002AD8B4012AD8B4022A50
:10052E00AFEF02F0026A016A006A086AAFEF02F0EA
:10053E000B800BAEB8EF02F0026A0AAEB8EF02F013
:10054E00026E016E006E086E0A360232B8EF02F0CD
:10055E00000E0C6AB9EF02F0010E0C6ECFDDB9EF92
:10056E0002F0FF0E0250036E0150026E0050016E3B
:06057E000850006E12009F
:10058400086A096A000E0762036447EF03F0025029
:1005940006180A6E075003267E0ED8A0D8EF02F084
:1005A400035ED8B04BEF03F0DCEF02F0035ED8A09B
:1005B4004FEF03F0028E068E02C00EF001C00BF066
:1005C40000C00DF000500402F4CF0CF001500502FD
:1005D400F4CF00F0F3CF08F00402F3500C26F450EB
:1005E4000822000E00220D500502F3500C26F45090
:1005F4000822000E002202500402F3500826F45090
:10060400002202500502016A000E0122F350002666
:10061400F45001220D500602F3500826F450002233
:10062400026A000E012202220B500602F350002639
:10063400F4500122000E02220E500602F35001264D
:10064400F450022202BE2FEF03F0083600360136C2
:1006540002360306D8B44FEF03F042EF03F0D8801C
:10066400800E08640030000E002201220222D8A06D
:1006740042EF03F0023201320032034A4BEF03F03F
:100684000AAE029E000E51EF03F0010E28DD51EF79
:1006940003F0020E18DD51EF03F0040E27DD120003
:1006A4000450000A08E10550000A05E1FF0E006E3F
:1006B4007F0E016E57D00D6A096A086A0150001056
:1006C400D8B4000C015005180A6E0ABE0D1E0B6A40
:1006D40005AE05D0041E051E042AD8B4052A01AEB1
:1006E40005D0001E011E002AD8B4012A01500510AD
:1006F4000A6E0ABE10D012DE0BB020D00DAE000C74
:10070400001E011E002AD8B4012A081E091E082A48
:10071400D8B4092A000C05AE0DD001BE07D0015093
:10072400096E0050086E016A006AE8D7016A006A1F
:10073400002A000C011E001E0B2ADDD7082AD8B49B
:10074400092A0450085CD8A4D9D70550095CD8A458
:10075400D5D7096A086A002AD8B4012A01AECED7CF
:060764000000FF0C120072
:10076A00B40E0601BA6F060EBB6F030EBA25D96E18
:10077A00000EBB21DA6EDE50B825016E000EB921DB
:10078A00026E01C0B8F602C0B9F6800E0218006EF9
:10079A00800E005C02E1000E015C05E2006A016A5B
:1007AA00026A036A3ED0800E006E800EB919005CA0
:1007BA0002E1B851FF0825E2046A056A066A076A77
:1007CA00B4C600F0B5C601F0B6C602F0B7C603F06B
:1007DA00CEDD010ED8B0000E006E005209E0FF0E09
:1007EA00006EFF0E016EFF0E026EFF0E036E19D031
:1007FA00FF0E006EFF0E016E7F0E026EFF0E036E7D
:10080A0010D0030EBA25E16E000EBB21E26EB8C607
:10081A00E6FFB4C600F0B5C601F0B6C602F0B7C628
:04082A0003F01200C5
:10082E0003500718D8A42BEF04F002500618D8A4D2
:10083E002BEF04F001500518D8A42BEF04F0005054
:0E084E000418D8B4D8841200D89412001200F6
:10085C00025006180E6E086A096A0B6A0350076488
:10086C0021EF05F006500A6E068E028E03500B6EB9
:10087C000750036E000E0B6471EF04F00B50075E13
:10088C00D8B412EF05F0070E0764E0EF04F0075E32
:10089C0000C008F001C000F002C001F0026A074E6F
:1008AC0012EF05F00764B5EF04F0075E00C008F026
:1008BC0001C000F0016A074E12EF05F0076493EFD8
:1008CC0004F0075E00C008F0006A074E12EF05F056
:1008DC0007647AEF04F00AC002F005C001F004C00E
:1008EC0000F0086A3EEF06F0030E076485EF04F093
:1008FC00075E08380F0B086E074E12EF05F0D89004
:10090C000832074E12EF05F0D8900832074E12EF5E
:10091C0005F0D890083212EF05F0030E0764A4EF2F
:10092C0004F0075E08380F0B086E0038F00B082631
:10093C0000380F0B006E074E12EF05F0D890003206
:10094C000832074E12EF05F0D89000320832074EED
:10095C0012EF05F0D8900032083212EF05F0030EBA
:10096C000764CCEF04F0075E08380F0B086E0038F4
:10097C00F00B082600380F0B006E0138F00B002628
:10098C0001380F0B016E074E12EF05F0D8900132B3
:10099C0000320832074E12EF05F0D89001320032C7
:1009AC000832074E12EF05F0D890013200320832AF
:1009BC0012EF05F0030E0764FDEF04F0075E083834
:1009CC000F0B086E0038F00B082600380F0B006E6A
:1009DC000138F00B002601380F0B016E0238F00BBA
:1009EC00012602380F0B026E074E12EF05F0D8905D
:1009FC000232013200320832074E12EF05F0D89065
:100A0C000232013200320832074E12EF05F0D89054
:100A1C000232013200320832096A000E0EAE06EFC5
:100A2C0006F0081E001E011E021E082A00220122CA
:100A3C00022206EF06F00750D8A427EF05F03EEF90
:100A4C0006F0096A02C00AF0028E068E0750035C9B
:100A5C00076ED8B4F9EF05F0070E0764C7EF05F081
:100A6C00075E0450096E0550046E0650056E066A4A
:100A7C00074EF9EF05F0070E07649CEF05F0075ED3
:100A8C000450096E0550046E056A074EF9EF05F027
:100A9C00070E07647AEF05F0075E0450096E046ACE
:100AAC00074EF9EF05F0070E076461EF05F00AC079
:100ABC0002F03EEF06F0030E07646CEF05F0075EE4
:100ACC0009380F0B096E074EF9EF05F0D890093273
:100ADC00074EF9EF05F0D8900932074EF9EF05F003
:100AEC00D8900932F9EF05F0030E07648BEF05F08F
:100AFC00075E09380F0B096E0438F00B0926043811
:100B0C000F0B046E074EF9EF05F0D8900432093242
:100B1C00074EF9EF05F0D89004320932074EF9EF81
:100B2C0005F0D89004320932F9EF05F0030E076492
:100B3C00B3EF05F0075E09380F0B096E0438F00BA4
:100B4C00092604380F0B046E0538F00B0426053803
:100B5C000F0B056E074EF9EF05F0D89005320432F5
:100B6C000932074EF9EF05F0D890053204320932FC
:100B7C00074EF9EF05F0D890053204320932F9EF3F
:100B8C0005F0030E0764E4EF05F0075E09380F0B60
:100B9C00096E0438F00B092604380F0B046E053867
:100BAC00F00B042605380F0B056E0638F00B0526E6
:100BBC0006380F0B066E074EF9EF05F0D89006328B
:100BCC00053204320932074EF9EF05F0D89006329F
:100BDC00053204320932074EF9EF05F0D89006328F
:100BEC00053204320932086A000E0EAE06EF06F02A
:100BFC00091E041E051E061E092A042205220622B1
:100C0C0009500826045000220550012206500222E9
:100C1C000EBE1DEF06F0D8A02CEF06F0023201320A
:100C2C0000320832033E2CEF06F038EF06F0D8B055
:100C3C0032EF06F0000E081E001E011E021E082ACE
:100C4C000022012202220A7E32EF06F0010E0C6E07
:100C5C0093EC00F040EF06F0020E0C6E93EC00F0FB
:100C6C0040EF06F0040E0C6E65EC00F040EF06F061
:060C7C00000E0C6E1200D8
:100C82000450000A12E10550000A0FE10650000A62
:100C92000CE10750000A09E1FF0E006EFF0E016E23
:100CA2007F0E026EFF0E036EA8D0086A096A075013
:100CB200D8B4ECEF06F00350D8B4F1EF06F00250CE
:100CC20006180A6E028E068E0E6A02C008F001C075
:100CD2000CF000C00DF004500D5E0550D8A0053C8C
:100CE2000C5E0650D8A0063C085E086A0C6A0D6AC3
:100CF200D8A083EF06F0D8900232013200320832D7
:100D0200010E0E6E0750035ED8A090EF06F07E0E25
:100D12000E240326D8B0F6EF06F096EF06F07E0E0C
:100D22000E240326D8A0FBEF06F0180E0B6E0D362C
:100D32000C3608360036013602360E360450005E96
:100D42000550D8A0053C015E0650D8A0063C025EC4
:100D520006340E120EA0B1EF06F00D80BCEF06F0C5
:100D6200045000260550D8B0053C01260650D8B0E4
:100D7200062802260D900B2E98EF06F0E2EF06F001
:100D8200D8900036013602360E360450005E055009
:100D9200D8A0053C015E0650D8A0063C025E06348F
:100DA2000E10010B0D26D8B00C2AD8B4082AD8A4EC
:100DB200E2EF06F008320C320D32032AD8B4F6EF15
:100DC20006F00AAE089E0850026E0C50016E0D50DD
:100DD200006EFEEF06F0010E23EC02F0FEEF06F0CD
:100DE200020E71EC00F0FEEF06F0040E65EC00F06E
:0C0DF200FEEF06F0080E78EC00F0120096
:100DFE00B40E046E060E056E030E0424E96E000E8C
:100E0E000520EA6E7E0EEE5C006E016A000E015A3F
:100E1E00B8C6E1FFB9C6E2FF00C0E6FF01C0E6FFBB
:100E2E00030E0424E16E000E0520E26E7E0EE66EC9
:100E3E00B4C600F0B5C601F0B6C602F0B7C603F0F0
:020E4E00120090
:100E5000840E06013F6F0E0E406FB40E416F060EFA
:100E6000426FC26A0301211D006E0050C11621515C
:100E70000601B415006E0050C1120F0EC012C08ED4
:040E8000C28012001A
:100E8400830EC216B4C600F00036009000360090FF
:100E94000050C21284EC01F0C282C2A201D0FDD77C
:100EA400C4CF01F0006A00C0B5F601C0B6F6C35065
:100EB4000012000E011200C0B5F601C0B6F6000E15
:100EC4000014026E0150800B036E000E031802E141
:100ED400000E021803E00601B56BB66BB5C600F050
:060EE400B6C601F0120089
:100EEA000B6A0A6A096A086A0E6A033408360450E9
:100EFA00085E0550D8A0053C095E0650D8A0063CFD
:100F0A000A5E0750D8A0073C0B5EE86AD8A0010E1B
:100F1A000E5E0336070E0C6E0334083609360A369F
:100F2A000B360E36045003A012D0085E0550D8A026
:100F3A00053C095E0650D8A0063C0A5E0750D8A0B8
:100F4A00073C0B5EE86AD8A0010E0E5E11D0082697
:100F5A000550D8B0053C09260650D8B0063C0A26EA
:100F6A000750D8B0073C0B26E86AD8B0010E0E2607
:100F7A0003360C2ED1D70234083609360A360B3618
:100F8A000E36045003A012D0085E0550D8A0053CC6
:100F9A00095E0650D8A0063C0A5E0750D8A0073C56
:100FAA000B5EE86AD8A0010E0E5E11D00826055025
:100FBA00D8B0053C09260650D8B0063C0A26075088
:100FCA00D8B0073C0B26E86AD8B0010E0E260236C6
:100FDA00070E0C6E0234083609360A360B360E3600
:100FEA00045002A012D0085E0550D8A0053C095E44
:100FFA000650D8A0063C0A5E0750D8A0073C0B5EF4
:10100A00E86AD8A0010E0E5E11D008260550D8B0A5
:10101A00053C09260650D8B0063C0A260750D8B027
:10102A00073C0B26E86AD8B0010E0E2602360C2EB3
:10103A00D1D70134083609360A360B360E36045033
:10104A0002A012D0085E0550D8A0053C095E0650E1
:10105A00D8A0063C0A5E0750D8A0073C0B5EE86A97
:10106A00D8A0010E0E5E11D008260550D8B0053C56
:10107A0009260650D8B0063C0A260750D8B0073CC5
:10108A000B26E86AD8B0010E0E260136070E0C6E42
:10109A000134083609360A360B360E36045001A0DA
:1010AA0012D0085E0550D8A0053C095E0650D8A0AB
:1010BA00063C0A5E0750D8A0073C0B5EE86AD8A037
:1010CA00010E0E5E11D008260550D8B0053C09263F
:1010DA000650D8B0063C0A260750D8B0073C0B2663
:1010EA00E86AD8B0010E0E2601360C2ED1D700348C
:1010FA00083609360A360B360E36045001A012D0CD
:10110A00085E0550D8A0053C095E0650D8A0063CEA
:10111A000A5E0750D8A0073C0B5EE86AD8A0010E09
:10112A000E5E11D008260550D8B0053C0926065097
:10113A00D8B0063C0A260750D8B0073C0B26E86A06
:10114A00D8B0010E0E260036070E0C6E0034083693
:10115A0009360A360B360E36045000A012D0085E45
:10116A000550D8A0053C095E0650D8A0063C0A5E88
:10117A000750D8A0073C0B5EE86AD8A0010E0E5EA5
:10118A0011D008260550D8B0053C09260650D8B01B
:10119A00063C0A260750D8B0073C0B26E86AD8B0A6
:1011AA00010E0E2600360C2ED1D700B00ED00450F8
:1011BA0008260550D8B0053C09260650D8B0063C8A
:0C11CA000A260750D8B0073C0B26120084
:1011D60010D0800E0601B46F1AD0C00EB46F17D0AF
:1011E600940EB46F14D0D40EB46F11D0800EB46FB9
:1011F6000ED00601B451010AECE0B451020AEDE04A
:10120600B451030AEDE0B451040AEDE0EFD7B50599
:10121600006EB451002600C0B4F600C0BDF626EC40
:1012260000F03E91B86BB851B625E96E000EB721B5
:10123600EA6EEE520CE0B851B625E96E000EB72103
:10124600EA6EEECFBCF689EC01F0B82BECD73E8106
:02125600120084
:1012580010D0800E0601B46F1AD0C00EB46F17D02C
:10126800940EB46F14D0D40EB46F11D0800EB46F36
:101278000ED00601B451010AECE0B451020AEDE0C7
:10128800B451030AEDE0B451040AEDE0EFD7B50517
:10129800006EB451002600C0B4F63E8100C0BDF611
:1012A80026EC00F03E91B6C6BDF626EC00F03E8175
:0212B800120022
:1012BA000050086E0150006E0250016E0350026E1B
:1012CA00036A0B6A0C6A9E0E036E0A6A020E0C6EA1
:0612DA0093EC00F012008D
:1012E000100E046E270E056E000E066E076E81C688
:1012F00000F082C601F083C602F084C603F0F5DD7B
:1013000000C07DF601C07EF602C07FF603C080F605
:1013100085C6B4F677C6B5F60050300F0601B66F35
:101320009BDFE80E046E030E056E000E066E076E60
:1013300081C600F082C601F083C602F084C603F0C5
:10134000D4DD0A0E046E000E056E066E076ECDDD4E
:1013500008C000F009C001F00AC002F00BC003F0A1
:1013600000C07DF601C07EF602C07FF603C080F6A5
:101370000050300FBC6F89EC01F02E0EBC6F89EC71
:1013800001F0640E046E000E056E066E076E81C6D7
:1013900000F082C601F083C602F084C603F0A5DD2A
:1013A0000A0E046E000E056E066E076E9EDD08C006
:1013B00000F009C001F00AC002F00BC003F000C049
:1013C0007DF601C07EF602C07FF603C080F60050B5
:1013D000300FBC6F89EC01F00A0E046E000E056E32
:1013E000066E076E81C600F082C601F083C602F069
:1013F00084C603F07ADD0A0E046E000E056E066EDA
:10140000076E73DD08C000F009C001F00AC002F0E9
:101410000BC003F000C07DF601C07EF602C07FF66F
:1014200003C080F60050300FBC6F89EC01F0120051
:101430007FA202D00000FCD77F9CA6C675FFA5C680
:1014400074FFA7C673FF7F9E7F84F2CF00F0F29EE9
:10145000550E7E6EAA0E7E6E7F8200BE02D0F29E78
:0814600001D0F28E7F9412000E
:10146800939493969498949A949C949E819481963C
:10147800829E829C829A829813EC00F013EC00F012
:1014880013EC00F0828A828881840EEC00F081944B
:1014980013EC00F081840EEC00F0819413EC00F062
:1014A80081840EEC00F0819413EC00F08298818422
:1014B8000EEC00F0819413EC00F081840EEC00F047
:1014C8008194829A828E81840EEC00F0819413ECD0
:1014D80000F0829E828881840EEC00F081948298CC
:1014E80081840EEC00F0819413EC00F081840EEC02
:1014F80000F08194828881840EEC00F0819413ECD2
:1015080000F0829881840EEC00F08194828E828CA7
:10151800828A828881840EEC00F0819413EC00F0BA
:0615280006013E811200E5
:10152E000900F5CFE6FF0006FBE10106F9E1120026
:10153E00220E0C6E086A096A0A6A0B6A0C06D8B487
:10154E001FD0D8900B320A320932083203320232DF
:10155E0001320032D8A0F2D70C06D8B409D004500C
:10156E0008260550092206500A2207500B22EAD7F8
:10157E00045008260550092206500A2207500B2255
:02158E00120049
:10159000C26A0301211D006E0050C1160F0EC01259
:1015A000C08EA5C600F000360090003600900050B6
:1015B000C212C28084EC01F0C282C2A201D0FDD767
:1015C000C4CF01F0006A00C0A6F601C0A7F6C35060
:1015D0000012000E011200C0A6F601C0A7F6C290CC
:1015E000000E0014026E0150800B036E000E0318F3
:1015F00002E1000E021803E00601A66BA76BA6C667
:0816000000F0A7C601F0120082
:10160800A5C604F0A6C605F0A7C606F0A8C607F04A
:10161800006A016A026A036ABCEC01F0000ED8B0E5
:10162800010E006E005205E0006A016A026A036A50
:10163800F9D0A5C6A9F6A6C6AAF6A7C6ABF6A8C647
:10164800ACF6000E046E000E056E000E066E7F0EE0
:10165800076EA5C600F0A6C601F0A7C602F0A8C688
:1016680003F0BCEC01F0010ED8B0000E006E005281
:101678001AE0A9C604F0AAC605F0ABC606F0ACC6C7
:1016880007F0000E006E000E016E000E026E7F0E57
:10169800036E41EC06F000C0A9F601C0AAF602C02C
:1016A800ABF603C0ACF6A9C6B4F6AAC6B5F6ABC687
:1016B800B6F6ACC6B7F6B20E0601B86F060EB96F2D
:1016C800FFEC06F000C0A9F601C0AAF602C0ABF60E
:1016D80003C0ACF600C0B4F601C0B5F602C0B6F659
:1016E80003C0B7F6020E046E000E056EB2C600F017
:1016F800B3C601F052EC03F000C0B8F601C0B9F669
:10170800B5EC03F000C0A9F601C0AAF602C0ABF61A
:1017180003C0ACF6000E046E000E056E000E066ED9
:101728007F0E076EA5C600F0A6C601F0A7C602F098
:10173800A8C603F0BCEC01F0010ED8B0000E006E94
:1017480000521AE0A9C604F0AAC605F0ABC606F016
:10175800ACC607F0000E006E000E016E000E026EA1
:101768007F0E036E41EC06F000C0A9F601C0AAF690
:1017780002C0ABF603C0ACF6140E0601B16FA9C6E1
:1017880004F0AAC605F0ABC606F0ACC607F0A5C6BD
:1017980000F0A6C601F0A7C602F0A8C603F041EC07
:1017A80006F0A9C604F0AAC605F0ABC606F0ACC69A
:1017B80007F02EEC04F0000E046E000E056E000E0D
:1017C800066E800E076E41EC06F000C0ADF601C053
:1017D800AEF602C0AFF603C0B0F6A9C604F0AAC6BA
:1017E80005F0ABC606F0ACC607F017EC04F0010E26
:1017F800D8A4000E006E005201E00CD0ADC6A9F6C8
:10180800AEC6AAF6AFC6ABF6B0C6ACF60601B107CF
:10181800B153B5E1A9C600F0AAC601F0ABC602F003
:06182800ACC603F0120043
:10182E00010E0601B46F0A0EB56FD30EB66F050E1C
:10183E00B76FCADC020EB46F0A0EB56FCF0EB66F5D
:10184E00050EB76FC1DC030EB46F0A0EB56FD10E65
:10185E00B66F050EB76FB8DC040EB46F0A0EB56F17
:10186E00F00EB66F050EB76FAFDC030E0B6E080EE3
:10187E000C6E770E0D6E0D2EFED70C2EFCD70B2E8A
:10188E00FAD7010EB46F0A0EB56FEE0EB66F050ED7
:10189E00B76F9ADC020EB46F0A0EB56FEA0EB66F12
:1018AE00050EB76F91DC030EB46F0A0EB56FEC0E1A
:1018BE00B66F050EB76F88DC040EB46F0A0EB56FE7
:1018CE004F0EB66F050EB76F7FDC030E0B6E080E54
:1018DE000C6E770E0D6E0D2EFED70C2EFCD70B2E2A
:1018EE00FAD781A29DD7030E0B6E080E0C6E770EE3
:1018FE000D6E0D2EFED70C2EFCD70B2EFAD7120026
:08190E00067E2EEC04F012002D
:10191600100E0601B46F28EC07F0866B876B886B98
:10192600896B8A6B8B6B8C6B8D6B8E6B8F6B906BF5
:10193600916B926B936B946B956B796B7A6B7B6BFC
:101946007C6B786B070E785DD8B09FD00A0E792530
:10195600E96E050E7A21EA6EEECF80FF1A0E0D6E45
:101966000D2EFED70000110E7925E96E050E7A219F
:10197600EA6EEECF82FFD00E0C6EC90E0D6E0D2EE6
:10198600FED70C2EFCD7000000006B6B6C6B6D6BEA
:101996006E6B6F6B706B716B726B000E725D08E134
:1019A600000E715D05E1000E705D02E10A0E6F5DCD
:1019B6001AE2B46B42EC07F000C073F601C074F68D
:1019C600000E0601756F766F73516B2774516C2389
:1019D60075516D2376516E23010E6F27000E70230D
:1019E60071237223DAD76BC600F06CC601F06DC6A0
:1019F60002F06EC603F05EDCDC0E046E680E056E49
:101A0600000E066E7C0E076EC2EC02F027EC02F0AA
:101A160000C099F601C09AF602C09BF603C09CF678
:101A2600000E035C08E1000E025C05E1000E015C9D
:101A360002E1640E005C10E279C600F07AC601F09D
:101A4600003600900136860E0024E16E060E012057
:101A5600E26EE66AE66A17D079C600F07AC601F049
:101A6600003600900136860E0024E16E060E012037
:101A7600E26E99C6E6FF9AC6E6FF010E7927000ECA
:101A86007A237B237C23782B5DD7000E875D02E1CA
:101A9600C80E865D0DE2886B896B8A6B8B6B8C6BCF
:101AA6008D6B8E6B8F6B906B916B926B936B00D083
:101AB600816A0B0E0C6E620E0D6E0D2EFED70C2E6D
:101AC600FCD70000806A0B0E0C6E620E0D6E0D2E9A
:0C1AD600FED70C2EFCD70000826A120024
:101AE200010E0601B46F010EB56F370EB66F050E0B
:101AF200B76FEBEC08F0020EB46F010EB56F1E0E5D
:101B0200B66F050EB76FEBEC08F0030EB46F010E63
:101B1200B56F210EB66F050EB76FEBEC08F0040E31
:101B2200B46F010EB56F240EB66F050EB76FEBECF6
:101B320008F0010EB46F090EB56F180EB66F050EE0
:101B4200B76FEBEC08F0020EB46F090EB56FF00E32
:101B5200B66F040EB76FEBEC08F0030EB46F090E0C
:101B6200B56FF60EB66F040EB76FEBEC08F0040E0D
:101B7200B46F090EB56FFC0EB66F040EB76FEBECC7
:101B820008F0010EB46F140EB56FEA0EB66F040EB4
:101B9200B76FEBEC08F0020EB46F140EB56FEC0EDB
:101BA200B66F040EB76FEBEC08F0030EB46F140EB1
:101BB200B56FEE0EB66F040EB76FEBEC08F0040EC5
:101BC200B46F090EB56F020EB66F050EB76FEBEC70
:101BD20008F0040EB46F140EB56F080EB66F050E42
:081BE200B76FEBEC08F01200F4
:101BEA007F9CA6C675FFA5C674FF7F9E7F8073CFB4
:041BFA0000F01200E5
:101BFE00010E0601B46F0A0EB56F260EB66F030EF8
:101C0E00B76FEBEC08F0020EB46F0A0EB56F240E30
:101C1E00B66F030EB76FEBEC08F0030EB46F0A0E3F
:101C2E00B56F280EB66F030EB76FEBEC08F0040E0F
:101C3E00B46F0A0EB56F2C0EB66F030EB76FEBECCA
:101C4E0008F0030E0B6E080E0C6E770E0D6E0D2E39
:101C5E00FED70C2EFCD70B2EFAD7010EB46F0A0E40
:101C6E00B56F2A0EB66F030EB76FEBEC08F0020ECF
:101C7E00B46F0A0EB56F220EB66F030EB76FEBEC94
:101C8E0008F0030EB46F0A0EB56F1F0EB66F030E7B
:101C9E00B76FEBEC08F0040EB46F0A0EB56F1D0EA5
:101CAE00B66F030EB76FEBEC08F0030E0B6E080E5B
:101CBE000C6E770E0D6E0D2EFED70C2EFCD70B2E46
:081CCE00FAD781B295D712008C
:101CD6000601786B7C51000808E17B51000805E19C
:101CE6007A51000802E17951785DD8B0E7D078C61C
:101CF60000F0000E016E003600900136860E0024BC
:101D0600E96E060E0120EA6EEECF81F6EECF82F680
:101D1600000E836F846F000E836F846F270EE96E4B
:101D2600050EEA6E7851E926D8B0EA2AEECFB4F667
:101D36002F0EE96E050EEA6E7851E926D8B0EA2A2A
:101D4600EECFB5F67D51300FB66F2CEC09F0E80EEC
:101D5600046E030E056E000E066E076E81C600F059
:101D660082C601F083C602F084C603F075EC07F064
:101D760000C07DF601C07EF602C07FF603C080F685
:101D8600270EE96E050EEA6E7851E926D8B0EA2AE2
:101D9600EECFB4F62F0EE96E050EEA6E7851E926FF
:101DA600D8B0EA2AEECFB5F60050300FB66F2CEC5D
:101DB60009F02E0EBC6F89EC01F0640E046E000E65
:101DC600056E066E076E81C600F082C601F083C6F8
:101DD60002F084C603F075EC07F00A0E046E000EDE
:101DE600056E066E076E75EC07F008C000F009C0B8
:101DF60001F00AC002F00BC003F000C07DF601C07E
:101E06007EF602C07FF603C080F60050300FBC6F2E
:101E160089EC01F00A0E046E000E056E066E076E62
:101E260081C600F082C601F083C602F084C603F0C4
:101E360075EC07F00A0E046E000E056E066E076E50
:101E460075EC07F008C000F009C001F00AC002F006
:101E56000BC003F000C07DF601C07EF602C07FF61F
:101E660003C080F60050300FBC6F89EC01F00A0EFB
:101E7600046E000E056E066E076E81C600F082C601
:101E860001F083C602F084C603F075EC07F008C0C3
:101E960000F009C001F00AC002F00BC003F000C058
:101EA6007DF601C07EF602C07FF603C080F60050C4
:101EB600300FBC6F89EC01F0782B0CD7020E0B6E3D
:101EC600040E0C6EBA0E0D6E0D2EFED70C2EFCD720
:081ED6000B2EFAD700001200E8
:101EDE0088EC1EF0010E0F015D6F5C6B100EC16E73
:101EEE000601976B0B0E926E030E936E946A806AC8
:101EFE00816A826A34EC0AF0010EBD6F26EC00F0A6
:101F0E000C0EBD6F26EC00F0010EA56FC8EC0AF0AA
:101F1E0000C081F601C082F6000E0601836F846F49
:101F2E0081C600F082C601F083C602F084C603F0BB
:101F3E00100E046E270E056E000E066E076E9FECD9
:101F4E000AF000C081F601C082F602C083F603C01B
:101F5E0084F6500E046E0A0E056E000E066E076EA7
:101F6E0075EC07F000C081F601C082F602C083F660
:101F7E0003C084F6030E856F0E0E776F010EB46FDD
:101F8E00010EB56F900EB66F050EB76FEBEC08F045
:101F9E00020EB46F010EB56F7B0EB66F050EB76FE6
:101FAE00EBEC08F0030EB46F010EB56F660EB66F54
:101FBE00050EB76FEBEC08F0040EB46F010EB56FA3
:101FCE00BA0EB66F050EB76FEBEC08F070EC09F0B9
:101FDE00290E0B6E960E0C6E7F0E0D6E0D2EFED70D
:101FEE000C2EFCD70B2EFAD7000E845D08E1000EE6
:101FFE00835D05E11A0E825D02E12C0E815D27E202
:10200E00010EBD6F26EC00F0050E0B6E0F0E0C6E62
:10201E00F10E0D6E0D2EFED70C2EFCD70B2EFAD711
:10202E00040EB46F010EB56FA50EB66F050EB76F29
:10203E00EBEC08F0050E0B6E0F0E0C6EF10E0D6E26
:10204E000D2EFED70C2EFCD70B2EFAD7D9D734EC8B
:10205E000AF0010EBD6F26EC00F00C0EBD6F26ECE3
:10206E0000F0806A816A826A986B966B010EB46F7B
:10207E00010EB56F3A0EB66F050EB76FEBEC08F0AA
:10208E00020EB46F010EB56F510EB66F050EB76F1F
:10209E00EBEC08F0030EB46F010EB56FD50EB66FF4
:1020AE00050EB76FEBEC08F0040EB46F010EB56FB2
:1020BE00D50EB66F040EB76FEBEC08F0040EB46FCE
:1020CE000F0EB56F9851300FB66F2CEC09F0040E51
:1020DE00B46F100EB56F9651300FB66F2CEC09F031
:1020EE00040EB46F110EB56F300EB66F2CEC09F0F6
:1020FE00040EB46F120EB56F300EB66F2CEC09F0E5
:10210E0081B201D0ACD0090E0B6E1E0E0C6EE40E19
:10211E000D6E0D2EFED70C2EFCD70B2EFAD700000F
:10212E00020EB46F010EB56FFB0EB66F010EB76FD8
:10213E00EBEC08F098510908D8A0986B040EB46F18
:10214E000F0EB56F9851300FB66F2CEC09F0090ECB
:10215E000B6E1E0E0C6EE40E0D6E0D2EFED70C2E9B
:10216E00FCD70B2EFAD7000081A202D0982BE2D713
:10217E000B0E0B6E260E0C6E5D0E0D6E0D2EFED71B
:10218E000C2EFCD70B2EFAD700000000030EB46FF6
:10219E00010EB56FE30EB66F010EB76FEBEC08F0E4
:1021AE00020EB46F010EB56F100EB66F020EB76F42
:1021BE00EBEC08F081B201D0F3D7020EB46F010E32
:1021CE00B56F3A0EB66F020EB76FEBEC08F0965184
:1021DE000908D8A0966B040EB46F100EB56F965109
:1021EE00300FB66F2CEC09F0090E0B6E1E0E0C6E36
:1021FE00E40E0D6E0D2EFED70C2EFCD70B2EFAD73D
:10220E00000081A202D0962BE2D7819A340E0C6E7A
:10221E00F10E0D6E0D2EFED70C2EFCD70000000019
:10222E008198806A816A826AA56BA66B98C6A7F6AA
:10223E0018EC0AF0010E0601A56F000EA66F96C6E9
:10224E00A7F618EC0AF0030E0B6E080E0C6E770E46
:10225E000D6E0D2EFED70C2EFCD70B2EFAD70601C7
:10226E00A56BA66BBBDC00C098F6010EA56F000E29
:10227E00A66FB4DC00C096F6020EB46F010EB56FF9
:10228E00250EB66F020EB76FEBEC08F0030EB46FAF
:10229E00010EB56FCE0EB66F010EB76FEBEC08F0F8
:1022AE00040EB46F010EB56F8F0EB66F010EB76FC1
:1022BE00EBEC08F00A0E9803F3CF2EF6F4CF2FF6C0
:1022CE00000E2FBFFF0E306F316F96512E27000E6E
:1022DE002F23000E2FBFFF0E306F316F030EB46F22
:1022EE000D0EB56F9851300FB66F2CEC09F0030E32
:1022FE00B46F0E0EB56F9651300FB66F2CEC09F011
:10230E00330E0B6EBB0E0C6EDF0E0D6E0D2EFED74A
:10231E000C2EFCD70B2EFAD700000000010EBD6F5D
:10232E0026EC00F071EC0DF0816A9C0E0C6ED70E4F
:10233E000D6E0D2EFED70C2EFCD78BEC0CF0010E75
:10234E00875D02E1F40E865D32E2010EBD6F26EC72
:10235E0000F0030EB46F010EB56FA40EB66F010E32
:10236E00B76FEBEC08F0090E0B6E1E0E0C6EE40E42
:10237E000D6E0D2EFED70C2EFCD70B2EFAD70000AD
:10238E00030EB46F010EB56FB90EB66F010EB76FB7
:10239E00EBEC08F0050E0B6E0F0E0C6EF10E0D6EC3
:1023AE000D2EFED70C2EFCD70B2EFAD7C6D771ECFE
:1023BE000DF08BEC0CF086C632F687C633F6000EA7
:1023CE00346F356F81DC88518625816F8951872165
:1023DE00826F000E836F846F8A5181278B51822307
:1023EE00000E836F846F8C5181278D518223000ED6
:1023FE00836F846F8E5181278F518223000E836FDE
:10240E00846F9051812791518223000E836F846FC8
:10241E009251812793518223000E836F846F040E95
:10242E00856F0F0E776F70EC09F0060E0C6E300E86
:10243E000D6E0D2EFED70C2EFCD70000010EB46FC4
:10244E000A0EB56F4F0EB66F020EB76FEBEC08F0BB
:10245E00020EB46F0A0EB56F5F0EB66F020EB76F37
:10246E00EBEC08F0030EB46F0A0EB56F5D0EB66F8F
:10247E00020EB76FEBEC08F0040EB46F0A0EB56FD8
:10248E00610EB66F020EB76FEBEC08F0090E0B6E15
:10249E001E0E0C6EE40E0D6E0D2EFED70C2EFCD7FE
:1024AE000B2EFAD70000010EB46F0A0EB56F650E33
:1024BE00B66F020EB76FEBEC08F0020EB46F0A0E99
:1024CE00B56F630EB66F020EB76FEBEC08F0030E2E
:1024DE00B46F0A0EB56F5B0EB66F020EB76FEBECF4
:1024EE0008F0040EB46F0A0EB56F530EB66F020EDF
:1024FE00B76FEBEC08F0050E0B6E0F0E0C6EF10EB7
:10250E000D6E0D2EFED70C2EFCD70B2EFAD7010E0C
:10251E00B46F0A0EB56F510EB66F020EB76FEBECBD
:10252E0008F0020EB46F0A0EB56F550EB66F020E9E
:10253E00B76FEBEC08F0030EB46F0A0EB56F590EC1
:10254E00B66F020EB76FEBEC08F0040EB46F0A0E06
:10255E00B56F570EB66F020EB76FEBEC08F0050EA7
:10256E000B6E0F0E0C6EF10E0D6E0D2EFED70C2E89
:10257E00FCD70B2EFAD781A2D5D6040EB46F010E5E
:10258E00B56F7A0EB66F010EB76FEBEC08F0150E45
:10259E000B6E4B0E0C6EBE0E0D6E0D2EFED70C2E50
:1025AE00FCD70B2EFAD70000010EBD6F26EC00F003
:1025BE00010EB46F010EB56F7E0EB66F000EB76FC3
:1025CE00EBEC08F01A0E0C6EF80E0D6E0D2EFED7FB
:1025DE000C2EFCD70000020EB46F010EB56F690E03
:1025EE00B66F000EB76FEBEC08F081880F0E0B6E16
:1025FE00350E0C6E510E0D6E0D2EFED70C2EFCD719
:10260E000B2EFAD78BEC0CF0816A020EB46F010E12
:10261E00B56F930EB66F000EB76FEBEC08F086C673
:10262E000AF687C60BF688C60CF689C60DF68AC65C
:10263E000EF68BC60FF68CC610F68DC611F68EC62C
:10264E0012F68FC613F690C614F691C615F692C6FC
:10265E0016F693C617F694C618F695C619F60C51CB
:10266E000A25066F0D510B21076F000E086F096FBB
:10267E000E5106270F510723000E086F096F1051D8
:10268E00062711510723000E086F096F12510627F6
:10269E0013510723000E086F096F145106271551A9
:1026AE000723000E086F096F1651062717510723CF
:1026BE00000E086F096F030EB46F010EB56F540E46
:1026CE00B66F000EB76FEBEC08F0340E0C6EF10E19
:1026DE000D6E0D2EFED70C2EFCD700000000818A49
:1026EE00050E0B6E0F0E0C6EF10E0D6E0D2EFED72F
:1026FE000C2EFCD70B2EFAD78BEC0CF0816A030E46
:10270E00B46F010EB56F150EB66F000EB76FEBEC12
:10271E0008F086C6F2F587C6F3F588C6F4F589C6C5
:10272E00F5F58AC6F6F58BC6F7F58CC6F8F58DC6A7
:10273E00F9F58EC6FAF58FC6FBF590C6FCF591C677
:10274E00FDF592C6FEF593C6FFF594C600F695C646
:10275E0001F60501F451F2250601026F0501F5514E
:10276E00F3210601036F000E046F056F0501F6518C
:10277E00060102270501F75106010323000E046F1F
:10278E00056F0501F851060102270501F9510601F1
:10279E000323000E046F056F0501FA51060102278F
:1027AE000501FB5106010323000E046F056F0501A1
:1027BE00FC51060102270501FD5106010323000EFF
:1027CE00046F056F0501FE51060102270501FF5139
:1027DE0006010323000E046F056F040EB46F010E85
:1027EE00B56F3F0EB66F000EB76FEBEC08F01A0E1A
:1027FE000C6EF80E0D6E0D2EFED70C2EFCD70000B3
:10280E00300E816E050E0B6E0F0E0C6EF10E0D6EF0
:10281E000D2EFED70C2EFCD70B2EFAD78BEC0CF010
:10282E00816A040EB46F010EB56F2A0EB66F000EDC
:10283E00B76FEBEC08F0040EB46F010EB56FA80E77
:10284E00B66F000EB76FEBEC08F086C61EF687C6A5
:10285E001FF688C620F689C621F68AC622F68BC6D2
:10286E0023F68CC624F68DC625F68EC626F68FC6A2
:10287E0027F690C628F691C629F692C62AF693C672
:10288E002BF694C62CF695C62DF620511E251A6FE2
:10289E0021511F211B6F000E1C6F1D6F22511A2715
:1028AE0023511B23000E1C6F1D6F24511A27255117
:1028BE001B23000E1C6F1D6F26511A2727511B2339
:1028CE00000E1C6F1D6F28511A2729511B23000E55
:1028DE001C6F1D6F2A511A272B511B23000E1C6FC4
:1028EE001D6F030E0B6E080E0C6E770E0D6E0D2EF9
:1028FE00FED70C2EFCD70B2EFAD71E510A5D016E99
:10290E001F510B59026E000E025C02E1050E015CB6
:10291E0039E2010EBD6F26EC00F0010EB46F010E10
:10292E00B56F3B0EB66F010EB76FEBEC08F0030EF2
:10293E00B46F010EB56F650EB66F010EB76FEBEC8F
:10294E0008F0020EB46F010EB56F500EB66F010E89
:10295E00B76FEBEC08F0040EB46F010EB56F260ED8
:10296E00B66F010EB76FEBEC08F0660E0B6E760EBF
:10297E000C6EC10E0D6E0D2EFED70C2EFCD70B2E2F
:10298E00FAD7CCD407D00D2EFED70C2EFCD70B2E9B
:10299E00FAD7C4D481A201D062D2010EBD6F26EC4B
:1029AE0000F0010EB46F010EB56FFC0EB66F000E87
:1029BE00B76FEBEC08F0020EB46F010EB56FC10EDF
:1029CE00B66F030EB76FEBEC08F0030EB46F010E8B
:1029DE00B56FAC0EB66F030EB76FEBEC08F0040ECE
:1029EE00B46F010EB56FD60EB66F030EB76FEBEC6C
:1029FE0008F006C681F607C682F608C683F609C633
:102A0E0084F6100E046E270E056E000E066E076E0F
:102A1E0006C600F007C601F008C602F009C603F0AC
:102A2E0075EC07F000C07DF601C07EF602C07FF6A1
:102A3E0003C080F6020E856F080E776F70EC09F0FA
:102A4E0002C681F603C682F604C683F605C684F670
:102A5E00100E046E270E056E000E066E076E02C671
:102A6E0000F003C601F004C602F005C603F075ECD3
:102A7E0007F000C07DF601C07EF602C07FF603C0EF
:102A8E0080F6030E856F080E776F70EC09F01AC68C
:102A9E0081F61BC682F61CC683F61DC684F6100E82
:102AAE00046E270E056E000E066E076E1AC600F037
:102ABE001BC601F01CC602F01DC603F075EC07F034
:102ACE0000C07DF601C07EF602C07FF603C080F620
:102ADE00040E856F080E776F70EC09F0050E046E0C
:102AEE00000E056E066E076E06C600F007C601F0F4
:102AFE0008C602F009C603F075EC07F000C081F6B7
:102B0E0001C082F602C083F603C084F6100E046E76
:102B1E00270E056E000E066E076E75EC07F000C0F0
:102B2E007DF601C07EF602C07FF603C080F6020E6F
:102B3E00856F0F0E776F70EC09F002C600F003C6BA
:102B4E0001F004C602F005C603F003320232013270
:102B5E000032039E00C081F601C082F602C083F6E9
:102B6E0003C084F6100E046E270E056E000E066E60
:102B7E00076E75EC07F000C07DF601C07EF602C050
:102B8E007FF603C080F6030E856F0F0E776F70EC25
:102B9E0009F01AC600F01BC601F01CC602F01DC6D5
:102BAE0003F05DEC09F0B40E046EC80E056E360E21
:102BBE00066E7F0E076E41EC06F027EC02F000C0A9
:102BCE0081F601C082F602C083F603C084F6100EB1
:102BDE00046E270E056E000E066E076E75EC07F07E
:102BEE0000C07DF601C07EF602C07FF603C080F6FF
:102BFE00040E0601856F0F0E776F70EC09F0030E51
:102C0E000B6E080E0C6E770E0D6E0D2EFED70C2E63
:102C1E00FCD70B2EFAD7010EB46F090EB56FF70E57
:102C2E00B66F030EB76FEBEC08F0030E0B6E080ECB
:102C3E000C6E770E0D6E0D2EFED70C2EFCD70B2EB6
:102C4E00FAD7010EB46F090EB56FEB0EB66F030E09
:102C5E00B76FEBEC08F0030E0B6E080E0C6E770ED2
:102C6E000D6E0D2EFED70C2EFCD70B2EFAD781A291
:102C7E00D2D7010EB46F010EB56F970EB66F030E5D
:102C8E00B76FEBEC08F0020EB46F010EB56F430E8A
:102C9E00B66F030EB76FEBEC08F0030EB46F010EB8
:102CAE00B56F2E0EB66F030EB76FEBEC08F0040E79
:102CBE00B46F010EB56F580EB66F030EB76FEBEC17
:102CCE0008F00AC686F60BC687F60CC688F60DC641
:102CDE0089F60EC68AF60FC68BF610C68CF611C68E
:102CEE008DF612C68EF613C68FF614C690F615C65E
:102CFE0091F616C692F617C693F618C694F619C62E
:102D0E0095F66BEC0EF0FFEC0DF017EC0CF0010EDF
:102D1E00B46F010EB56F820EB66F030EB76FEBEC8C
:102D2E0008F0020EB46F010EB56F6D0EB66F030E86
:102D3E00B76FEBEC08F0030EB46F010EB56F030E18
:102D4E00B66F040EB76FEBEC08F0040EB46F010E05
:102D5E00B56F810EB66F040EB76FEBEC08F0F2C5CF
:102D6E0086F6F3C587F6F4C588F6F5C589F6F6C579
:102D7E008AF6F7C58BF6F8C58CF6F9C58DF6FAC549
:102D8E008EF6FBC58FF6FCC590F6FDC591F6FEC519
:102D9E0092F6FFC593F600C694F601C695F66BEC57
:102DAE000EF0FFEC0DF017EC0CF0050E0B6E0F0E87
:102DBE000C6EF10E0D6E0D2EFED70C2EFCD70B2EBB
:102DCE00FAD7010EB46F010EB56F6C0EB66F040E0E
:102DDE00B76FEBEC08F0020EB46F010EB56F960EE6
:102DEE00B66F040EB76FEBEC08F0030EB46F010E66
:102DFE00B56FC00EB66F040EB76FEBEC08F0040E95
:102E0E00B46F010EB56FAB0EB66F040EB76FEBEC71
:102E1E0008F01EC686F61FC687F620C688F621C69F
:102E2E0089F622C68AF623C68BF624C68CF625C6EC
:102E3E008DF626C68EF627C68FF628C690F629C6BC
:102E4E0091F62AC692F62BC693F62CC694F62DC68C
:102E5E0095F66BEC0EF0FFEC0DF017EC0CF0010E8E
:102E6E00B46F010EB56F570EB66F040EB76FEBEC65
:102E7E0008F0020EB46F010EB56F2D0EB66F040E74
:102E8E00B76FEBEC08F0030EB46F010EB56F180EB2
:102E9E00B66F040EB76FEBEC08F0040EB46F010EB4
:102EAE00B56F420EB66F040EB76FEBEC08F04B6BBE
:102EBE004C6B4D6B4E6B4F6B506B516B526B536B30
:102ECE00546B556B566B576B586B596B5A6B5B6BE0
:102EDE005C6B5D6B5E6B5F6B606B616B626B636B90
:102EEE00646B656B666B676B686B696B6A6B476B64
:102EFE00486B496B4A6B786B7C51000808E17B513B
:102F0E00000805E17A51000802E17951785DD8B0E8
:102F1E00ABD1050E046E000E056E066E076E06C66C
:102F2E0000F007C601F008C602F009C603F075EC02
:102F3E0007F000C0A1F601C0A2F602C0A3F603C0BE
:102F4E00A4F61AC600F01BC601F01CC602F01DC680
:102F5E0003F05DEC09F0B40E046EC80E056E360E6D
:102F6E00066E7F0E076E41EC06F000C09DF601C0A6
:102F7E009EF602C09FF603C0A0F6A1C600F0A2C640
:102F8E0001F0A3C602F0A4C603F05DEC09F09DC6E5
:102F9E0004F09EC605F09FC606F0A0C607F087ECAB
:102FAE000CF000C09DF601C09EF602C09FF603C055
:102FBE00A0F69DC643F69EC644F69FC645F6A0C62D
:102FCE0046F678C600F0000E016E0036009001360F
:102FDE000A0E0024E96E060E0120EA6E1E0E002473
:102FEE00D96E060E0120DA6EDE50EE5C0601816FA0
:102FFE00DE50EE58826F000E836F846F81C600F034
:10300E0082C601F083C602F084C603F0A00E046EE1
:10301E00860E056E010E066E000E076E9FEC0AF010
:10302E0000C081F601C082F602C083F603C084F6AA
:10303E005DEC09F09DC604F09EC605F09FC606F035
:10304E00A0C607F041EC06F027EC02F000C081F6B6
:10305E0001C082F602C083F603C084F678C604F07F
:10306E00000E056E043604900536043604900536BF
:10307E004B0E0424E16E060E0520E26E00C0E6FF44
:10308E0001C0E6FF02C0E6FF03C0E6FF0601815164
:10309E004727825148238351492384514A23100ED6
:1030AE00046E270E056E000E066E076E81C600F0CA
:1030BE0082C601F083C602F084C603F075EC07F0F9
:1030CE0000C07DF601C07EF602C07FF603C080F61A
:1030DE00270EE96E050EEA6E7851E926D8B0EA2A77
:1030EE00EECFB4F6C10EE96E020EEA6E7851E92605
:1030FE00D8B0EA2AEECFB5F60050300FB66F2CECF2
:10310E0009F0E80E046E030E056E000E066E076ED5
:10311E0081C600F082C601F083C602F084C603F0B9
:10312E0075EC07F00A0E046E000E056E066E076E45
:10313E0075EC07F008C000F009C001F00AC002F0FB
:10314E000BC003F000C07DF601C07EF602C07FF614
:10315E0003C080F60050300FBC6F89EC01F0640E96
:10316E00046E000E056E066E076E81C600F082C6F6
:10317E0001F083C602F084C603F075EC07F00A0E68
:10318E00046E000E056E066E076E75EC07F008C035
:10319E0000F009C001F00AC002F00BC003F000C03D
:1031AE007DF601C07EF602C07FF603C080F60050A9
:1031BE00300FBC6F89EC01F02E0EBC6F89EC01F064
:1031CE000A0E046E000E056E066E076E81C600F0C6
:1031DE0082C601F083C602F084C603F075EC07F0D8
:1031EE000A0E046E000E056E066E076E75EC07F085
:1031FE0008C000F009C001F00AC002F00BC003F0D5
:10320E0000C07DF601C07EF602C07FF603C080F6D8
:10321E000050300FBC6F89EC01F00A0E046E000EE8
:10322E00056E066E076E81C600F082C601F083C67B
:10323E0002F084C603F075EC07F008C000F009C078
:10324E0001F00AC002F00BC003F000C07DF601C011
:10325E007EF602C07FF603C080F60050300FBC6FC2
:10326E0089EC01F0782B48D6030E0B6E080E0C6E0F
:10327E00770E0D6E0D2EFED70C2EFCD70B2EFAD719
:10328E00FFEC0DF0040EB46F0B0EB56FBB0EB66FE8
:10329E00020EB76FEBEC08F047C681F648C682F611
:1032AE0049C683F64AC684F6100E046E270E056EC6
:1032BE00000E066E076E47C600F048C601F049C6FE
:1032CE0002F04AC603F075EC07F000C07DF601C0AF
:1032DE007EF602C07FF603C080F6040EB46F100EA9
:1032EE00B56F0050300FB66F2CEC09F0E80E046E7F
:1032FE00030E056E000E066E076E81C600F082C6C6
:10330E0001F083C602F084C603F075EC07F00A0ED6
:10331E00046E000E056E066E076E75EC07F008C0A3
:10332E0000F009C001F00AC002F00BC003F000C0AB
:10333E007DF601C07EF602C07FF603C080F6005017
:10334E00300FBC6F89EC01F0640E046E000E056E3A
:10335E00066E076E81C600F082C601F083C602F0CB
:10336E0084C603F075EC07F00A0E046E000E056EAF
:10337E00066E076E75EC07F008C000F009C001F08C
:10338E000AC002F00BC003F000C07DF601C07EF64D
:10339E0002C07FF603C080F60050300FBC6F89EC80
:1033AE0001F02E0EBC6F89EC01F00A0E046E000EB9
:1033BE00056E066E076E81C600F082C601F083C6EA
:1033CE0002F084C603F075EC07F00A0E046E000ED0
:1033DE00056E066E076E75EC07F008C000F009C0AA
:1033EE0001F00AC002F00BC003F000C07DF601C070
:1033FE007EF602C07FF603C080F60050300FBC6F21
:10340E0089EC01F017EC0CF0030E0B6E080E0C6E2F
:10341E00770E0D6E0D2EFED70C2EFCD70B2EFAD777
:10342E00010EB46F010EB56FC90EB66F020EB76FF7
:10343E00EBEC08F0020EB46F010EB56FF30EB66F23
:10344E00020EB76FEBEC08F0030EB46F010EB56F02
:10345E00DE0EB66F020EB76FEBEC08F0040EB46F13
:10346E00010EB56FA60EB66F020EB76FEBEC08F03D
:10347E00786B070E785D3EE278C600F0000E016EA6
:10348E000036009001360036009001364B0E0024B7
:10349E00D96E060E0120DA6EDECF01F0DECF02F01D
:1034AE00DECF03F0DECF04F004504E5D08E1035092
:1034BE004D5D05E102504C5D02E101504B5D18E29D
:1034CE0078C600F0000E016E003600900136003610
:1034DE00009001364B0E0024E96E060E0120EA6EB6
:1034EE00EECF4BF6EECF4CF6EECF4DF6EECF4EF6D0
:1034FE00782BBFD74BC63AF64CC63BF64DC63CF6BC
:10350E004EC63DF6600E006EEA0E016E000E026EA5
:10351E00036E2EC604F02FC605F030C606F031C677
:10352E0007F09FEC0AF000C036F601C037F602C075
:10353E0038F603C039F64BC604F04CC605F04DC63E
:10354E0006F04EC607F075EC07F05DEC09F000C012
:10355E00A5F601C0A6F602C0A7F603C0A8F604ECB5
:10356E000BF027EC02F000C081F601C082F602C01B
:10357E0083F603C084F6640E046E000E056E066EAE
:10358E00076E75EC07F000C07DF601C07EF602C036
:10359E007FF603C080F6010E0601B46F100EB56FF4
:1035AE000050300FB66F2CEC09F00A0E046E000EB0
:1035BE00056E066E076E81C600F082C601F083C6E8
:1035CE0002F084C603F075EC07F00A0E046E000ECE
:1035DE00056E066E076E75EC07F008C000F009C0A8
:1035EE0001F00AC002F00BC003F000C07DF601C06E
:1035FE007EF602C07FF603C080F60050300FBC6F1F
:10360E0089EC01F00A0E046E000E056E066E076E52
:10361E0081C600F082C601F083C602F084C603F0B4
:10362E0075EC07F008C000F009C001F00AC002F006
:10363E000BC003F000C07DF601C07EF602C07FF61F
:10364E0003C080F60050300FBC6F89EC01F0030E02
:10365E000B6E080E0C6E770E0D6E0D2EFED70C2E09
:10366E00FCD70B2EFAD7040EB46F010EB56F670E92
:10367E00B66F020EB76FEBEC08F0030E0B6E080E72
:10368E000C6E770E0D6E0D2EFED70C2EFCD70B2E5C
:10369E00FAD7040EB46F010EB56F910EB66F020E0F
:1036AE00B76FEBEC08F0030E0B6E080E0C6E770E78
:1036BE000D6E0D2EFED70C2EFCD70B2EFAD781A237
:1036CE00D2D7040EB46F010EB56F7C0EB66F020E1C
:1036DE00B76FEBEC08F0030E0B6E080E0C6E770E48
:1036EE000D6E0D2EFED70C2EFCD70B2EFAD7040E18
:1036FE00B46F010EB56F080EB66F030EB76FEBEC1D
:10370E0008F0030E0B6E080E0C6E770E0D6E0D2E5E
:10371E00FED70C2EFCD70B2EFAD781B2D2D795EF4F
:04372E0011F0FFD7C0
:103D100010EE15F0DD0E006E060E016E320EF66E20
:0E3D2000370EF76E000EF86E97EC0AF01200E8
:1037320032204F686D204C6F6164206973204F46C0
:053742004620202000DC
:10374700312E34204F686D204C6F616420697320DF
:05375700204F46460072
:10375C00312E3420204F686D204C6F6164206973CA
:05376C00204F4E20007B
:1037710032204F686D204C6F6164206973204F4E79
:053781002020202000C3
:1037860035204F686D204C6F6164206973204F4E61
:053796002020202000AE
:10379B005465737420696E2050726F677265737312
:0537AB00202020200099
:1037B00035204F686D204C6F6164206973204F463F
:0537C00046202020005E
:1037C500312E3420204F686D204C6F616420697361
:0537D500204F464600F4
:1037DA00426174744952206D6574657220202020FC
:0537EA0020202020005A
:1037EF00506C6561736520436865636B204261743B
:0537FF00746572790001
:1038040052656420616E6420426C61636B20576969
:05381400726520200098
:10381900526573756C74732020202020202020208D
:0538290020202020001A
:10382E00202020202020202020202020202020208A
:05383E00202020200005
:103843002020202020202020202020202020202075
:053853002020202000F0
:10385800506C6561736520436865636B20426174D1
:05386800746572790097
:10386D0052656420616E6420426C61636B20576900
:05387D0072652020002F
:10388200426174744952206D657465722020202053
:053892002020202000B1
:10389700466F72204661737420486F6C64205377BB
:0538A700697463680074
:1038AC0020202020202020576169742020202020F7
:0538BC00202020200087
:1038C1004E6F204261747465727920436F6E6E652C
:0538D100637465640052
:1038D60020202020202020202020202020202020E2
:0538E60020202020005D
:1038EB0042617474204361702020202020203030EE
:0538FB00204D61680092
:10390000446F20313030204D616820426174742052
:083910002020202020202000CF
:10391800486F6C642F52656C6561736520537769D5
:0539280074636820003B
:10392D0050757368205377697463682020202020B8
:05393D00202020200005
:10394200436865636B2054657374205365747469AE
:053952006E6773200008
:10395700486F6C642F52656C656173652053776996
:053967007463682000FC
:02396C00500009
:02396E00200037
:02397000200035
:02397200200033
:02397400200031
:0239760020002F
:0239780020002D
:02397A007300D8
:02397C007500D4
:02397E006800DF
:023980005700EE
:023982005300F0
:103984002020202050757368205377697463682061
:053994002020202000AE
:1039990020202052656C65617365205377697463D3
:0539A900682020200051
:1039AE002020202020202020202020202020202009
:0539BE00202020200084
:1039C30020202020202020202020202020202020F4
:0539D30020202020006F
:0639D800542D49522000AD
:0839DE00040404040F0F0F0F95
:1039E6004D61782043757272656E7420697320206C
:0539F60020202041002B
:1039FB00466F72737974682C4A756C69616E2C47CB
:053A0B00696C65730009
:103A10005265666572656E636520524347726F75C5
:053A200070732020007E
:103A25002020202020202020202020202020202091
:053A350020202020000C
:023A3A0020006A
:023A3C00200068
:013A3E00384F
:023A3F00200065
:023A41006C0017
:023A430052002F
:023A450073000C
:023A470020005D
:023A490020005B
:103A4B002333202020202020562020233720202005
:053A5B002020205600B0
:103A600023322020202020205620202336202020F2
:053A700020202056009B
:103A750023342020202020205620566F6C744C6F54
:053A850077416D7000A7
:103A8A0023322020202020205620202336202020C8
:053A9A00202020560071
:103A9F0023312020202020205620202335202020B5
:053AAF0020202056005C
:103AB40023312020202020205620202335202020A0
:053AC400202020560047
:103AC9004D64416D70732020202020205620202035
:053AD900202020410047
:103ADE004C6F416D70732020202020205620202016
:053AEE00202020410032
:103AF3004869416D7073202020202020562020200B
:053B030020202041001C
:0C3B080020202020202020202020200051
:0C3B140050757368205377697463680073
:103B2000233320202020202056202023372020202F
:053B30002020205600DA
:103B35003369722020202020202020376972202020
:053B45002020202000FB
:103B4A00326972202020202020202036697220200D
:053B5A002020202000E6
:103B5F00346972202020202020204D696C6C692D43
:053B6F004F686D7300BA
:103B740031697220202020202020203569722020E5
:053B84002020202000BC
:103B890023312020202020205620202335202020CA
:053B9900202020560071
:103B9E0023342020202020205620566F6C744D692F
:053BAE0064416D700090
:103BB300233220202020202056202023362020209E
:053BC300202020560047
:103BC80023342020202020205620566F6C74734800
:053BD80069416D700061
:103BDD002333202020202020562020233720202072
:053BED0020202056001D
:103BF20042617474204D616820436170202020204E
:053C020020202020003D
:023C0700560065
:023C0900560063
:023C0B00560061
:063C0D00562020233600C2
:063C1300562020233700BB
:063C1900562020233700B5
:063C1F0056204261740012
:023C2500560047
:073C27000420400000000032
:073C2E000000000102040880
:063C35005620202335009B
:033C3B0023320031
:033C3E002333002D
:033C410023340029
:083C4400010203040102030464
:083C4C00040404040F0F0F0F24
:033C540023310019
:103C570042617474657279204952204D65746572AA
:053C67002020202000D8
:023C6C00200036
:103C6E005075736820537769746368202020202074
:053C7E002020202000C1
:103C83003920566F6C7420426174742020202020E8
:053C9300202056200076
:103C98003920566F6C742042617474203C20362E93
:053CA800375644430003
:103CAD0042617474657279204952204D6574657254
:053CBD00202020200082
:103CC2004368616E6765203920564443204261741F
:053CD200746572790029
:103CD7005357204F6E2050777220557020736574AC
:053CE700204D616800A2
:023CEC00750061
:023CEE00730061
:023CF000500082
:103CF200446F2031303030204D616820426174744D
:053D020020202020003C
:023D070020009A
:023D0900200098
:023D0B00200096
:023D0D0068004C
:020000040030CA
:0E00000015087F7CFF0991FF0FC00FE00F4035
:00000001FF
